:10100000804900201D5D00006D080100095D0000A1
:10101000095D0000095D0000095D0000000000009E
:10102000000000000000000000000000895E0000D9
:10103000095D000000000000255E0000095D000061
:101040003D60000065A800003D6000003D600000BC
:101050003D6000003D6000003D6000003D6000001C
:101060003D6000003D600000A9D400003D6000002C
:101070003D6000003D6000003D6000003D600000FC
:101080003D6000003D6000003D6000003D600000EC
:10109000C9A800003D6000003D6000003D60000008
:1010A0003D6000003D6000003D6000003D600000CC
:1010B0003D6000003D6000003D6000003D600000BC
:1010C0003D6000003D6000003D6000003D600000AC
:1010D0003D6000003D6000003D6000003D6000009C
:1010E0003D6000003D6000003D6000003D6000008C
:1010F0003D6000003D6000003D6000003D6000007C
:10110000014B1B689B68184700000020014B1B68BF
:101110001B69184700000020014B1B685B691847DA
:1011200000000020014B1B689B691847000000204D
:10113000014B1B68DB69184700000020014B1B684E
:101140001B6A184700000020014B1B689B6A184768
:101150000000002010B4034C2468E468A44610BCCE
:10116000604700BF0000002030B50346114890F9E9
:101170001C209A4219DD90F924209A4217DA9A1A13
:10118000846AA05C0C4A15569D420DD00E3200298F
:1011900018BF01309442C0B206D129B1013BDBB285
:1011A000012B01D80130C0B230BD0D20FCE700207A
:1011B000FAE700BF380800209821010008B5054B68
:1011C00093F91C30984203DAFFF7CEFF024B1B560F
:1011D000184608BD380800209821010010B51C4CA5
:1011E00094F82C3073B9012384F82C3000F09EF869
:1011F00048B1184BA362D823236284F82430082313
:10120000A361237710BD00F0A7F80028F1D100F00A
:10121000ADF80028EDD100F06BF838B10E4BA362A9
:10122000D823236284F824300423E9E700F06AF825
:101230000028F3D100F070F80028EFD100F080F81A
:101240000028EBD14FF4DF71742000F019F800BFD3
:1012500038080020D3210100A6210100BFF34F8FE1
:101260000549064BCA6802F4E0621343CB60BFF342
:101270004F8F00BFFDE700BF00ED00E00400FA055E
:101280001FB572B6134B5D688DB9FFF7E7FFB2FB70
:10129000F6F2DCB20133002AF9D104F110036B44F9
:1012A00003F80C2C0A2234B901A8A847EDE702463E
:1012B00000230A26EDE7631E04AEDCB256FA83F380
:1012C000B0FBF2F602FB1600303003F80C0C30468F
:1012D000E9E700BFC80C00204FF08052034BD2F862
:1012E00030111960D2F834215A607047040D002083
:1012F000034B1868A0F10F0358425841704700BFD4
:10130000040D0020034B1868A0F10A03584258410D
:10131000704700BF040D0020034B1868A0F10E03B6
:1013200058425841704700BF040D0020034B186815
:10133000A0F1100358425841704700BF040D00202F
:10134000044B1868062803D0431C58425841704784
:1013500001207047040D0020034B1868A0F10D0315
:1013600058425841704700BF040D0020034B1868D5
:10137000A0F1080358425841704700BF040D0020F7
:1013800081F0004102E000BF83F0004330B54FEA36
:1013900041044FEA430594EA050F08BF90EA020FA3
:1013A0001FBF54EA000C55EA020C7FEA645C7FEA36
:1013B000655C00F0E2804FEA5454D4EB5555B8BF59
:1013C0006D420CDD2C4480EA020281EA030382EACA
:1013D000000083EA010180EA020281EA0303362D5C
:1013E00088BF30BD11F0004F4FEA01314FF4801C2F
:1013F0004CEA113102D0404261EB410113F0004F41
:101400004FEA03334CEA133302D0524263EB4303F7
:1014100094EA050F00F0A780A4F10104D5F1200E95
:101420000DDB02FA0EFC22FA05F2801841F10001F0
:1014300003FA0EF2801843FA05F359410EE0A5F1C4
:1014400020050EF1200E012A03FA0EFC28BF4CF0F5
:10145000020C43FA05F3C01851EBE37101F00045AB
:1014600007D54FF0000EDCF1000C7EEB00006EEBB8
:101470000101B1F5801F1BD3B1F5001F0CD3490842
:101480005FEA30004FEA3C0C04F101044FEA445299
:1014900012F5800F80F09A80BCF1004F08BF5FEA20
:1014A000500C50F1000041EB045141EA050130BD00
:1014B0005FEA4C0C404141EB0101013C28BFB1F512
:1014C000801FE9D291F0000F04BF01460020B1FA5D
:1014D00081F308BF2033A3F10B03B3F120020CDA30
:1014E0000C3208DD02F1140CC2F10C0201FA0CF00E
:1014F00021FA02F10CE002F11402D8BFC2F1200C73
:1015000001FA02F120FA0CFCDCBF41EA0C01904028
:10151000E41AA2BF01EB0451294330BD6FEA040471
:101520001F3C1CDA0C340EDC04F11404C4F120025C
:1015300020FA04F001FA02F340EA030021FA04F36E
:1015400045EA030130BDC4F10C04C4F1200220FAC5
:1015500002F001FA04F340EA0300294630BD21FA03
:1015600004F0294630BD94F0000F83F4801306BFC9
:1015700081F480110134013D4EE77FEA645C18BFBD
:101580007FEA655C29D094EA050F08BF90EA020F54
:1015900005D054EA000C04BF1946104630BD91EA4C
:1015A000030F1EBF0021002030BD5FEA545C05D14F
:1015B0004000494128BF41F0004130BD14F580048E
:1015C0003CBF01F5801130BD01F0004545F0FE4102
:1015D00041F470014FF0000030BD7FEA645C1ABF37
:1015E000194610467FEA655C1CBF0B46024650EA6E
:1015F000013406BF52EA033591EA030F41F400219A
:1016000030BD00BF90F0000F04BF0021704730B51F
:101610004FF4806404F132044FF000054FF00001F4
:1016200050E700BF90F0000F04BF0021704730B5B5
:101630004FF4806404F1320410F0004548BF40428A
:101640004FF000013EE700BF42004FEAE2014FEADF
:1016500031014FEA02701FBF12F07F4393F07F4FBA
:1016600081F06051704732F07F4208BF704793F0BD
:101670007F4F04BF41F40021704730B54FF46074D0
:1016800001F0004521F000411CE700BF50EA0102D3
:1016900008BF704730B54FF000050AE050EA01027C
:1016A00008BF704730B511F0004502D5404261EBEC
:1016B00041014FF4806404F132045FEA915C3FF42D
:1016C000D8AE4FF003025FEADC0C18BF03325FEACA
:1016D000DC0C18BF033202EBDC02C2F1200300FA7B
:1016E00003FC20FA02F001FA03FE40EA0E0021FAA0
:1016F00002F11444BDE600BF70B54FF0FF0C4CF48E
:10170000E06C1CEA11541DBF1CEA135594EA0C0F3F
:1017100095EA0C0F00F0DEF82C4481EA030621EA7A
:101720004C5123EA4C5350EA013518BF52EA0335B5
:1017300041F4801143F4801338D0A0FB02CE4FF067
:101740000005E1FB02E506F00042E0FB03E54FF097
:101750000006E1FB03569CF0000F18BF4EF0010E8F
:10176000A4F1FF04B6F5007F64F5407404D25FEA8B
:101770004E0E6D4146EB060642EAC62141EA55513E
:101780004FEAC52040EA5E504FEACE2EB4F1FD0C80
:1017900088BFBCF5E06F1ED8BEF1004F08BF5FEAFE
:1017A000500E50F1000041EB045170BD06F00046B0
:1017B00046EA010140EA020081EA0301B4EB5C045D
:1017C000C2BFD4EB0C0541EA045170BD41F4801155
:1017D0004FF0000E013C00F3AB8014F1360FDEBF7A
:1017E000002001F0004170BDC4F10004203C35DA56
:1017F0000C341BDC04F11404C4F1200500FA05F3D9
:1018000020FA04F001FA05F240EA020001F0004279
:1018100021F0004110EBD37021FA04F642EB0601EF
:101820005EEA430E08BF20EAD37070BDC4F10C0419
:10183000C4F1200500FA04F320FA05F001FA04F2DD
:1018400040EA020001F0004110EBD37041F10001C9
:101850005EEA430E08BF20EAD37070BDC4F12005D4
:1018600000FA05F24EEA020E20FA04F301FA05F23C
:1018700043EA020321FA04F001F0004121FA04F2E4
:1018800020EA020000EBD3705EEA430E08BF20EAB4
:10189000D37070BD94F0000F0FD101F000464000EE
:1018A00041EB010111F4801F08BF013CF7D041EA70
:1018B000060195F0000F18BF704703F00046520074
:1018C00043EB030313F4801F08BF013DF7D043EA45
:1018D0000603704794EA0C0F0CEA135518BF95EAFB
:1018E0000C0F0CD050EA410618BF52EA4306D1D182
:1018F00081EA030101F000414FF0000070BD50EAA1
:10190000410606BF1046194652EA430619D094EA2A
:101910000C0F02D150EA013613D195EA0C0F05D114
:1019200052EA03361CBF104619460AD181EA030168
:1019300001F0004141F0FE4141F470014FF0000020
:1019400070BD41F0FE4141F4780170BD70B54FF0BB
:10195000FF0C4CF4E06C1CEA11541DBF1CEA13553B
:1019600094EA0C0F95EA0C0F00F0A7F8A4EB05041D
:1019700081EA030E52EA03354FEA013100F0888014
:101980004FEA03334FF0805545EA131343EA1263DD
:101990004FEA022245EA111545EA10654FEA002692
:1019A0000EF000419D4208BF964244F1FD0404F54B
:1019B000407402D25B084FEA3202B61A65EB0305A7
:1019C0005B084FEA32024FF480104FF4002CB6EB64
:1019D000020E75EB030E22BFB61A754640EA0C00E4
:1019E0005B084FEA3202B6EB020E75EB030E22BF24
:1019F000B61A754640EA5C005B084FEA3202B6EB65
:101A0000020E75EB030E22BFB61A754640EA9C0023
:101A10005B084FEA3202B6EB020E75EB030E22BFF3
:101A2000B61A754640EADC0055EA060E18D04FEAB1
:101A3000051545EA16754FEA06164FEAC30343EA51
:101A400052734FEAC2025FEA1C1CC0D111F4801F1E
:101A50000BD141EA00014FF000004FF0004CB6E717
:101A600011F4801F04BF01430020B4F1FD0C88BFB6
:101A7000BCF5E06F3FF6AFAEB5EB030C04BFB6EBC1
:101A8000020C5FEA500C50F1000041EB045170BDB4
:101A90000EF0004E4EEA113114EB5C04C2BFD4EBE1
:101AA0000C0541EA045170BD41F480114FF0000E65
:101AB000013C90E645EA060E8DE60CEA135594EAE1
:101AC0000C0F08BF95EA0C0F3FF43BAF94EA0C0FE4
:101AD0000AD150EA01347FF434AF95EA0C0F7FF459
:101AE00025AF104619462CE795EA0C0F06D152EAAD
:101AF00003353FF4FDAE1046194622E750EA410691
:101B000018BF52EA43067FF4C5AE50EA41047FF4A1
:101B10000DAF52EA43057FF4EBAE12E74A0011D253
:101B200012F5001211D20DD56FF47873B3EB625237
:101B30000ED44FEAC12343F0004343EA505323FA43
:101B400002F070474FF00000704750EA013002D1B8
:101B50004FF0FF3070474FF00000704753B94AB95B
:101B6000002908BF00281CBF4FF0FF314FF0FF30A5
:101B700000F00CB8ADF1080C6DE904CE00F067F888
:101B8000DDF804E0DDE9022304B07047704700BFD0
:101B900008B5FFF7A1FBBDE80840FFF71FBB801A9F
:101BA00000F3070038B540B20D4659B21446FFF7AE
:101BB00005FB0023287020446B7040B238BD002321
:101BC000036070477047002070474FF0FF30704748
:101BD0004FF0FF30704770474FF0FF3070470020E4
:101BE0007047002070470023037070470022FFF702
:101BF000D6BF002070474FF0FF3070474FF0FF30E6
:101C000070474FF0FF307047704700280CBF6FF0EF
:101C10001500002070470020704707230370002044
:101C20007047002070470020704710F8012B11F812
:101C3000013B012A28BF9A42F7D0D01A70470346C9
:101C400013F8012B002AFBD1181A013870472DE92F
:101C5000F04786468C460846089E15467446194647
:101C6000002B40F0C2808542B2FA82F245D94AB1D7
:101C7000C2F1200300FA02FC2EFA03F3954043EA76
:101C80000C0C94404FEA154EA8B2BCFBFEF8230C96
:101C90000EFB18CC08FB00F943EA0C43994528D900
:101CA000EB1808F1FF3704D2994502D9A8F10207D1
:101CB0002B44A3EB0903A4B2B3FBFEFC0EFB1C33C5
:101CC0000CFB00F044EA0344A04214D92C190CF197
:101CD000FF3304D2A04202D9ACF102032C44241AEF
:101CE00043EA07401EB1D440002334607360BDE86E
:101CF000F0874746DDE76346F1E792BB431B0121CE
:101D00004FEA154EAFB2B3FBFEFC200C0EFB1C33AA
:101D10000CFB07F840EA0343984562D9EB180CF135
:101D2000FF3004D2984502D9ACF102002B44A3EB5A
:101D30000803A4B2B3FBFEFC0EFB1C330CFB07F73D
:101D400044EA0344A7424ED92C190CF1FF3304D2C4
:101D5000A74202D9ACF102032C44E41B43EA004041
:101D6000C0E7C2F1200320FA03F1954090402EFA1B
:101D700003F303434FEA154EAFB2B1FBFEFC0EFB7B
:101D80001C10190C0CFB07F841EA0041884504FAC5
:101D900002F422D969180CF1FF3004D2884502D927
:101DA000ACF102002944A1EB08019BB2B1FBFEFC9F
:101DB0000EFB1C110CFB07F743EA01439F420ED9AF
:101DC000EB180CF1FF3104D29F4202D9ACF10201B1
:101DD0002B44DB1B41EA004192E76046E3E76146A2
:101DE000F7E76046A3E76346B7E7834206D916B92B
:101DF000002108467BE7C6E900E0F9E7B3FA83F77C
:101E00008FB9834201D3724508D8BEEB020460EB60
:101E1000030301209C461EB9002168E73846FAE713
:101E2000C6E9004CF8E7C7F1200CBB4022FA0CF4DD
:101E30001C432EFA0CF120FA0CF3B84001434FEA90
:101E400014490EFA07F5B3FBF9F81FFA84FE09FBF3
:101E500018300B0C08FB0EFA43EA00439A4502FACD
:101E600007F240D9E31808F1FF3004D29A4502D9AD
:101E7000A8F102002344A3EB0A0389B2B3FBF9F8EB
:101E800009FB183308FB0EFE41EA03418E452CD9AD
:101E9000611808F1FF3304D28E4502D9A8F102037C
:101EA000214443EA0040A0FB0298A1EB0E0141450A
:101EB000CE46434602D306D14D4504D2B9EB020EBD
:101EC00068EB04030138002EA6D0B5EB0E0261EBDF
:101ED000030101FA0CFC22FA07F34CEA0303F94070
:101EE000C6E9003198E74046C5E74346D9E7000018
:101EF0002DE9F04FD0E9006389B0884603938389C8
:101F000005931546B36803995B6806AA304698475F
:101F1000002831DBDDE9064BA8FB0423049208FB13
:101F20000B380498DFF8609015A3D3E900234146ED
:101F3000FFF714FE049B4FF0FF3A9A4579EB080334
:101F4000074619D3A5FB044305FB0B3529460CA313
:101F5000D3E900232046FFF701FEA24579EB0505F2
:101F6000034609D38742B26806D3059900911468E5
:101F700003993A463046A04709B0BDE8F08F00BF4C
:101F800000CA9A3B00000000FFC99A3B0000000015
:101F9000B0B588B0002402AF14222146381D7C80E1
:101FA0000FF026FEBB1CFB6002233B6101250A23C8
:101FB0003B75BD603E488368391D5B689847031ECA
:101FC00008DA3C4A3C4829460DF096FA2046183774
:101FD000BD46B0BD6D468AB0397D7B7D02AA3748CB
:101FE000C2E907130523C2E9050442F8103F32484D
:101FF00023464FF4235101F0BBFEB7F90240304AAB
:102000002D48AD46234603210DF076FA2046FFF712
:10201000F9FA23A3D3E90023FFF76EFB22A3D3E948
:102020000023FFF793FCFFF779FD264A264D04466F
:102030000346032120480DF05FFA642303FB04F2FA
:102040002249A2F5A722A2F576728A429CBF40F2ED
:102050000233B2FBF3F32B601D4A174800940321AF
:102060000EF048FA2B680E2B13D81A4B1B7883B945
:10207000194B1A786AB901221A7000220023CDE99F
:10208000002316480DF030FA154A0B4803210DF0D5
:1020900029FA204600F0EEFB98E700BFAFF300807E
:1020A0006D1AD0A6016D6A3F25EA59555555E53F91
:1020B000241E01004E280100DC20010068280100D8
:1020C000B7280100CA280100D8150020C92F010037
:1020D000DA280100C32C0020C42C00207805002041
:1020E000FE28010008B50548054A03210DF0FAF95C
:1020F000BDE8084003480BF0A5BE00BFDC2001008E
:1021000014260100B815002007B5084B1B784BB901
:10211000074B1B7833B100220023CDE9002305488B
:102120000DF0E2F903B05DF804FB00BFC32C002002
:10213000C42C002040050020032802D0042806D02B
:102140007047054B01221A7004480BF0F1BC024B9A
:1021500000221A70704700BFC52C0020F80600202E
:102160002DE9F74F694D2B782BB9694803B0BDE8CD
:10217000F04F0DF0C3B9674F674EDFF8A0813868A4
:102180003278D8F800104400B2FBF4FC04FB1C23A6
:1021900009B1614557D9624A98421478614A10D909
:1021A0005343B3FBF0F2082C00F2AC80DFE804F0FC
:1021B000A5A7AA051C36383A3C001446002215464D
:1021C00014E01B1A5343B3FBF0F3D21A082C00F2AD
:1021D0009980DFE804F092949705092325272900C8
:1021E00014460022002501E0154600244D494E48C2
:1021F000FFF77EFE4B494D482A46FFF779FE2246FF
:1022000048494B48FFF774FE33780133337000229E
:102210000023CDE9002340F2676267E05508E4E758
:102220001446DFE71446CAE700296BD13848297005
:1022300031700DF063F93F4A3F48032103B0BDE818
:10224000F04F0DF04FB904FB112232235A43B2F57F
:10225000FA7F4FF0000456D32246324932482C70A0
:102260003470FFF745FE22462E493048DFF8CCA0F7
:10227000FFF73EFE22462B492D48FFF739FE244842
:102280000DF03CF99AF80040A4B3DFF8B4B0013C7B
:10229000ABF10C090C22624359464846E4B20FF0F8
:1022A0008DFC8AF800402CB301232B701C4B1BF8CB
:1022B0000C2C1A70D9F8043099F80820C8F80020BE
:1022C0006333B3F57A7F38BF0A234FF0000224BF8F
:1022D0006421B3FBF1F33B600123327089F80930CC
:1022E00040F267620023CDE9002300220848002362
:1022F0000DF0FAF803B0BDE8F08F002472E7154640
:10230000002272E70024254622466FE7C82C0020F1
:102310002006002034160020C72C0020CC150020F9
:10232000B4040020404B4C00582201004822010018
:10233000382201003F260100DC200100C62C0020CD
:10234000EC1500202DE9F04F85B0DFF8E880DFF8CC
:10235000E8B0DFF8E8A00FF048FBD8E900574FF4E9
:102360007A73A0FB030603FB0166C40B55EA07035F
:1023700044EA46444FEAD63651D040F2E739F103F9
:10238000E00310EB090041EA54414FF47A724FF038
:10239000000341F10001FFF7E1FBF90341EA554178
:1023A000ED03039015EB09004FF0000341F100012C
:1023B0004FF47A72FFF7D2FB039B181A63EB030307
:1023C000B0F5803F73F1000329DADBF80030591CC7
:1023D000E3B102291DD01FDC4FF416020023CAE925
:1023E0000023174ACBF80010032116480DF07AF8A5
:1023F000DAE90023C8E900461348CDE900230022AA
:1024000000230DF071F805B0BDE8F08F4FF4702295
:10241000E4E74FF4B402E1E74FF4F002DEE7002313
:102420004FF4F012CBF800300023CAE90023074A2A
:10243000DAE700BF500D0020DC1500204800002026
:1024400061260100DC200100E80500209026010043
:1024500007B503210A4A0B480DF044F84FF4F01277
:102460000023CDE900230848002200230DF03CF8AA
:10247000FFF768FF054B00221A7003B05DF804FBFC
:10248000C7260100DC20010008050020C22C002026
:1024900008B5064B064801221A700321054A0DF0C3
:1024A00021F8BDE80840FFF7D3BF00BFC22C0020D1
:1024B000DC200100E526010008B5064B0648012294
:1024C0001A700321054A0DF00DF8BDE80840FFF72A
:1024D000BFBF00BFC22C0020DC2001000A27010082
:1024E00037B5154B154C187821786278884202D19F
:1024F000587890421DD01248197002250570258821
:10250000A0F805505A7008F093FD60B923786278FE
:102510000C48009203210C4A0DF0ECFF03B0BDE81B
:102520003040FFF70FBF094A064801210CF0DAFFDF
:10253000F4E703B030BD00BFC02C0020EE2C00201B
:10254000C92C0020DC2001002D27010042270100BA
:1025500030B585B00D4B0093012408230193CDF8CD
:1025600008D003940A480B49836800221D6802AB17
:10257000A847034618B9FFF7B3FF05B030BD064AB8
:10258000064821460CF0B8FFF7E700BFEE2C00200C
:10259000841E0100B40100205B270100DC20010043
:1025A00038B5072805D8DFE800F02B17041A1E22DB
:1025B000252800242546224612491348FFF798FC97
:1025C0002A4610491148FFF793FC22460D4910484E
:1025D000BDE83840FFF78CBC0A4D0024EBE700252E
:1025E000084C2A46E8E7074D0024064AE4E7094D6F
:1025F0000024FAE7034C0025F7E7024C2546F4E7F0
:102600000024FBE7404B4C00582201004822010007
:1026100038220100A0252600F7B5244A2448254E7B
:10262000234F03210CF05EFF0024032508F0F8FC83
:1026300070B90134032100952346324638460DF027
:1026400059FF4FF4247000210FF056F9032CEDD1FF
:1026500008F0E6FC28B90323174A154819460CF080
:102660004BFF16480CF04AFF15480CF047FF154881
:102670000CF044FF14480CF041FF14480CF03EFFEE
:1026800013480CF03BFF08F07BFB124812498368AB
:102690005B6898470820FFF783FF104A044803212E
:1026A00003B0BDE8F0400CF01DBF00BF742701006F
:1026B000DC200100AD270100CB2701000805002028
:1026C0007805002040050020B005002020060020ED
:1026D000E8050020841E0100B4010020E527010068
:1026E000F7B52E4B1C7834B12D4C2478062C02D92A
:1026F00012B103B0F0BD1ABB1C782A4A14B1147889
:10270000082CF6D06331B1F57A7F4FF001041C70CC
:1027100024BF6423B1FBF3F1234B10704FF0000290
:102720001A70224B38BF0A21196040F267620023F9
:10273000CDE900231E48002200230CF0D5FED8E787
:10274000DFF85CC01B4C9CF800500C266E43A719A8
:1027500001353A7200227A721A78A05579608CF8A5
:102760000050002AC5D101221A700E4B22781A702F
:102770006368217A6333B3F57A7F24BF6422B3FBA5
:10278000F2F30D4A1160084A4FF000011170074A38
:1027900038BF0A23136001236372C6E7C82C0020E8
:1027A000C62C0020B4040020C72C002034160020C2
:1027B00020060020E0150020CC15002013B5144C95
:1027C0002368072B0CD8134B187848B903224FF411
:1027D0007A71FFF785FF23680133236002B010BDD3
:1027E00000230D4823600CF089FE0C4B1B78002B56
:1027F000F4D0084B1B78002BF0D100220023CDE948
:10280000002307484FF4160200230CF06DFEE5E7A5
:10281000CC150020C32C002040050020C42C002033
:102820007805002007B5114B1878012288B14FF4C4
:10283000FA611046FFF754FF00220023CDE9002380
:102840000B484FF4803200230CF04EFE03B05DF8CD
:1028500004FB40F6B831FFF743FF05480CF04EFE8D
:10286000082003B05DF804EBFFF79ABEC32C0020EC
:10287000B00500202DE9F74F06460FF0B6F8374FA8
:102880004FF47A73A0FB034503FB0155D7E90023FE
:10289000E40B44EA4544A21A4FEAD53565EB03033D
:1028A000B2F57A7F73F100034FF0000839DBDFF8EF
:1028B000B0A0DFF8B090DAF8003043B3F31A962BEB
:1028C000294B31D94FF0010B83F800B000220023CF
:1028D000CDE9002325484FF4804200230CF004FE8C
:1028E000234B244883F800800CF008FE22480CF0AB
:1028F00005FEDAF80030214A21480321F31A0CF0D2
:10290000FBFD424640F6C4115846FFF7E9FED9F8F0
:102910000030CAF80060C7E900459E4288BFC9F888
:10292000006003B0BDE8F08F1A78002AEFD041F2C2
:102930005D029642EBD90D480CF0E0FD0A4B114ABE
:102940000F4883F8008003213346C9F800600CF07B
:10295000D3FD424641460820D7E700BF480D00207E
:10296000D4150020D0150020C32C0020B005002075
:10297000C42C00207805002040050020FD27010020
:10298000DC2001002B28010073B5044608F00AFC86
:1029900020B9174A174803210CF0A4FD164A062354
:1029A0000026CDE900361546082305F8053BCDF88D
:1029B00001406B4603CBC2F805001046696008F081
:1029C00037FB80B90D4A0B48032123460CF094FDD8
:1029D0000222C8210120FFF783FE082002B0BDE8D3
:1029E0007040FFF7DDBD02224FF496713046F2E7EA
:1029F0001C290100DC200100C92C0020382901001D
:102A000010B5FFF7C5FA044620B9104A1048012155
:102A10000CF068FD0F4B1B684A2B11D8312B11D8D5
:102A2000182B11D8B3FA83F35B09D800012240F6C2
:102A3000B831FFF755FE2046BDE81040FFF7A4BFB0
:102A40000120F3E70420F1E70520EFE74D2901001D
:102A5000DC200100D8150020F0B587B0A74AA848AF
:102A600002AF03210CF03EFDA648A74C0AF052FD30
:102A7000206020B9A54AA24801210CF033FDA44AE8
:102A80009F4803210CF02EFD0023A24920682D222F
:102A900003F03CFEA04A9A4803210CF023FD206875
:102AA0000DF037FF034620B19C4A954801210CF0F8
:102AB00023FD9B4A924803210CF014FD994802F033
:102AC00017F8034620B1984A8D4801210CF014FDF7
:102AD000964A8B4803210CF005FD4FF080430022FD
:102AE000C3F8002101221A60D3F80021002AFBD08C
:102AF000002121200EF000FF8D4A814803210CF0B7
:102B0000F1FC8C4B0121C3F8FC1FD3F8FC2F8A4247
:102B100040F08381884A7A4803210CF0E3FC87481F
:102B2000874BC360042383720823437440F201136C
:102B300001244382834B43600480047208F058F9F7
:102B4000034620B1804A6E4821460CF0D5FC7F4BED
:102B50007B60381D08F03EFB20B17D4A68480121AA
:102B60000CF0C0FC7B4A1068516807F1080303C3EE
:102B70000821781808F048FB20B1774A6048012105
:102B80000CF0B0FC022008F067FB034620B1734A4A
:102B90005B4801210CF0B0FC08F004FB034620B1B7
:102BA0006F4A574801210CF0A7FC6E496E4800227D
:102BB000FFF79EF96B496D480022FFF799F96949C3
:102BC0006B480022FFF794F96A4A4D4803210CF044
:102BD00089FC694C20460EF02FFC034690B96D46E7
:102BE00088B0216802AA6548C2E905014FF4007166
:102BF0009183634942F8101F41484FF4E25101F0BC
:102C0000B7F8AD46A3685F491B685B489847002842
:102C100006DA5D4A00900023394801210DF06AFC74
:102C20005A495B480EF078FD5A480EF005FC20B971
:102C3000594A334801210CF055FC584958480CF0CA
:102C40003CFC034620B1574A2D4801210CF054FCAE
:102C5000504CA568AE69002E00F0E6804FF080630E
:102C60004FF0A07206212046B047034620B14E4ADD
:102C7000234801210CF040FC4C494D4B4B60402354
:102C80008B60EB69002B00F0D2804248012298470C
:102C9000034620B1474A1A4801210CF02DFC3D485B
:102CA0000EF0CAFB20B9444A154801210CF01AFC69
:102CB000424943480CF001FC034620B1414A104808
:102CC00001210CF019FCA468A569002D00F0B28068
:102CD0004FF000732F484FF0A0720821A847034619
:102CE00020B1394A064801210CF006FC3749384B1F
:102CF0004B604FF480738B60E3696BE08A290100BD
:102D0000DC200100B3290100C8150020B929010009
:102D1000D2290100382D0100EE290100FE29010011
:102D20001D2A0100392100002E2A01004B2A010032
:102D3000652A010000100040822A0100A001002045
:102D40006400050051250000BB2A0100AB12CD3400
:102D5000D32A01002F2D0100F02A0100072B0100CA
:102D6000282B0100404B4C00582201004822010052
:102D700038220100472B0100241E0100572B0100BF
:102D8000030000016E220100702B0100012A0000E7
:102D9000B8150020DC1D01009B2B01002000010064
:102DA00084220100AF2B0100DC2B0100441600201F
:102DB00091240000132C0100432C0100100001009D
:102DC0007C220100552C0100802C010038160020C7
:102DD000B92400008BB31A4801229847034620B15A
:102DE000184A194801210CF087FB184A164803219C
:102DF0000CF078FB0321164A13480CF073FB4FF4D8
:102E000020320023CDE900231248002200230CF0D9
:102E10006BFB00201437BD46F0BDD3F8FC3F0E4AD3
:102E200009480CF069FB7AE66FF057031FE76FF073
:102E300057032FE76FF0570353E76FF05703CFE7C0
:102E4000DC1D0100B52C0100DC200100E32C010099
:102E5000082D010008050020932A01002DE9F04FFC
:102E600091B08407009302F004030293C2F3C203FB
:102E700003F10103DDF86880039205460E460593D1
:102E800040F0BA81041D30B1072909D86FF01B004A
:102E900011B0BDE8F08F01F007063444C6F1080612
:102EA000009B4FF00009591E4FF0040A4FF0FF330A
:102EB0000193CDF810904F46CB4653460DB1009A82
:102EC00022600598002800F3E8809848009A824222
:102ED00003D397488242C0F0E080039AA4EB050E2A
:102EE00092074FEA9E0000F103810F2F00F2B1809C
:102EF000002D00F0058107F140020DEB020C019A54
:102F00000CF8200C0CF8102C049801300490E7E029
:102F10007A285DD84B280ED8472859D829282DD88B
:102F2000252852D054D820287AD02338D0F1000B4D
:102F30004BEB000B74E04C382E2849D8DFE800F04A
:102F40007048484848484848484848484B484848D6
:102F5000484848484859484B4B595959704B6D4857
:102F60007048184B184848827F4B48484B487F00B0
:102F700000204FF0000B4FF0040A38E02A38C0B2AE
:102F8000012202FA00F010EA0E0F49D110F0625C43
:102F90002FD110EA020B43D06046013C5444B4FBED
:102FA000FAF40AFB04F4002D61D0A3EB050CA44451
:102FB000B4453FF66BAF002868D1042B47D158F8D1
:102FC000043B2360043404232AE0019A013A01926D
:102FD0004FF0000B24E011F8010C6C2834D111F8EB
:102FE000023C00206C2B8346C5D14FF0080A5346A3
:102FF000D3E708F1070828F007080734F8E802AB20
:1030000024F0070435B106982044B0423FF63EAFA5
:10301000C4E900AB08344FF0000B4FF0080A5346E8
:1030200011F8010F002878D0BBF1000F7FF470AFCA
:103030002528F5D1019B013301934FF0010B4FF08F
:10304000040AECE7584694E700208346A5E7082BDE
:1030500002D06FF015001BE708F1070828F00708F9
:10306000F8E80223C4E9002308340823D8E768B944
:10307000042B02D108F10408A4E7082BE9D108F1D8
:10308000070828F0070808F10808EDE7059A013A53
:10309000059258F8042B009210E7039A900720D568
:1030A000A4EB050E4FEA9E004FF0010CBEF5007F29
:1030B000CFD20F2FCDD8F5B107F140020DEB020EA4
:1030C000C0B2019A0EF8200C0EF8102CBCF1000FC3
:1030D0003FF41AAF60F07F000EF8200C09F10109EF
:1030E0000137C5F10802043406924FF6DA7E97E7FD
:1030F0004FF0000CDAE7BCF1000F01D00136EFE72A
:10310000029802360028EBD10098CDE90631FEF78F
:1031100096FDDDE906310644E2E7631BB3F5806FF7
:1031200097D23DB9A6F10804E018B1E6EC1C010005
:10313000A83E0100029A28609B082B709DF8103071
:10314000C2B1EB7085F80290B9F1000F05D008A864
:103150000022C5F1010C97420ED1C5F101030DF11A
:1031600020084FF0000A01930DF1300B574512D1A2
:10317000601B8DE66B70E5E710F8013B190608D57A
:103180000CEB040EB64503F07F033FF67FAE04F868
:10319000013B0132DFE7B9F1000F03D098F90020BD
:1031A000002A17DB029BD3B11AF80B2004F8012B7D
:1031B0000022019B18191044B0423FF667AE98F800
:1031C000000004F8010B0099039220460EF0E8FC81
:1031D000039A14440AF1010A08F10108C6E798F8B5
:1031E000002055F822300093029B45F822300098C9
:1031F000FEF725FD421CDCE76FF00D0048E600BF3E
:103200002DE9F04F97B000AF90F802A0D7F880B04A
:103210003B62CBF3C0030446FA62BB61894641B905
:10322000457800780AEB800020444D4517D8A0EB84
:103230000409E378FB61BAF1000F02D01BF0010F23
:1032400016D1FB6953BBFB6A1BB13A6A494620465B
:1032500098474D4628465C37BD46BDE8F08F461C72
:103260003046FEF7ECFC0130304409F10109DCE79F
:10327000237862687A62FA6A9900796104EB8301C3
:10328000002A40F000814D460E4601EB0A094FF03E
:1032900000084E454CD101EB0A0610E01BF0020F6E
:1032A000D1D023789A007A6162687A62FA6A04EB74
:1032B0008301002A77D14D4601EB0A0690461BF0A8
:1032C000050F0CBF02230123FB62FB6906EB430AD7
:1032D0000BF00203BB625645BCD016F8021B16F871
:1032E000013C54F82390994B994502D3984B99454A
:1032F00036D3BB69002B40D0786A0CF0DFFB002886
:103300003BD0E9468AB06A46924B53617B6AC2E978
:1033100006314FF4007313848F4B42F8103F8F48EF
:1033200000234FF4125100F023FD023DCD46D2E7B9
:1033300016F8013BF96254F82300FEF780FCD7F839
:103340008430F96A01304BB1D7F8883098453EBFD8
:10335000D7F8843023F8180008F10108054498E7ED
:10336000BB6923B1786A0CF0A9FB0028C9D11BF016
:10337000010F05D1FB6AED1AADE7BB6A002BAAD09D
:103380004846FEF75CFCD7F8843053B1D7F8883054
:1033900098453FBFD7F88420431C22F8183008F125
:1033A0000108054497E7BAF1000F72D01BF004063C
:1033B00072D0D046002607F1480052463B61B96200
:1033C0000EF0EEFBB96A3B6901EB0A02BA62FA69D8
:1033D000F9695200FA60BA6A02EB41023A610BF0F5
:1033E0000202BA603A69B96A8A4257D162787A624F
:1033F0001BF0020F32440CBF4FEA580100211BF0B2
:10340000010FD2B240F09F801BF0040F14BF404662
:103410000020BB616270A070E1703A6A7969FB6A52
:1034200020469847051EFFF615AFBB6923707B6ADF
:103430006370FB69E37041463A6AFB6A84F802A054
:1034400007F148009847B0F10008C0F2BB807B69E3
:103450003A6AA9EB0A01C91AFB68C91AD7E90A0333
:1034600098470028C0F2B080A84408EB00054FF050
:10347000000B07F1380AB34572D300213A6AFB6AA0
:1034800008469847E6E656464FF0000807F1380030
:1034900093E75646D04697E7B04695E7BA6A12F8E2
:1034A000021BBA6212F8015C284A54F825009042C7
:1034B00002D3274A90421ED3BA6932B1786A7B6040
:1034C0000CF0FCFA7B6800288CD1BA6802BB08F1CA
:1034D000280207F1300C08F10100944407F158026A
:1034E00052FA80F008F102080CF8101C5FFA88F814
:1034F00000F8105C76E7BA693AB1786A7B600CF044
:10350000DDFA7B6800287FF46DAF1BF0010F09D056
:1035100006F1280207F13000711C161806F8205C2D
:10352000CEB25FE71BF0040F3FF45CAF08F1280256
:1035300007F1300008F1010102EB000808F8105C07
:103540005FFA81F84EE7002063E700BFEC1C010042
:10355000A83E0100712D010004000001EC200100D3
:103560001BF80A3087F8373054F82390D7F88430A6
:103570002BB3D7F888309B4521D2D7F8843033F865
:103580001B803A6AFB6A012107F13700984700283F
:103590001ADB0544B8F1000F06D14846FEF74FFB91
:1035A00000F101081FFA88F83A6AFB6A414648466A
:1035B0009847002808DB05440BF1010B5BE74FF04F
:1035C0000008DEE7454645E6054643E6014B186040
:1035D000704700BFC801002080B505460E4617465B
:1035E00098460AF09FFF03460EF076FBDFF818902E
:1035F000044649F80030424630463946A84754F858
:10360000090002F0F9FB00BF080000002DE9F047B7
:10361000058B04462807904611D4022905F00705BA
:1036200040F0CC8020460CF0F9FC78B10138218BB9
:10363000042811D8DFE800F0C2106D85950001293B
:103640000CBF45F0100545F02005258388F311884F
:10365000BFF36F8FBDE8F08701F0070AAA4500F0BD
:10366000A5800027B9463E46A368002B00F0BC8029
:1036700041F00801218388F31188BFF36F8FA1689F
:10368000002900F0BA800D68002900F0B680D1F85A
:103690000480334652462046C047002D76D02B6822
:1036A00029461D46F0E701F007035A1F012A1BD8DF
:1036B000002221F00701062B276889B2C4E9002205
:1036C00009D13B4603E0628B013262831B68002B09
:1036D000F9D141F00201218320460CF09FFC002823
:1036E0007AD041F0200176E0042B0AD121F00701C5
:1036F00089B2218320460CF091FC10B141F02001E9
:103700002183218B01F0070AAA454FD00027B94633
:10371000AAE7236921F0070141F00601062DD3F83D
:10372000009021832DD1B9F1000F3FD041F0080165
:10373000218388F31188BFF36F8F3A492046C84729
:1037400029E021F00701236941F0040189B2042D29
:10375000D3F804902183E6D000273E464FF0040AB8
:1037600082E721F00701236941F0050189B2052DA7
:10377000D3F808902183D6D000273E464FF0050AA3
:1037800072E700273E464FF0060A6DE72B4687E7B3
:10379000B9F1000FD1D1EFF31188402383F31288E0
:1037A000BFF36F8F238B23F008032383258BEA0657
:1037B0002ED525F01003238305F007056669218BBC
:1037C000002EBFF670AF00232768C4E9003321F054
:1037D000070141F001012183218B01F0070AAA456D
:1037E0004FF000097FF440AF002F9CD041F008015A
:1037F000218388F31188BFF36F8F002FC8D03D68F5
:1038000039463346524620460CF034FC2F46F4E746
:10381000AB067FF51BAF25F02003238305F00705DA
:1038200000E700BFA10001002DE9F047DFF8588054
:10383000044607464FF0010914B93846BDE8F08741
:1038400094FAA4F5B5FA85F509FA05F32E0108EB0B
:1038500005156FEA030A24EA03042B7B002BEBD047
:1038600058F806301B694BB9464404227368284651
:10387000196807EA0A0700F067FADDE72846984763
:103880000028D9D1F0E700BF7C21010030B51049F4
:10389000104889B000220EF0EFF80F4D0F494FF499
:1038A00000320023CDE9062300240E23CDE90334A2
:1038B000CDE901440A4B00944FF4407228460AF0C7
:1038C0007BFB084928460DF065FF204609B030BD56
:1038D000E9380000E0110020580D002000300020E1
:1038E000ED3B0000252E010001480AF021B900BF80
:1038F000E80600202DE9F04780461F480F460CF0EF
:1039000060FD0646002830D000252846BDE8F08737
:10391000237B6BB12368DB680BB120469847236893
:103920001B69D3B9636804221968204600F00CFAB9
:10393000013610344C45EBD3B8F1000FE5D0002D23
:10394000E2D02846FFF770FF0546002FF7D0002190
:103950004FF4A4700DF0D0FFF1E7204698470028FF
:10396000E0D00AFA06F31D43E2E7044CDFF81090BA
:1039700005464FF0010ADDE7601600207C210100BA
:103980008C210100014B53F820007047A022010058
:1039900008B5034608462BB1044A136000F07EFCCC
:1039A000002008BD6FF01500FBE700BFCC01002030
:1039B00010B5044C237813B903480AF0B9F8012371
:1039C000237010BDF62C0020E806002010B5044638
:1039D0000B480CF0F6FC5CB1BFF35B8F094B53E86E
:1039E000001F013943E80012002AF8D1BFF35B8FB2
:1039F00005480EF04DF80548BDE810400AF098B8AB
:103A0000581600205C160020E0110020E806002077
:103A10000020064BBFF35B8F014653E8000F43E8DD
:103A20000012002AF9D1BFF35B8F704758160020AF
:103A300070B5FFF7EDFF084C084E0546B44200D3C1
:103A400070BD63685B792BB123685B6813B129464D
:103A5000204698471034F1E77C2101008C210100B9
:103A600010B5044C044920460CF056F9034B1C6079
:103A700010BD00BFCC0400208C2201005016002095
:103A8000084A094808B500231370084A1360084A19
:103A90004FF400411360FFF77BFFBDE80840FFF7DC
:103AA000DFBF00BFF72C0020BF0301005816002025
:103AB0005C16002001460022014800230CF04DB99D
:103AC000CC04002001480CF0E6B900BFCC04002073
:103AD000024B014618680CF032BA00BF50160020A5
:103AE00001480CF067BA00BFCC04002070B5284B29
:103AF000187800284BD0FFF7E5FF054690B1BFF3DB
:103B00005B8F244B53E8001F013943E80012002A61
:103B1000F8D1BFF35B8F204C204EB4422DD3284602
:103B2000FFF7D6FF1E4B1F4C1B68002B19DD0DF055
:103B30005CFF4FF47A72A0FB020302FB0131C30B5E
:103B4000D4E9002043EA41439B1A4FEAD13140F2C5
:103B5000E93261EB0001934271F1000101D3FFF7FB
:103B600067FFD4E9003213F57A7342F10002C4E929
:103B70000032BDE87040FFF7B3BF63685B7923B1E3
:103B8000236829461B68204698471034C5E770BD56
:103B9000F62C00205C1600207C2101008C21010005
:103BA00058160020D811002070B50D4D297861B944
:103BB0000120FFF79FFE0B4C0B4EB44206D3FFF7DC
:103BC00095FF0028FBD101232B7070BD63685B79E2
:103BD0001BB1236820469B6898471034EDE700BF6F
:103BE000F72C00207C2101008C21010000212DE90F
:103BF000F0470846FFF77EFE044658B340F2676878
:103C00004FF000090EF068F81B4B1C4A1B5813605C
:103C100033B11B4B1B68092B02DD1A4809F088FFE2
:103C2000194FDFF860A0002544B12046FFF7FCFDE6
:103C3000044618B94FF0FF384FF0FF39FFF756FF31
:103C4000064628B9B5B942464B46504609F0A4FF8E
:103C50003546E9E74FF0FF384FF0FF39D2E72B68E0
:103C60009B691BB100221146284698471035BD427A
:103C7000F5D3E8E7054DFAE70800000054160020E8
:103C80005C160020E80600208C2101007C21010048
:103C900013B518480CF095FB174B1B7873B1EFF375
:103CA0001184402383F31288BFF36F8FFFF71EFF49
:103CB00084F31188BFF36F8F02B010BD0F4B1B68E8
:103CC000002BF9D050B900220023CDE900230C4885
:103CD0004FF4004200230AF0F1FEEDE70928EBD192
:103CE00007480DF0D5FE074802B0BDE8104009F0C6
:103CF0001FBF00BF5C160020F72C002054160020C8
:103D0000E0110020E806002010B5064B1B680446B1
:103D100098472146A06004480CF09EF8BDE810408A
:103D2000FFF7B6BFCC010020CC040020044A054BAD
:103D30009B1AB1EBD30F34BF52F83100002070470B
:103D4000DC2001007C210100084BC31A10B41B11B8
:103D500044680133237143689A714368196043686A
:103D600001225A7110BCFFF723BE00BF7C21010065
:103D70002DE9F04F8FB004AFC1F34A28B8600D466B
:103D800091467B600C0DB8F1000F63D0002607F15F
:103D900014034FF0040B4FF00A0AC7F80C80C7E970
:103DA00007667E620193CDF808B0CDF800A007F158
:103DB0001C03F96832464846FFF722FAB0F5006F57
:103DC00003461CD36C468AB0D9F8041004AB2648CD
:103DD000C3E9050140F2FF71D9611A464FF4007141
:103DE0001984224B42F8103F214833464FF41251B8
:103DF000FFF7BEFFA5462C37BD46BDE8F08FC0F3E8
:103E00000A0804F11700184420F0070080083B60FE
:103E1000FFF750FE68F35325044690B13B68154AFE
:103E2000C7E9083600F1100107F11403F961CDE983
:103E300000A3CDF808B0F96807F11C034846FFF766
:103E4000DFF968F353257B68B9682A4620460CF0F1
:103E5000EEFAD0E704F1170020F007008008FFF722
:103E600029FE0446EDE700BF3A2E010004000001E0
:103E700014210100030401002DE9F04F87B0DDE9B2
:103E80001279DDE9105A0446039193469846BFB172
:103E9000CDF800903B46524610210020CDF81490FA
:103EA000FEF7DCFFB0F5006F06460AD3184A194842
:103EB00040F2FF73022107B0BDE8F04F0CF010BBD9
:103EC0003E4605F11700304420F0070004F00704D7
:103ED0008008FFF7EFFD0BF0070BE40044EA8B14BA
:103EE00044EA462444EA0554054640B13FB1CDF8C2
:103EF00000903B46524631461030FEF7AFFF039923
:103F000043462246284607B0BDE8F04F0CF08FBA72
:103F1000792E010014210100406820B1034BC01A22
:103F200040F3CF0070474FF0FF307047DC200100B6
:103F30000EB403B503AB014653F8042B04480193B8
:103F400002F002FA02B05DF804EB03B0704700BF64
:103F500043050100CA0605D48B064CBF024903493C
:103F6000FFF7E6BF704700BFB22E0100B12E01007F
:103F70002DE9F04F89B09B46149B06939DF84CA009
:103F8000159B0593169B179E049304460D46904679
:103F9000BAF1000F00F09D8006F4807307930CF0D7
:103FA0002EFA06F00209024600283ED0914920462A
:103FB000FFF7BEFF0746B9F1000F08D016F0440F17
:103FC00035D18D492A462046FFF7B2FF074406F057
:103FD000010353B1894B8A4953F82A20894B204663
:103FE000002A08BF1A46FFF7A3FF06F48073002BD0
:103FF00049D006F00803002B63D1B8F1000F66D05A
:10400000814942462046FFF793FF0546069B3D4403
:10401000002B6DD1049B002B73D1F30700F1E480DA
:1040200031462046FFF796FFD8E00746C3E7774BB7
:1040300018680028CAD0764B4FF47A791B68B5FB14
:10404000F3F54FF46163B5FBF0F100FB115509FB8B
:1040500005F54FF03C0CB1FBF3F203FB1211B5FB7D
:10406000F0FEB1FBFCF300FB1E550CFB131109FB2A
:1040700005F50091B5FBF0F56649CDE901E520466F
:10408000FFF756FFA2E706F00803EBB1624B634966
:1040900053F82A202046FFF74BFF0546B8F1000FE2
:1040A00005D0594942462046FFF742FF0544BBF17F
:1040B000000FABD05A495A462046FFF739FF054456
:1040C000A4E74FF0000BE1E706F00805E6E74546F8
:1040D0009CE7BBF1010F069B06D1002B64D1049B2A
:1040E000002B7BD000250CE0002BF8D04D485CE085
:1040F0004D48069B4D4922460BF0AFFC049B002B1C
:1041000068D0DFF82C81DFF82C91049F3146102F06
:10411000204628BF1027FFF71DFF4FF0000B5D451D
:1041200045DC059B49461A782046FFF701FF4FF012
:10413000010B1BF0070F03D141462046FFF7F8FEA5
:104140005F453BD9059B494613F80B202046FFF7F6
:10415000EFFE0BF1010BBBF1100FEAD136492046FF
:104160004FF0000BFFF7E4FE5A46059B9A5CA2F164
:1041700020015F2928BF2E2230492046FFF7D8FEB4
:104180000BF1010BBBF1100F1DD01BF0070F03D17A
:1041900041462046FFF7CCFE5F455A46E5D84146EA
:1041A0002046FFF7C5FEEBE71F485546A1E741460D
:1041B0002046FFF7BDFE0BF1010BB0E7204920467A
:1041C000FFF7B6FEC5E7059B3B440593049BDB1B4D
:1041D00004939AD1BAF1000F7FF41FAF204609B0C3
:1041E000BDE8F04F0CF0A0B9064A05492046FFF79C
:1041F0009FFE15E7B92E0100BD2E0100B02201007F
:10420000783A0100B42E0100E22E01006816002069
:1042100064160020C62E0100C4220100E62E010013
:10422000EC2E0100790501004305010049630000FF
:10423000F92E0100F12E0100FB2E0100FD2E0100E0
:10424000F72E010073B542F20F738B4228BF0B4665
:1042500005680F4A0446052168460AF0A5FE636812
:104260000C495B6806460B2228460CF04FF9636840
:104270003246694628465B680CF048F9636806498F
:104280005B681B2228460CF041F902B070BD00BFEC
:104290003F2701001C2F0100002F0100074A0021C9
:1042A0000123904206D8064A01B901231360054B49
:1042B0001860704740085B000121F2E740420F00A0
:1042C00064160020681600202DE9F3414368124867
:1042D0001C680DF1070165680CF0B1F930B99DF863
:1042E0000710012902D10C4800F030F801232B758A
:1042F0002568D5E90136D3E900482F6824B96B68F1
:104300001C6002B0BDE8F081214630464246B84705
:10431000241A0644F2E700BFF41D0100F8B5074F68
:104320000D4604464618B44201D12846F8BD14F89B
:10433000011BBB6801485B689847F4E7F41D010066
:10434000014B0360002070470C23010070B54469E5
:104350000D46002C3FD0244A2379565CB3423DD011
:10436000224A525C9A423CD1A3689847002814DA4A
:10437000022D10D0032D0FD110F1860F0BD0BFF3FB
:104380005B8F54E8003F43F0020344E80032002A08
:10439000F7D1BFF35B8F267170BD022D267101D05E
:1043A0000020F9E7BFF35B8F54E8003F23F00403DC
:1043B00044E80032002AF7D1BFF35B8FBFF35B8F75
:1043C00054E8003F23F0020344E80032002AF7D10A
:1043D000BFF35B8FE4E76FF05700DDE76FF0770026
:1043E000DAE76FF08500D7E77B2F0100772F010018
:1043F000F0B40C4B0C4E5F6A0C4BB34203D36FF01E
:104400008500F0BC70475D68BD4209D31C693CB1B2
:1044100095F802C00579AC4502D12346F0BC184797
:104420002433EAE79016002034080020EC0700202F
:104430002DE9F047134CDFF85080DFF85090054627
:104440000E461746444503D36FF08500BDE8F0875C
:104450006268D9F824309A4212D3A36983B1907864
:104460002979884205D13A4631462846BDE8F047C9
:1044700018475279012A03D13A46314628469847CF
:104480002434DFE7EC0700203408002090160020D9
:104490002DE9F0410B4CDFF8308005460E461746FB
:1044A000444502D36FF0850009E063690BB92434F9
:1044B000F6E73A463146284698470028F7D1BDE846
:1044C000F08100BFEC0700203408002010B504463E
:1044D0000CF042FA10F1780F00D050B9054A20468E
:1044E0000CF0DAF8D2F8C43023EA0003C2F8C43082
:1044F000002010BD90160020024B00221A605A6066
:10450000704700BF4B17002070B50B4B0B4CA342FC
:1045100001D3002070BD196A1E7F00220439D5B274
:10452000AE4201D82433F2E7013211F8325085420D
:10453000F5D10120EEE700BFEC0700203408002091
:1045400008B509480378C3F341130A3350F8233000
:104550003BB100F1080200F110019847C043C00FC1
:1045600008BD1846FCE700BF9016002004282DE97E
:10457000F14FDFF8989004460F4616D001282DD150
:10458000DFF88C8098F8B93043B300F0D7FD214DA7
:104590004D4520D2D5F820B04FF0000A2B7F5FFAAE
:1045A0008AF6B34204D82435F2E7FFF7A5FFE7E720
:1045B0000BEBC6060AF1010A30790CF0CDF9024680
:1045C00030790CF069F8D8F8C430002A23EA0003E7
:1045D000C8F8C430E2DA002388F8B9300D4D4D45F3
:1045E00008D30B4B1B6A6BB13946204601B0BDE8BE
:1045F000F04F1847EB681BB13A46214628469847CA
:104600002435ECE701B0BDE8F08F00BF340800208E
:1046100090160020EC07002073B5C4B263060D4667
:104620008DF8074007D02046FFF76EFF78B10D4B9D
:1046300093F8BA0058B10B4E204655B102F004FD74
:10464000F3691BB10DF1070108209847012002B062
:1046500070BD02F02BFDF369002BF7D00DF10701BF
:104660000920F2E79016002073B586788DF8006077
:10467000037942791C4C43EA0223ADF80230C37837
:10468000304603F003038DF804300CF005F8D4F83D
:10469000C430184205460BD0304600F031FD30469C
:1046A000FFF714FF0DF070F810B9962009F0F6FE30
:1046B000684602F09BFC10F1780F03D010B1002087
:1046C00002B070BD9DF8000002F02CFD10F1780FD3
:1046D00001D00028F3D1D4F8C43001202B4384F852
:1046E000B900C4F8C430EBE7901600202DE9F0477C
:1046F000924DAB6904460E461746C3B9207800F0C8
:104700001F00012876D0022800F0DC8000BB94F95D
:1047100000103A68637800292EDA062B0CD0082B9B
:1047200025D0ABB9537001231370022303E19847DE
:104730000028E3D100200DE06388190A0A1F012A2E
:104740008C4605D9072903D8DAB26B6A1C781CB9E4
:104750006FF01500BDE8F0875D78654503D18242B2
:1047600000F0E48001302344F0E71B78E3E095F8A3
:10477000BA3013700123DEE0052B11D0092BE7D1ED
:1047800063886E6A002B32D1FFF7B6FE638885F826
:10479000BA30EB69002BCDD0694903209847C9E7AF
:1047A000A07802F0E5FB0028C4D0D1E77378042B91
:1047B00010D0052B11D0022B04D177796388BB422E
:1047C00008BF012033781E443378002BEED1002837
:1047D000BED0D9E796F80380F4E76388BB42F1D1F5
:1047E000B8F1000FEED13046FFF73EFFEAE7FF27B2
:1047F000B846E9E795F8BA30D7F800C0002BA7D043
:104800006F6AA28894F804E03B46187800289FD08D
:104810005978022904D193F80480F04500F292807F
:104820000344F2E78CF800308CF80130316081E706
:104830001F4493E00B2B8BD100264FF0FF08C1469D
:10484000B24606E07B78042B0FD0052B21D03B78B5
:104850001F443B78002BF5D1EB6913B1514607207B
:104860009847002E7FF466AF72E797F80280A3881E
:1048700097F803909845EAD163889945E7D1B8F154
:10488000070F1CD805EB0803BA4683F8BB90012636
:10489000DDE7A3884345DAD1A3784B450AD0BE783B
:1048A000304600F02DFC3046FFF710FEB0FA80F6DF
:1048B0007609CCE73846FFF7D7FE0646C7E7BA4683
:1048C0000026C4E794F900206378002A18DA002B48
:1048D0007FF43EAF24793F6863060AD02046FFF795
:1048E00013FE00283FF434AF95F8BA30002B3FF4A4
:1048F0002FAF3946204602F0F9FB00237B7014E706
:10490000012B08D0032B7FF423AF6388002B7FF4A7
:104910001FAF012103E0618800297FF419AFA0884F
:10492000FFF77AFE00287FF405AF11E702293B600C
:104930007FF41BAF5B883360FCE600BF901600205D
:104940004A17002094F9000063780028BFF672AF80
:10495000002B3FF467AF0A2B7FF4FAAE3B78002BB5
:104960003FF4F6AE797804297FF462AFB9788A42D1
:104970007FF45EAF072A96BF5219002392F8BB302E
:104980008CF80030F6E600BF13B5164C237DF3B962
:10499000E268A168019201AB80200BF08BFE019AC6
:1049A000A3681344A360E3689B1AE3606BB962B128
:1049B0002369E2889A4208DD94F8C82093FBF2F15B
:1049C00002FB11330BB90123237502B010BD002384
:1049D0001A4619468020237502B0BDE8104002F047
:1049E000CBBB00BF9016002030B585B00023024637
:1049F0000D460193002858D1002935D108220B46D5
:104A00000DEB02010BF0C1FF002804DA802002F058
:104A10001BFB05B030BD2A4C029A2260039A6260EB
:104A200004F13802A2609DF90820BDF80E3025750A
:104A3000002AC4E903550ADB802B04D9802002F048
:104A400003FB0020E3E713B1C4E90333E1E7FFF719
:104A500077FD0028DAD0E28823699A42D4BFE26069
:104A6000E360FFF791FFD4E7154CD4E90215002D60
:104A700001AB04DC0BF089FF0028CADAC6E72A463E
:104A80000BF083FF0028D9DB019AA3681344A360CD
:104A9000E3689B1AE360002BBBD104F13803A360E9
:104AA000FFF74EFD0028DCD1B0E78028B1D1044BE0
:104AB000DA68002AD5D11B7D002BD2D1A9E700BF2F
:104AC00090160020054B064A9A62064ADA62064AA8
:104AD0001A63064A58629A610020704790160020B7
:104AE000ED460000F1430000914400003144000015
:104AF0002DE9F3410446474D47484FF0FF334FF04F
:104B0000FF3208F01BFF95F8B830002B7BD16B6AA1
:104B100083B142482C62E8616E6A02F06FFC02F0D9
:104B2000F5F9041E10DA3C4808F080FF204602B078
:104B3000BDE8F08100F0BEF8FFF7C4FF6B6A002B00
:104B4000E7D14FF0FF34EEE700F01AFB041EEADB7A
:104B50007378012B5AD1F379002B57D00026684681
:104B600085F8C830ADF802308DF804608DF800602B
:104B700002F03CFA041ED6DB802768468DF80070F0
:104B800002F034FA041ECEDB2549304602F022FC46
:104B9000041EC8DB2249384602F01CFC041EC2DB9E
:104BA000204CDFF8848044451AD3002002F0BAFA82
:104BB000041EB8DBD5F8C430802043F00103C5F8EB
:104BC000C43002F0AFFA041EADDBD5F8C43043F4B4
:104BD0008033C5F8C430012385F8B8300024A2E73B
:104BE000276A0026227FF3B29A4201D82434DAE7FA
:104BF00007EBC30257F83310107902F0EBFB0136D4
:104C00000028EFD09DE76FF077048CE76FF0150474
:104C100089E700BF90160020C40600206D45000003
:104C2000E9490000EC0700203408002030B51F4B94
:104C30008BB005AA03F1100518685968144603C41F
:104C40000833AB422246F7D11B7823701022002193
:104C500001A80CF0CDFF1222002115480CF0C8FF6E
:104C6000102101A80BF0DAFF00281BDD0828B8BFCF
:104C70000820093801AB0E491A18002012F8013F2C
:104C80000AAC04EB131403F00F0328336B44013018
:104C900014F8144C13F8143C0C7008284B7001F1F4
:104CA0000201EBD102480BB030BD00BF7F2F0100E5
:104CB000FA2C00202DE9F04F724B93F800B087B02A
:104CC000BBF1000F03D0704807B0BDE8F08F6E4C09
:104CD00000264FF0011AB0463546B14623783BB95D
:104CE0006A4B02349C42F3D1664A01231370EAE70F
:104CF0006378052B1BD8DFE803F08E03C38E1D39C4
:104D0000402304A88DF810B0ADF812308DF814B01F
:104D100002F040F940B1082304A8ADF8123002F0C7
:104D200039F908B1ADF812B0BDF81230E37123784B
:104D30001C44D3E7E378002BF9D1A3786BB108F1D9
:104D400001085FFA88F8F2E76B689C4207D02435C7
:104D50004F4B9D42F8D30020B6E74E4DF8E7AB68C5
:104D6000002BECD0414620469847E8E7002DF2D0D2
:104D700000222B7F9A42EED2296AA07801EBC20171
:104D80000B79984201D00132F3E70127E07800F077
:104D900003008DF81400207994F805C040EA0C2037
:104DA000ADF8120094F902000028FBB228DA07F1EE
:104DB00010004FF0010C0CFA00F010EA0A0F26D197
:104DC00043F080008DF8100004A8CDE90213019291
:104DD00002F0E0F8DDE90121039BC0B99DF8102045
:104DE000A27012F0800F18BF10330A7118BFDBB227
:104DF0004FF0010214BF9A40BA404AEA020A96E70D
:104E00000120B84010EA0A0F01D11846DAE701374D
:104E1000102FBBD1B7E7032E1AD1FFF707FF0746C4
:104E200050B1FCF70CFF024630B11028A8BF102289
:104E30003946A01C0CF0B4FE23786FF00201E21892
:104E4000091B04EB5303D14213D50136F6B26EE7CA
:104E5000002EF1D1B9F1000F3FF47DAFA4EB0903AF
:104E600089F80230C3F3072389F8033089F80480F6
:104E7000EBE702F801BC13F8010902F8020DE2E7C2
:104E8000A14654E7F92C002018070020EA0700206B
:104E900034080020EC07002010B5094B00211A4609
:104EA0001C78844204D15C6814B102EB811010BDFF
:104EB0000131042903F14003F2D10020F7E700BFDC
:104EC0005C1700202DE9F34150F8283C10F82C6CB9
:104ED000103304460AD1036950F8202C980736D5C0
:104EE000D2B9590715D5002344F8283C54F8283C7A
:104EF00010330BD054E9077554F8148C0CF044FCB3
:104F000000284FD02E4821460CF022FC02B0BDE80C
:104F1000F08143F00403236154F8241C01AB3046B4
:104F20000BF0C8FB10B16FF01503DDE7019A54F8E0
:104F3000243C134444F8243C54F8203C9B1A44F885
:104F4000203C54F81C3C134444F81C3CCEE754F875
:104F5000241C01AB304602F099F90028E3D1019DF1
:104F600054F8243C2B4444F8243C54F8203C5B1B6C
:104F700044F8203C54F81C3C2B4444F81C3C002DC5
:104F8000B1D0304602F040FAB5FBF0F303FB105508
:104F9000002DA8D154F8203C002BA4D0304602F0BC
:104FA000CBF9A3E744F8180CA4F1100008F0C0FDF9
:104FB000002DABD0424639463046A847A6E700BF91
:104FC000181200204B1E012B73B506460D460FD854
:104FD000FFF762FF044668B9012D09D101AB012238
:104FE0000DF10301304602F051F9019B002BF5D180
:104FF00002B070BD0CF0C8FB04F12C0108B1012D0A
:1050000005D1084602B0BDE87040FFF75BBF03481A
:1050100002B0BDE870400CF09BBB00BF181200202E
:105020002DE9F74F06460191154698460BF08AFB8D
:10503000044600285BD1EFF3118A402383F31288E2
:10504000BFF36F8FDFF8ACB000220023584608F0A2
:10505000A3FD70B9DFF8A090A70109EB8414636881
:1050600013F1100F14D10193584608F061FD019B14
:1050700006E00134042C0BF1400BE5D16FF00B037B
:105080008AF31188BFF36F8F184603B0BDE8F08F25
:10509000019B2061C4E902350C9B63610D9BA361F8
:1050A00030466FF00F0309F80760C4F83C80636076
:1050B00002F0AAF958B1304602F0A6F9B5FBF0F3B8
:1050C00003FB10551DB1E36B43F00403E36318F0D9
:1050D000020F07D007F12C01084849440CF038FBB7
:1050E0000023CDE7304602F027F90346C8E76FF00A
:1050F0000F03C9E7781700205C1700201812002062
:1051000010B5EFF31184402383F31288BFF36F8F40
:10511000FFF7C2FE50B14368103307D16FF08B0325
:10512000436000F12C0104480CF012FB84F3118859
:10513000BFF36F8F10BD00BF18120020F8B50E4CE2
:1051400004254027EFF3118687F31288BFF36F8F92
:105150006368103307D16FF08B030848636004F174
:105160002C010CF0F5FA86F31188BFF36F8F013D27
:1051700004F14004E6D1F8BD5C17002018120020AD
:1051800070B50A4C0A4E0025314620460CF0C4FA90
:105190000122A4F11000114601350CF081FA042D12
:1051A00004F14004F0D1002070BD00BF881700203A
:1051B000C54E00000169012381F84B300B6833B103
:1051C00091F849301BB1024808310CF0C1BA704760
:1051D000181200200169012381F84A300B6833B1AD
:1051E00091F848301BB1024808310CF0B1BA704751
:1051F0001812002070B50569EFF31186402383F380
:105200001288BFF36F8FD5F890000BF051F8044669
:1052100086F31188BFF36F8F30B10448002200235A
:1052200005F1180108F052FE204670BD181200204A
:1052300070B5012382F8483013680D4614463BB11F
:1052400092F84A3023B10E4802F108010CF080FABE
:10525000D4F890309A681B699A4205D17DB904F15F
:10526000180140F6CD4204E004F11801002DF8D0F9
:105270000022BDE870400248002308F027BE70BD40
:105280001812002070B504460E46017915481546DF
:105290000BF034FA10B394F900206378002A16DB7F
:1052A000202B04D0222B0ED06FF085000AE02B6853
:1052B0001A6840F8102C9A8820F80C2C9B7900F87A
:1052C0000A3C002070BD638800F8093CF9E7212BF7
:1052D000EAD11038072328603360F2E76FF012003C
:1052E000F0E700BF5C18002008B5014603480BF04A
:1052F00013FA10B1012300F8073C08BD5C18002028
:105300000D4A03460021A0F848101068C3F8940025
:1053100090889279A3F8980083F89A2083F89C10DB
:1053200083F89B10A3F89E1083F8A010402203F18D
:105330004C000CF05DBC00BF28220100F0B5D0F895
:105340008C305B681B6A1F7D85B0044638460BF0C5
:10535000F9F90646F8B994F88630E3B1A06F4FF436
:10536000806203A90AF0C3FF0546A0B18306A4F139
:10537000180308BF00F1FF3584F830600193074B34
:10538000039900932A4602233846FFF749FEA06F8F
:1053900029460AF0CCFF05B0F0BD00BF3152000035
:1053A00010B504690023C4F8A8300C4BC4F8A4005D
:1053B000596804F1A80269B9C3E9002204F10800A0
:1053C00007490CF0A9F904F1180006490CF0D0F9CE
:1053D000002010BD0A605A60F0E700BF5C18002092
:1053E0006F0701003D53000073B504698DF8071085
:1053F000002384F848304025EFF3118685F31288A6
:10540000BFF36F8F0122D4F890000DF107010AF06D
:105410004FFF86F31188BFF36F8F01280AD00CF07D
:10542000B3F910B994F8A1306BB9094B1A780AB9DD
:1054300001221A702122002304F11801054808F006
:1054400045FD02B070BD002121200CF055FAD3E7D4
:105450000C2D00201812002037B514460A1E0546F0
:1054600020DDD4F88C0004F14C010AF021FF012367
:1054700084F8493023683BB194F84B3023B111488C
:1054800004F108010CF064F9D4F88C104B684A69F7
:105490009A1ACB699B1A3F2B04D8012384F8A030B9
:1054A00003B030BD94F89E30002BF9D0064B00932A
:1054B00001940123402204F14C012846FFF7B0FD7E
:1054C000EEE700BF1812002059540000F7B50D4652
:1054D00001461D480BF006F9044610B30646691E46
:1054E00056F8A4395F6805291BD8DFE801F01C1ABB
:1054F000031C222610F8061C99B9012300F8063C6B
:105500003B6A3246187BFFF7A7FF14F85C2C42B9C0
:105510003B6A187D0D4B0093019602231146FFF75D
:105520007FFD03B0F0BD304603B0BDE8F040FFF7AB
:10553000E7BE012304F8053CF3E710F8053C002B17
:10554000EFD00023F6E700BF5C18002031520000C6
:1055500037B5094D0949002400944FF0FF334FF44B
:105560008062284608F074FC054928460CF012F9C0
:10557000204603B030BD00BF181200204033002089
:10558000A32F010008B504480AF0BFFABDE808409F
:1055900002480AF0BABA00BFB22F0100E72F01009B
:1055A000014809F059BB00BF0C23010038B504467F
:1055B00018B90F4B0F485B6898476168B1F5683FB1
:1055C00010D0B1F5680F0DD00B4DA9420AD011F4DF
:1055D0006861206807D0014608480BF085FF00236A
:1055E0002360656038BD14220CF002FBF9E700BFB0
:1055F00054040020153001002C5F5CA9641D0020BC
:1056000008B520B34368B3F5683F10D101220368A1
:10561000BFF35B8F53E8001F002903D143E800204C
:105620000028F7D1BFF35B8F0DD1002008BD094AD8
:1056300093420AD000684FF0FF324FF0FF3308F07A
:105640007DF90028F1D00448F0E70448EEE76FF454
:10565000E040EBE72C5F5CA9E98FFFFFEA8FFFFFDB
:1056600008B5D8B14368B3F5683F10D1002203688C
:10567000BFF35B8F53E8001F012903D143E80020EB
:105680000028F7D1BFF35B8F0BD1002008BD074A7C
:10569000934208D0006808F0C9F9F6E76FF4E040DB
:1056A000F4E70348F2E70348F0E700BF2C5F5CA98A
:1056B000E98FFFFFEA8FFFFF10B5044618B91D4BB5
:1056C0001D485B6898476368B3F5683F2FD0B3F512
:1056D000680F2CD0194A934219D1236803BB18488C
:1056E0004FF0FF324FF0FF33214608F0F9F808B9C8
:1056F00023681BB90F4B13485B6898472068142236
:1057000000210CF075FA4FF46863636008E0B3F5AC
:10571000683F0DD83A2B03D040F6BA629342DED1EF
:1057200020680BF02BFF636843F03A03636010BD01
:10573000054AF3E754040020153001002C5F5CA9F2
:10574000641D00203B3001003A00003A08B50649CC
:105750000648402314220BF0B9FEBDE80840044976
:10576000044809F0EBBA00BF64180020641D002053
:1057700014230100282301002DE9F047064600AF5D
:105780000C46002936D0E9468AB0D1E90012A36858
:105790006D462148A8464FF0050AC5E90501C5E94F
:1057A000072348F810AF1D48424600234FF421510B
:1057B000FEF7DEFACD46D4E903126369AD46184818
:1057C000C5F810A0C5E90501C5E907231348002362
:1057D00042464FF42151FEF7CBFACD46E369114A18
:1057E0000E4801210AF07CFEA3690F4A0B480121F3
:1057F0000AF076FE012E07D1EFF305830B4A074826
:10580000103B31460AF06CFE2146304607F0B6FEEA
:10581000BD46BDE8F08700BF683001003C210100B3
:1058200097300100C6300100D5300100033101007E
:1058300030BFFFF7FDBF00BF2DE9F0410B4EDFF891
:10584000308006EB0807CC1B054632460949204646
:105850000CF0A6F9A01942460021083C0CF0C8F94A
:105860002C6707F10800BDE8F08100BF00000000D0
:10587000040000008C210100074A936893F90E1080
:10588000002907DB526993421FBF044A536843F063
:1058900080535360704700BF882A002000ED00E06D
:1058A00070B5294C06460D46284829490AF0E5FFFF
:1058B000A36AD9043CD5254826490AF0DEFF172003
:1058C000A36A1A0504D5214823490AF0D6FF1820F7
:1058D0001D4CA36A9B0512D51C4820490AF0CDFF38
:1058E000A36BA26A100409D51D4A184801210AF0C9
:1058F000F7FD1EB1A36A23F40043A3621920124CE2
:10590000A36A590504D5114816490AF0B6FF1A20B2
:10591000A36ADA050ED50D4813490AF0AEFF1B2025
:10592000094A936A43F47F43936200232B7070BD4E
:105930001620C5E7A36A9B04F2D504480B490AF078
:105940009CFF1C20ECE700BF00ED00E03C210100C3
:10595000163101002C3101003D31010050310100B0
:10596000693101007E31010099310100B13101003E
:1059700010B5204C204921480AF07FFFA36A990105
:1059800036D51E481E490AF078FF1E20A36ADA01A8
:1059900004D51A481B490AF070FF1F20154CA36A52
:1059A0001B0304D5154818490AF067FF2120A36A94
:1059B000590304D5114815490AF05FFF22200D4C08
:1059C000A36A9A0304D50D4811490AF056FF232013
:1059D000A36ADB0304D509480E490AF04EFF2420D0
:1059E000044A936A6FEA03436FEA1343936210BD5C
:1059F0001D20CBE700ED00E0E03101003C2101007B
:105A0000F83101000B320100253201004332010060
:105A100068320100823201002DE9F843364D80469C
:105A200089463648364917460AF027FFAB6ADE0634
:105A300027D5344931480AF020FF1124AB6A1D07ED
:105A400004D531492D480AF018FF12242A4DAB6ABB
:105A5000980718D52D4929480AF00FFF6E6BAB6ADD
:105A6000190646D52A4A2548334601210AF038FD51
:105A7000B9F1000F03D0AB6A23F08003AB621324AB
:105A800003E01024DAE76FF015061B4DAB6ADA0766
:105A900004D5204919480AF0F0FE1424AB6A9B068D
:105AA00004D51D4915480AF0E8FE1524124B9A6AE0
:105AB000D50602D49A6A90070AD55B68190507D5FE
:105AC0004146304600F074FA10B180F30988022490
:105AD000094B9A6A920642BF5A6A22F400525A62ED
:105AE0009A6A42F0FF029A6200233B702046BDE8AA
:105AF000F8836FF01506C2E700ED00E03C210100DD
:105B0000AD320100C33201003D310100F632010027
:105B10000E33010024330100B13101002DE9F041C1
:105B2000664B8AB0D3F8048000AF0446C8F308057A
:105B3000002686F31188BFF36F8F02F07F43B3F125
:105B40007F4F07D102F00C03082B12D15C495D484E
:105B50000AF093FE002634460023FB71EB1E092B4E
:105B600000F28A80DFE803F00A80837C88888888D6
:105B7000888610074CBF0C460126EDE75249514874
:105B80004E4D0AF07AFE0023FB71EB6A9A0705D5A9
:105B90004E494C480AF071FE002332E0EB6A002BBC
:105BA00001DA4B49F5E7EB6A5B00F5D54949454811
:105BB0000AF063FE6B69A26943F480736B61BFF303
:105BC0004F8FBFF36F8F6B6932F8022C23F4807311
:105BD0006B61BFF34F8FBFF36F8F4DF602739A4225
:105BE00008D0AB6ADBB273B3FA1D01212046FFF780
:105BF00013FF37E02368384A324801210AF070FC6D
:105C00002368FA79DAB907F1080504F1200C206855
:105C100061682A4603C2083464451546F7D17A6A9A
:105C2000002E45D0C2F3080121B96FEA52226FEA73
:105C300042227A6207F108011846FFF79DFD2837D6
:105C4000BD46BDE8F081AB6A13F47F4F04D0F91D67
:105C50000120FFF725FE05E0AB6AB3F5803F9BD33B
:105C6000FFF786FE0346CCE7FA1D0021BEE7F91DCB
:105C70000020EEE719498CE7194A1A4B18F4F87F0F
:105C8000E8468AB018BF13466A461749C2E90513A9
:105C90004FF400731384103D144BD56142F8103F4C
:105CA000084800234FF41151FEF762F8C54673E728
:105CB00022F4FF7222F00102BBE700BF00ED00E01A
:105CC000713301003C2101009C330100B33301001A
:105CD000D4330100E2330100013401001D3401001E
:105CE0005833010043330100413401000400000136
:105CF000044B5A6942F010025A615A6922F00802B4
:105D00005A61704700ED00E0EFF30880EFF309817E
:105D100001B57246FFF702FF01BD00BF002080F30E
:105D20001488BFF36F8F0F4880F3088805F04AFD91
:105D300000200D490860BFF34F8F00F02BF8402082
:105D400080F3118809484FF40461401880F30988F2
:105D5000EFF314800221084380F31488BFF36F8FA0
:105D600000F0EEF88049002094ED00E0C03B0020F8
:105D70000749D1F890200023C2F307221846934226
:105D800000DB7047C1F89830C1F8A0000133F6E796
:105D900000ED00E008B572B6002383F31388FFF727
:105DA000E7FF144B4FF0FF32C3F88020C3F8842084
:105DB000C3F88820C3F88C20C3F89020C3F894203F
:105DC000C3F89820C3F89C20C3F88021C3F884212D
:105DD000C3F88821C3F88C21C3F89021C3F894211B
:105DE000C3F89821C3F89C2162B6BFF34F8FBFF36D
:105DF0006F8F08BD00E100E0084B9B6883420BD128
:105E0000EFF3058343B1064B5A6842F080525A6063
:105E10005A6A22F400425A6208F08ABB882A00209B
:105E200000ED00E015498A684FF030001044EFF3B0
:105E3000098C80E8F01F402080F31288BFF36F8F39
:105E40000F4F4FF000664A698A603E604FF0700461
:105E5000141920680B4C2060506F0023536780F3A7
:105E6000118804B5104600F007F9BDE8044002F1BE
:105E7000300090E8F01F8CF309887047882A0020D2
:105E800004ED00E0801D00201EF0040F0CBFEFF3B6
:105E90000880EFF30980816911F8021C0229FFD004
:105EA00001B572460AF0DEFC01BD00BF40B2002819
:105EB00007DB044A4109012300F01F00834042F838
:105EC0002130704700E100E040B200280CDB4309BC
:105ED000064900F01F0020330122824041F82320B0
:105EE000BFF34F8FBFF36F8F704700BF00E100E03B
:105EF000054B420900F01F0053F82220012303FA4A
:105F000000F01040704700BF00E100E040B2D3074E
:105F100054BF023100210028ACBF00F16040074AA5
:105F20004FEA4113ACBF00F5614000F00F00DBB257
:105F3000B4BF135480F80033704700BF14ED00E085
:105F40000B4A08B50B4B22F07F029A60BFF34F8FCC
:105F5000BFF36F8FD3F8882022F47002C3F8882033
:105F600007F0F8FB08F004FC00F05CF807F036FCE2
:105F70000010000000ED00E042F8203C009B42F8D9
:105F80001C3C0A49019B42F8183C029B42F8143C15
:105F900021F001014FF0807342F8043C42F8081CE4
:105FA0000023203A02654367704700BFD9350000DF
:105FB000094A0346906870B113F1160F006E05D0C0
:105FC000A0F140029A4205D8834203D2814228BF01
:105FD0000020704700207047882A002008B5154629
:105FE000094A0A4B9060026F1A600E4600F044F8AE
:105FF0002C4686F309880020054B9847204600214F
:1060000000220023034C2047882A0020801D002006
:106010008B080100D9350000014B10221A6170472E
:1060200000ED00E0044800234021C2180133302B6A
:1060300082F80013F9D1704700E100E008B5EFF3F2
:106040000583064A103B02EBC30152F8330049684E
:106050008847BDE80840FFF70FBC00BF9C1E010049
:10606000024B034A0348012100F08AB800000420D3
:106070000000002038230100026E054B403A1A60F0
:10608000044A4021C3E901121846012100F082B8F8
:10609000841D002000000B1508B503461048D0F8F9
:1060A0009020C2F30722013A934207D90D480E4AC5
:1060B00001210AF015FA6FF0150008BDC0F89830FC
:1060C0000A6822F01F021A4342F01002C0F89C2016
:1060D0008A6842F00102C0F8A0201846EDE700BF30
:1060E00000ED00E02C21010058340100F0B50E460F
:1060F00085B01F4604460025B5420DDA606810B32E
:1061000097B1431E18420AD0104A11482B4601216C
:106110000AF0E6F96FF01502104605B0F0BD1F2831
:10612000F2D921680B42EFD1236801930AF0D0FB2A
:10613000A36801A90343D0B20393FFF7ADFF10F1A9
:10614000160FE7D0421C01350C34D5E77E34010030
:106150002C210100044B0522C3F89420BFF34F8F7C
:10616000BFF36F8F704700BF00ED00E0BFF35F8F9C
:10617000024B0022C3F89420704700BF00ED00E0FE
:1061800010B5034C01232278FFF7B0FF207010BD3B
:106190000D2D002008B50B4A00231278FFF7A6FF4B
:1061A00010F1160F07D0084A0021D2F89030C3F33F
:1061B0000723984200DB08BDC2F89800C2F8A0107F
:1061C0000130F2E70D2D002000ED00E02DE9F04355
:1061D00057485849D0F890300D68C3F307239D42C3
:1061E00085B000F2A180FFF7C1FF49680022954207
:1061F00001F10C011AD1504C504F25706846FEF742
:106200009FF8DFF83C81DFF83C9106460025AE425E
:106210001FD1237846490020D1F89020C2F30722ED
:1062200093427BDBFFF796FF00204CE0C0F89820FC
:1062300051F80C3C23F01F03134343F01003C0F844
:106240009C3051F8043C43F00103C0F8A030013207
:10625000CDE7009800EB05114FEA051CCB683B40E9
:10626000B3F5000F44D00AD8B3F5001F2ED0B3F514
:10627000800F34D0B3F5801F10D00135C7E7B3F1DC
:10628000807F3ED0B3F1007FF7D150F80C308868A2
:106290004A680AF01DFB40F4802009E050F80C30F9
:1062A00088684A680AF014FB40F0885040F43020B7
:1062B000039001A92078CDE90123FFF7EDFE002826
:1062C00028DA6FF0150005B0BDE8F08350F80C3007
:1062D00088684A680AF0FCFA40EA0800E8E750F8E3
:1062E0000C3088684A680AF0F3FA40EA0900DFE7F0
:1062F00050F80C3088684A680AF0EAFA40F0827078
:10630000D6E750F80C3088684A680AF0E1FA40F0A5
:106310008870CDE7237801332370AEE7C1F8983059
:10632000C1F8A000013377E74FF0FF30CBE700BFA3
:1063300000ED00E0442301000D2D00200000F0FFDF
:106340000000081100000202F0B587B007460E46B3
:1063500014460021102268461D460BF049FC02231A
:106360008DF802302A46054B019321466846CDE957
:10637000047608F045FE07B0F0BD00BFF10801004B
:1063800008B5024B1B689847002008BD901D0020EF
:10639000034B044A1860937843F0020393707047EC
:1063A000901D00205002002008B50649064821F043
:1063B0000701C1F1005202F5802209F0F6FA00202F
:1063C00008BD00BF87580020941D00200E4A0123FD
:1063D000C2F840354FF080424FF08051C2F8783516
:1063E000D1F83001082808D1D1F83411052904D892
:1063F0000648415C09B1C2F838364FF080430122AB
:10640000C3F880250020704700E00140B03401004F
:1064100020B1034B800143F001031847704700BFD0
:10642000302201004FF08043D3F84036DB072ED5F1
:106430004FF01023D3F8043303F00703072B26D1C2
:10644000144A0123C2F80435D2F80034002BFBD0E3
:106450004FF01021D1F8043323F0070343F0040375
:10646000C1F804330023C2F804350A4AD2F80034D4
:10647000002BFBD0BFF34F8F0749084BCA6802F4CB
:10648000E0621343CB60BFF34F8F00BFFDE70020F6
:10649000704700BF00E0014000ED00E00400FA0595
:1064A0000346024A024802210AF01AB8BA3401002F
:1064B0006C21010070B504460D4601460A480AF0F9
:1064C0002BF920B92046BDE87040FFF7E9BF022D47
:1064D00008D150F8083C2BB11B691BB1BDE87040D6
:1064E0000068184770BD00BFB81D002080B500AF20
:1064F00088B06A46064BC2E90530032342F8103FD4
:10650000044800234FF4C451FDF732FCBD4680BD62
:10651000E03401006C21010070B506460D460146CD
:1065200025480AF0DFF8044620B93046BDE870403F
:10653000FFF7DCBF0A2D3DD8DFE805F0060D181A7D
:1065400023252C3C3C3C22001C4A1D48BDE87040E1
:1065500003210AF0DCB91B4A194803210AF0D7F9D4
:10656000002304F8043C04F8033C09E0164AECE775
:10657000164A134803210AF0CAF9012304F8043C1F
:1065800070BD134AE8E7134A0D4803210AF0BFF92A
:106590000123E8E7104A0A4803210AF0B8F914F881
:1065A000033C002BECD00D4A054803210AF0AFF95B
:1065B0000023D8E70A4AC8E7B81D002001350100CA
:1065C0006C2101000E350100243501003535010034
:1065D000473501005B3501006C3501007B3501005A
:1065E000883501002DE9F04104460F4601791E4827
:1065F00090460AF083F8064648B9A3881B481C4A0F
:10660000022109F06DFF6FF01200BDE8F08194F9EE
:10661000003000686578002B13DA012D09D0AB1E1D
:10662000012B0BD9134A11482B46012109F058FFC1
:1066300004E056F8083C0BB11D686DB96FF0850099
:10664000E3E7092D02D0A5F10A03E9E756F8083C73
:10665000002BF3D05D68F0E743463A462146AC464E
:10666000BDE8F041604700BFB81D00206C2101006B
:1066700096350100BD3501002DE9F04190F900305B
:10668000002B04460D46174603DB6FF01500BDE8EE
:10669000F081038823F0E0039BB240F20162934251
:1066A000F3D190F80480468815484146360A0AF02E
:1066B00025F830B9134A14484346022109F010FF67
:1066C000E3E7212E04D0222E0FD06FF08500DEE705
:1066D0000368E1885B685B6813F8092F914294BFF7
:1066E00029602A603B600020D1E7E38850F80C2C39
:1066F0009A4294BF2A602B6050F8103CF2E700BF2A
:10670000B81D0020963501006C21010010B5046908
:10671000C4E90012A36000236361064B206159683D
:1067200004F1140211B9C3E9002210BD0A605A60D5
:10673000FBE700BFB81D0020020600F07F0312D562
:10674000082B05D1010700F00F0306D50E4870474E
:1067500010F0780F12D100F00F034C2000EB431023
:106760000A4B18447047082B05D1020700F00F03AD
:1067700006D50748704710F0780FF6D00020704714
:10678000044800EB431070470C1F0020C01D002080
:106790002C2000202C1F0020014902480AF0D8BFFD
:1067A000E81D0020B8120020014601480AF06DBF24
:1067B0000807002002480022002307F087B900BF25
:1067C0000807002013B5124800F0A8FF114B9842AB
:1067D0001AD1114805F064FE0024104805F0A6FE09
:1067E0000F49104800944FF0FF334FF4806207F0D8
:1067F0002FFB0D490B480AF0CDFF0C480C490AF05D
:106800008BFF204602B010BD6FF00400FAE700BF16
:10681000C16D00000000AD0B0F38010068230100BE
:1068200080370020B8120020DE350100E81D00206E
:10683000B169000010B50E49BFF35B8F002351E82A
:10684000002F012A03D141E800300028F7D1BFF31F
:106850005B8F0CD151F8044C1439204609F0BBFC75
:10686000783004D12046BDE8104009F090BC10BD3E
:10687000E01D002038B5002464F07F00C0B2FFF7AF
:106880005BFF01340AF04FF8082CF5D10E4D0024BF
:10689000E0B2FFF751FF036903B9056101340AF063
:1068A00042F8082C05F14005F2D108480AF03BF8FF
:1068B000074BD3F87C2212B9064AC3F87C2206485B
:1068C0000AF031F8002038BD502400200C1F0020B1
:1068D000C01D0020502000202C20002010B5054CA9
:1068E000FFF768FF20B1416820460AF0FDFDF7E799
:1068F00010BD00BF5806002007B500231448002231
:1069000001A906F0EDFFE8B1124A134801210AF08F
:106910001DF8FFF7E3FF0E480022002301A906F04F
:10692000DFFF30B10D4A0C4801210AF00FF80020BA
:106930000AE00198042340600374FFF735FFFFF776
:106940002BFFF4E70198406003B05DF804FB00BF43
:1069500058060020E93501007421010007360100C6
:106960000346024A0248012109F0BABD233601005C
:1069700074210100022810B511D80B4A145CFFF7EE
:10698000BBFF80B1002202740472FFF70DFF074BBA
:1069900093F824303BB1BDE81040FFF7FDBEBDE8E1
:1069A0001040FFF7DDBF10BD0C380100C01D0020F6
:1069B0002DE9F043A24CDFF88C9285B08046FFF7BA
:1069C000F9FE074610B905B0BDE8F08394F825201C
:1069D0003B7C3AB9002B00F09A80796899480AF01C
:1069E00083FDECE7042B00F27581DFE813F09000E3
:1069F000050012013D015E0118F8043C33B9BB6883
:106A00005B7A914A9148012109F06AFD3B7BBD68A0
:106A1000032B37D8DFE803F0023D63686E698C4BC7
:106A2000002232607260D3F880143170D3F884147D
:106A30007170D3F88814D3F88C0441EA0021718076
:106A4000D3F89014D3F8940441EA0021B180D3F82C
:106A50009814D3F89C3441EA0323F3800823EB60B5
:106A6000306871687B4B03C311462B68687A98477E
:106A700096F90030002B08DBF38833B1A4F88C3290
:106A800001F09AF979684846A9E70023A4F88C3206
:106A9000F8E76B7F002BF5D02B7F002BF2D0002680
:106AA0004FF0FF326C486E774FF0FF332E7709F0CE
:106AB0004FFF6B6901936B68CDE9023601A9687AD3
:106AC00000F082FE654A9042034604D0644A5F4863
:106AD000012109F005FD604809F03CFFD2E72B6871
