:020000022000DC
:10600000003E00202D7202002DF0020019720200E5
:1060100019720200197202001972020000000000D9
:1060200000000000000000000000000009730200F2
:106030001972020000000000FD74020019720200D3
:1060400075750200FDAF02007575020075750200DE
:106050007575020075750200757502007575020090
:10606000757502007575020001AD020075750200BC
:106070007575020075750200757502007575020070
:106080007575020075750200757502007575020060
:106090009DB00200757502007575020075750200ED
:1060A0007575020075750200757502007575020040
:1060B0007575020075750200757502007575020030
:1060C0007575020075750200757502007575020020
:1060D0007575020075750200757502007575020010
:1060E0007575020075750200757502007575020000
:1060F00075750200757502007575020075750200F0
:10610000014B1B685B68184700000020014B1B68AF
:106110009B68184700000020014B1B681B6918474B
:1061200000000020014B1B685B691847000000203D
:10613000014B1B689B69184700000020014B1B683E
:10614000DB69184700000020014B1B681B6A1847D9
:1061500000000020014B1B689B6A184700000020CC
:1061600030B4044C9DF8085024680295E468A446B5
:1061700030BC6047000000209F630200A56302005E
:10618000A7630200CD630200AB630200D763020085
:10619000B1630200E1630200B7630200ED63020035
:1061A000C3630200C7630200B9630200BF63020059
:1061B000DD630200E763020030B50346114890F941
:1061C0001C209A4219DD90F924209A4217DA9A1A73
:1061D000846AA05C0C4A15569D420DD00E320029EF
:1061E00018BF01309442C0B206D129B1013BDBB2E5
:1061F000012B01D80130C0B230BD0D20FCE70020DA
:10620000FAE700BFE8060020C02D030008B5054BE3
:1062100093F91C30984203DAFFF7CEFF024B1B566E
:10622000184608BDE8060020C02D030008B5184B2D
:1062300093F82C20FAB9012283F82C20154A126811
:10624000A2F10800082803D813490141C90709D55C
:10625000911F092910D9013212D04FF4DF71742037
:1062600000F034F80D4A9A62D8221A6283F824208A
:1062700008229A611A7708BD094A0A41D207ECD46C
:10628000084A9A62D8221A6283F824200422F0E78E
:10629000E806002098080020DEFEFFFFFB2D03002B
:1062A000EEFCFFFFCE2D0300BFF34F8F0549064BD9
:1062B000CA6802F4E0621343CB60BFF34F8F00BFA4
:1062C000FDE700BF00ED00E00400FA051FB572B65F
:1062D000134B5D6895B9FFF7E7FF2346B2FBF6F273
:1062E0005C1C002AF9D104AEDCB256FA83F303F841
:1062F0000C2C0A2234B901A8A847ECE70246002377
:106300000A26EDE7631E04AEDCB256FA83F3B0FB57
:10631000F2F602FB1600303003F80C0C3046E9E7C9
:10632000600800204FF08052034BD2F83011196002
:10633000D2F834215A6070479808002053B94AB9FE
:10634000002908BF00281CBF4FF0FF314FF0FF307D
:1063500000F00CB8ADF1080C6DE904CE00F051F876
:10636000DDF804E0DDE9022304B07047704700BFA8
:1063700008B5FFF7D7FFBDE80840FFF757BF801A01
:1063800000F3070038B540B20D4659B21446FFF786
:106390003DFF002328706B70204440B238BD0023BD
:1063A000036070477047002070474FF0FF30704720
:1063B0004FF0FF30704770474FF0FF3070470020BC
:1063C0007047002070470023037070479DF800302D
:1063D0000022FFF7D4BF4FF0FF3070470020704716
:1063E0004FF0FF3070474FF0FF307047704710F8A4
:1063F000012B11F8013B012A28BF9A42F7D0D01A8D
:1064000070472DE9F0478C468E46089E1546044697
:106410001946002B40F0D080724547D9B2FA82F776
:106420004FB1C7F120030EFA07FC20FA03F3BD4079
:1064300043EA0C0CBC404FEA154EA8B2BCFBFEF878
:10644000230C0EFB18CC08FB00F943EA0C439945DA
:1064500028D9EB1808F1FF3204D2994502D9A8F1E6
:1064600002022B44A3EB0903A4B2B3FBFEFC0EFB18
:106470001C330CFB00F044EA0344A04214D92C194D
:106480000CF1FF3304D2A04202D9ACF102032C4438
:10649000241A43EA02401EB1FC40002334607360BA
:1064A000BDE8F0874246DDE76346F1E7002A79D090
:1064B000B2FA82F3002B3FD01946C1F1200302FA51
:1064C00001F52EFA03F20EFA01FE20FA03F343EA75
:1064D0000E034FEA154E00FA01F4B2FBFEFCAFB218
:1064E0000EFB1C201A0C0CFB07F842EA00429045F8
:1064F0005AD9AA180CF1FF3004D2904502D9ACF158
:1065000002002A44A2EB08029BB2B2FBFEFC0EFB87
:106510001C220CFB07F743EA02439F4246D9EB18C3
:106520000CF1FF3204D29F4202D9ACF102022B449B
:10653000DB1B42EA004202E0AEEB020301224FEA1B
:10654000154EAFB2B3FBFEFC200C0EFB1C330CFB54
:1065500007F840EA034398452AD9EB180CF1FF30BD
:1065600004D2984502D9ACF102002B44A3EB0803F6
:10657000A4B2B3FBFEFC0EFB1C330CFB07F744EA92
:106580000344A74216D92C190CF1FF3304D2A742B9
:1065900002D9ACF102032C44E41B43EA00400F464D
:1065A000114678E71F2188E76046ABE76246BFE700
:1065B0006046DBE76346EFE7734506D916B900216D
:1065C00008466DE7C6E9000EF9E7B3FA83F787B925
:1065D000734501D3824207D8841A6EEB030301206E
:1065E0009C461EB900215BE73846FAE7C6E9004C35
:1065F000F8E7C7F1200CBB4022FA0CF51D4320FA46
:106600000CF12EFA0CF30EFA07FE41EA0E014FEAE6
:10661000154900FA07F4B3FBF9F81FFA85FE09FBE8
:1066200018300B0C08FB0EFA43EA00439A4502FAB5
:1066300007F240D9EB1808F1FF3004D29A4502D98D
:10664000A8F102002B44A3EB0A0389B2B3FBF9F8CB
:1066500009FB183308FB0EFE41EA03418E452CD995
:10666000691808F1FF3304D28E4502D9A8F102035C
:10667000294443EA0040A0FB0298A1EB0E014145EA
:10668000CE46434602D306D14C4504D2B9EB020EA6
:1066900068EB05030138002EA4D0B4EB0E0261EBC9
:1066A000030101FA0CFC22FA07F34CEA0303F94058
:1066B000C6E9003196E74046C5E74346D9E7000002
:1066C0002DE9F0413E4B3F4D9E688EB0EFF31182B5
:1066D000402383F31288BFF36F8F2868696808AB83
:1066E00003C3A868186082F31188BFF36F8F0C2270
:1066F00008AB0BACCDE9044200930192012304AA3C
:10670000CDE90623039300230B93CDF808D0C4E909
:1067100001332D4937682A4802AA06ABB847021E42
:1067200007DA2A4808F00CF9002121200BF085FF38
:10673000CCE70C2A03D0254808F002F9C6E79DF8FB
:106740002C30A52BF7D19DF82D30032BF3D1204F02
:106750003B7833B11F4920460CF01FF908B91E4899
:10676000EAE79DF82E30032B17D19DF83080B8F161
:10677000010F12D103CC174B87F8008018602068F6
:1067800098601648596008F0DBF84146144808F054
:10679000CCF8144806F0FAFE98E7134800220023CC
:1067A00021460BF093FD08B11048C5E703CC094B17
:1067B0001860206898605960012308483B70BBE767
:1067C000442B0300E8040020482E0300D40D0020D1
:1067D0002818002029180020D00D0020D80D0020F6
:1067E000B80D002020060020A0050020CC0D0020C0
:1067F0007FB50378012B19D0022B08D1214C224EF2
:10680000651D204805F03CF9B0B104B070BD002B07
:10681000FBD11E48012108F088F81D4808F090F8C7
:106820001C4804B0BDE8704006F0B0BE1748002117
:1068300008F07BF81848F1E723780C2BE1D12868A1
:10684000696801AB03C3A868186063795A2BD8D173
:10685000A379032BD5D1EFF31182402383F3128860
:10686000BFF36F8F40F25A33ADF8043001AB03CB66
:10687000306018687160B06082F31188BFF36F8F69
:10688000BFE700BF35180020E8040020DC0D002021
:10689000C80D002010060020C40D002030B585B0C2
:1068A00025484FF0FF324FF0FF3306F0A3FE4FF0C4
:1068B000FF324FF0FF3301A92048214D06F00EFDB5
:1068C0002048012108F031F800241F4806F0B8FEE6
:1068D00000211B4808F029F805F01CF91B4B0C227D
:1068E0001A7001AA03CAC3F805001068C3F80D00A6
:1068F00018465C70DC70C3F8091005F017F860B931
:1069000011484FF4F672002306F074FE014640B1C0
:106910000F4808F015F805F0FDF832200BF0BFFB2A
:10692000D3E7BFF35B8F2B68BFF35B8F002BF4D0F3
:10693000044807F0FAFFBAE700060020A00500208F
:10694000DC0D0020BC0D0020100600205A1800208D
:10695000C00D0020324A38B5012313801372314B29
:10696000D3600C23537440F2011308245382104661
:106970002D4B9472536004F0CFFE00284FD12B486A
:1069800005F0FAF800284AD1294805F00FF9002847
:1069900045D12848214605F021F900283FD15A2049
:1069A00005F042F900283AD123480BF094FBA0B33C
:1069B0002248234C06F0EAFD4FF0FF324FF0FF3340
:1069C000204806F017FEBFF35B8F2368BFF35B8F91
:1069D000002BF1D0422000210BF02FFE1A4D1B4C52
:1069E0002B6AABB9BFF35B8F2368BFF35B8F7BB9B7
:1069F00004F074FE4FF0A042154BD2F858170B402C
:106A000043F4403343F00C03C2F8583708F09DF9C3
:106A1000002121200BF011FEE2E76FF0120038BDDB
:106A200038000020C2010600F16702006A3103004D
:106A3000663103005E310300442B03000006002092
:106A4000B80D002020060020A0050020BC0D00206D
:106A5000F0F8FCFF80B505460E461746984607F04D
:106A6000E9FA034600F098FDDFF81890044649F86B
:106A70000030424630463946A84754F8090000F035
:106A800027FD00BF080000002DE9F047058B0446F4
:106A9000280717460CD501290CBF45F0100545F015
:106AA0002005258387F31188BFF36F8FBDE8F0873A
:106AB000022905F0070540F09480204608F06DF9A2
:106AC000052864D801A353F820F000BFA56A02008E
:106AD000E36B02008F6B0200516B02006B6B0200D4
:106AE0007D6B020001F007035A1F012A1FD8002204
:106AF00021F00701062BD4F8008089B2C4E90022F6
:106B000009D1434603E0628B013262831B68002B8C
:106B1000F9D141F002012183204608F03EF94FF0FF
:106B2000000900286DD041F02001218369E0042B89
:106B30000AD121F0070189B22183204608F02DF9FE
:106B400010B141F0200121834FF00008C14658E008
:106B50002369D3F80090238B23F0070343F0060347
:106B600023834FF0000846464BE02369D3F8049096
:106B7000238B23F0070343F00403F1E72369D3F8E1
:106B80000890238B23F0070343F00503E8E74FF059
:106B90000008C146E7E7012243F00803238387F397
:106BA0001188BFF36F8F002A3BD1B8F1000F4AD193
:106BB000B9F1000F02D02D492046C847EFF31187E5
:106BC000402383F31288BFF36F8F238B23F00803D6
:106BD0009BB22383D9063FD523F01002228303F012
:106BE00007056669218B002EBFF67CAF0023D4F821
:106BF000008021F00701C4E9003341F00101218345
:106C00009946238B03F0070AAA4502D0A268002AFE
:106C1000C1D1B8F1000F02D1B9F1000FDAD00022D2
:106C2000BAE7A1680029C0D00D680029BDD04F681F
:106C3000334652462046B8471DB12B6829461D46AB
:106C4000F3E72B46FAE74146334652462046D8F84A
:106C5000008008F0CEF8A8E79A067FF523AF23F06E
:106C60002002228303F0070527E700BF1FEE020082
:106C7000014B036000207047642E030007B51B49D9
:106C80001B4808F06EFB70BB1A49194808F069FBF5
:106C900048BB1949164808F064FB20BB1749144843
:106CA00008F05FFBF8B90146154A114808F040FEAC
:106CB000C8B9024613490E48012308F013FF90B9E2
:106CC00001230093014602230948EF2208F053FAFA
:106CD00048B9074808F078FA28B9054803B05DF8C4
:106CE00004EB08F0A1BA03B05DF804FBC00000207B
:106CF00068060020A80000209000002078000020F6
:106D00004C00002092310300014807F0ADBC00BFE9
:106D1000642E030038B5044618B90F4B0F485B6862
:106D200098476168B1F5683F10D0B1F5680F0DD094
:106D30000B4DA9420AD011F46861206807D00146C2
:106D400008480BF073FA00232360656038BD1422F5
:106D50000BF01BFEF9E700BF68040020AB31030015
:106D60002C5F5CA9E012002008B520B34368B3F59E
:106D7000683F10D101220368BFF35B8F53E8001F07
:106D8000002903D143E800200028F7D1BFF35B8F2F
:106D90000DD1002008BD094A93420AD000684FF087
:106DA000FF324FF0FF3306F0FDFA0028F1D004481F
:106DB000F0E70448EEE76FF4E040EBE72C5F5CA9F6
:106DC000E98FFFFFEA8FFFFF08B5D8B14368B3F53D
:106DD000683F10D100220368BFF35B8F53E8001FA8
:106DE000012903D143E800200028F7D1BFF35B8FCE
:106DF0000BD1002008BD074A934208D0006806F076
:106E000043FBF6E76FF4E040F4E70348F2E703489A
:106E1000F0E700BF2C5F5CA9E98FFFFFEA8FFFFF5F
:106E200010B5044618B91D4B1D485B689847636848
:106E3000B3F5683F2FD0B3F5680F2CD0194A9342B1
:106E400019D1236803BB18484FF0FF324FF0FF33CE
:106E5000214606F0AFF908B923681BB90F4B134858
:106E60005B6898472068142200210BF08EFD4FF4D8
:106E70006863636008E0B3F5680F0DD83A2B03D060
:106E800040F6BA629342DED120680BF02EFA6368B6
:106E900043F03A03636010BD054AF3E7680400203D
:106EA000AB3103002C5F5CA9E0120020D13103005C
:106EB0003A00003A08B506490648402314220BF070
:106EC000A8F9BDE808400449044807F03FBC00BFEA
:106ED000E00D0020E01200206C2E0300802E030045
:106EE00008B50348034A0021121A08F091F808BDBA
:106EF000E8060020341B00200748084A084908B566
:106F0000121A08F087F80748074A0849BDE8084000
:106F1000121A08F07FB800BF00000020E40600202D
:106F20004C33030000000020000000204C3303001D
:106F300030BFFFF7FDBF00BF2DE9F0410B4EDFF87A
:106F4000308006EB0807CC1B05463246094920462F
:106F50000BF00DFDA01942460021083C0BF015FD79
:106F6000AC6707F10800BDE8F08100BF0000000039
:106F700008000000B82D030070B5264B15469A6A2C
:106F800012F0100F9A6A14BF1124102412F0080F87
:106F90009A6A18BF1224920706460AD5586B9A6A55
:106FA000140634D519B19A6A22F080029A62132429
:106FB00001E06FF01500174B9A6A12F0010F9A6A00
:106FC00018BF142412F0200F9A6A18BF1524D20695
:106FD00002D49B6A9B070AD50E4B5B68190506D540
:106FE000314600F02BFA10B180F309880224094BD6
:106FF0009A6A920642BF5A6A22F400525A629A6A08
:1070000042F0FF029A6200232B70204670BD6FF0A1
:107010001500CCE700ED00E0134B9A6A12F0007FF8
:107020009A6A14BF1E201D2012F0807F9A6A18BF32
:107030001F2012F4002F9A6A18BF212012F4802F0B
:107040009A6A18BF222012F4003F9A6A18BF2320C0
:1070500012F4803F9A6A6FEA02426FEA12429A6221
:1070600018BF2420704700BF00ED00E010B5184B9A
:107070000246986A9C6A10F4805F14BF172016209D
:1070800014F4006F9C6A18BF1820A40508D5986AEC
:10709000000404D51AB19A6A22F400429A621920B7
:1070A0000B4B9A6A12F4806F9A6A18BF1A20D205A5
:1070B0000CD49B6A13F4005F18BF1C20044A936A27
:1070C00043F47F43936200230B7010BD1B20F5E750
:1070D00000ED00E0F0B5494B5B688BB00446C3F3AC
:1070E0000803002585F31188BFF36F8F02F07F40FE
:1070F000B0F17F4F11D102F00C0008280DD010071D
:107100004CBF0C4601250022033B8DF80720032BC2
:1071100005D8DFE803F024686C652C46F3E700230C
:107120009DF80720CAB902AE04F120072068616803
:10713000324603C20834BC421646F7D1099A002DE4
:1071400059D0C2F3080121B96FEA52226FEA4222F4
:10715000099202A9184607F05FFF0BB0F0BD274B5C
:10716000DA6A9107DBD4DA6A002AD8DBDA6A5200DD
:10717000D5D55A69A16942F480725A61BFF34F8F25
:10718000BFF36F8F31F8022C596921F48071596176
:10719000BFF34F8FBFF36F8F02F47F43B3F55F4FA1
:1071A00004D1D2B2022A01D12368B9E7134B9A6AFB
:1071B000D2B23AB10DF1070201212046FFF7DCFE01
:1071C0000346ADE79A6A12F47F4F05D00DF107012F
:1071D0000120FFF74BFFF3E79B6AB3F5803F9ED397
:1071E000FFF71AFFECE70DF107020021E5E70DF1CB
:1071F00007010020EDE76FF30802A9E700ED00E0CA
:10720000044B5A6942F010025A615A6922F008028E
:107210005A61704700ED00E0EFF30880EFF3098159
:1072200001B57246FFF756FF01BD00BF002080F395
:107230001488BFF36F8F0F4880F3088805F004F8B7
:1072400000200D490860BFF34F8F00F02BF840205D
:1072500080F3118809484FF40461401880F30988CD
:10726000EFF314800221084380F31488BFF36F8F7B
:1072700000F0B4F8003E002094ED00E04030002023
:107280000749D1F890200023C2F307221846934201
:1072900000DB7047C1F89830C1F8A0000133F6E771
:1072A00000ED00E008B572B6002383F31388FFF702
:1072B000E7FF144B4FF0FF32C3F88020C3F884205F
:1072C000C3F88820C3F88C20C3F89020C3F894201A
:1072D000C3F89820C3F89C20C3F88021C3F8842108
:1072E000C3F88821C3F88C21C3F89021C3F89421F6
:1072F000C3F89821C3F89C2162B6BFF34F8FBFF348
:107300006F8F08BD00E100E01EF0040F0CBFEFF32B
:107310000880EFF30980816911F8021C0229FFD06F
:1073200001B5724607F07EFE01BD00BF40B20028E5
:1073300007DB044A4109012300F01F00834042F8A3
:107340002130704700E100E040B200280CDB430927
:10735000064900F01F0020330122824041F823201B
:10736000BFF34F8FBFF36F8F704700BF00E100E0A6
:10737000054B420900F01F0053F82220012303FAB5
:1073800000F01040704700BF00E100E040B2D307BA
:1073900054BF023100210028ACBF00F16040074A11
:1073A0004FEA4113ACBF00F5614000F00F00DBB2C3
:1073B000B4BF135480F80033704700BF14ED00E0F1
:1073C000044B054A23F07F039360BFF34F8FBFF355
:1073D0006F8F70470060020000ED00E008B5FFF716
:1073E000EFFF074AD2F8883023F47003C2F88830E0
:1073F000FFF776FDFFF780FD00F0B0F805F040FEE6
:1074000000ED00E042F8203C009B42F81C3C0A4999
:10741000019B42F8183C029B42F8143C21F0010108
:107420004FF0807342F8043C42F8081C0023203AD5
:107430000265C367704700BF556A0200094A0346E8
:10744000906870B113F1160F806E05D0A0F1400264
:10745000934205D3834203D2814228BF0020704764
:1074600000207047AC17002008B515460B4A0C4B9E
:107470009060826F1A600E4600F0A0F82C4686F3EA
:1074800009880020034B9847204600210022002352
:10749000014C204749F00200556A0200AC17002059
:1074A000FC120020014B10221A61704700ED00E031
:1074B000054B5A699B689A421FBF044A536843F0C0
:1074C00080535360704700BFAC17002000ED00E010
:1074D000084B9B6883420BD1EFF3058343B1064B06
:1074E0005A6842F080525A605A6A22F400425A6244
:1074F00006F0A6BDAC17002000ED00E014498A6834
:107500004FF030001044EFF3098C80E8F01F40206A
:1075100080F31288BFF36F8F0E4F4FF000664A69F9
:107520008A603E60906F0C4C2060D06F0023D36760
:1075300080F3118804B5104600F040F8BDE804401F
:1075400002F1300090E8F01F8CF3098870470000CA
:10755000AC17002004ED00E0FC12002004480023DA
:107560004021C2180133302B82F80013F9D1704743
:1075700000E100E008B5EFF30583064A103B02EB9B
:10758000C30152F8330049688847BDE80840FFF757
:107590008FBF00BF642B03000148006870470000E4
:1075A000FC120020024B034A0348012100F076B888
:1075B0000000042000000020902E0300836E054A86
:1075C000403B1360044B4021C2E9011310460121E6
:1075D00000F06EB80013002000000B15084AC2F836
:1075E00098000B6823F01F03034343F01003C2F815
:1075F0009C308B6843F00103C2F8A030704700BF95
:1076000000ED00E02DE9F043DFF8608085B00E4624
:107610001F4604464FF00009B14523DA6068D8B12F
:107620003FB1411E08421BD11F2819D923681942B6
:1076300016D12368019307F02AFDA368034303933F
:10764000D8F89050C5F30725D0B2013DA84207D81D
:1076500001A9FFF7C3FF421C09F101090C34DBE764
:107660006FF01502104605B0BDE8F08300ED00E0B4
:10767000044B0522C3F89420BFF34F8FBFF36F8FE5
:10768000704700BF00ED00E0BFF35F8F024B0022A8
:10769000C3F89420704700BF00ED00E010B5034C24
:1076A00001232278FFF7AEFF207010BD7F18002065
:1076B00008B50B4A00231278FFF7A4FF10F1160F4C
:1076C00007D0084A0021D2F89030C3F3072398422C
:1076D00000DB08BDC2F89800C2F8A0100130F2E744
:1076E0007F18002000ED00E02DE9F0435A4B5B4D80
:1076F000D3F890302C68C3F307239C4285B000F286
:10770000A780FFF7C1FF00200C2684421AD1544EF7
:10771000DFF8449134706846FFF7AAFA514C524D95
:1077200080460027B84514D133784B490020D1F862
:107730009020C2F307229342C0F28480FFF798FFA3
:10774000002045E0696806FB0011FFF747FF0130A4
:10775000DBE7009800EB07114FEA071CCB682340DA
:10776000B3F5000F4DD00AD8B3F5001F33D0B3F5F1
:10777000800F3BD0B3F5801F13D00137D2E7B3F1B0
:10778000007F47D0B3F1805F4DD0B3F1807FF4D15B
:1077900050F80C3088684A6807F079FC40F088702F
:1077A00009E050F80C3088684A6807F070FC40F037
:1077B000885040F43020CDE901230390D9F890306F
:1077C0003078C3F30723013B984234D96FF015009A
:1077D00005B0BDE8F08350F80C3088684A6807F0BF
:1077E00056FC40F0885040F40020E4E750F80C309C
:1077F00088684A6807F04BFC40F0007040F40030A5
:10780000D9E750F80C3088684A6807F040FC40F02F
:107810008270D0E750F80C3088684A6807F037FC6F
:1078200040F48020C7E750F80C3088684A6807F0B9
:107830002EFC2843BFE701A9FFF7D0FE33780133C0
:1078400033709AE7C1F89830C1F8A00001336EE7B1
:107850004FF0FF30BCE700BF00ED00E09C2E0300BE
:107860007F1800200000F0FF0000021108B5064953
:10787000064821F00701C1F1005202F5802207F00D
:1078800023FA002008BD00BFBF5500200C130020C4
:1078900070B54169867A0B4D044659B1437ADB07CE
:1078A00006D4242303FB0653DB691B689B689847B7
:1078B000002363612420214600FB0650BDE8704090
:1078C0000AF0AEBD44060020024B242202FB003029
:1078D000704700BF440600202DE9F04385B00546FF
:1078E0006846039190461C460AF087FFDDE9006771
:1078F000EFF31189402383F31288BFF36F8F6B8AF4
:10790000002B41D02A8A9A4225D9002200232846FA
:1079100005F00AFE0446F0B189F31188BFF36F8FBA
:10792000039B002B41D032463B4668460AF08AFF53
:10793000A27A264B242101FB02332046DB691B6817
:1079400003A91D68DDE90023A847606170BB2046DC
:10795000FFF79EFF24E0698A4B1E6B8289F3118832
:10796000BFF36F8F2B7D2A8A2C6A1B3323F003030E
:10797000521A02FB0344154B154AEB1A9B10534352
:10798000A3722B7DE372CBE789F31188BFF36F8F6E
:1079900023464246284605F0C7FD04460028BFD1CD
:1079A0000024204605B0BDE8F08363610123002573
:1079B0002381039B6382E27A6560294604F1180003
:1079C0000AF0E3FF63692582E360EAE744060020EA
:1079D000398EE33870B50D4C242500B970BD037A9B
:1079E0004668002BFAD0013BDBB20372002BF5D1C5
:1079F000C3604360837A05FB03439B6913B19847D7
:107A00003046EAE7FFF744FFFAE700BF44060020EC
:107A1000024B0122C3F840250020704700E00140DE
:107A200048B1054B054A1B68B3FBF2F35843044BBE
:107A300043F00103184770475404002040420F00F0
:107A4000402E030008B5054A054B136010463F233E
:107A5000536004F0FFFC002008BD00BF1813002095
:107A6000FFFF07002DE9F04190F8283003F01F03D5
:107A7000012B04460F4600F128062FD0022B18D008
:107A80008BB394F82910204607F011FC024678B316
:107A9000304607F0F6FC1D4D002834D113693BB386
:107AA0003A463146204698470346FFF775FD2B506E
:107AB00024E0818DC9B207F0DBFF05460028E0D045
:107AC000304607F0DEFC024668688368CAB99B68E6
:107AD00073B13A463146BDE8F0411847818DC9B2CD
:107AE00007F0ADFFE9E790F8291007F0E4FFE4E7BD
:107AF000FFF752FD054B6FF085021A500020BDE8DC
:107B0000F081DB68E4E7D368C9E700BF0C00000040
:107B10002DE9F04F0B7E33F0800893B004460D46FC
:107B2000164640F08E847AB10846FFF753FF6B7E0D
:107B3000DF0703D49E0711D52B7E7BB9204613B0F7
:107B4000BDE8F04F07F0C9BC4A7E00F12809900754
:107B500008D5802B0CD12846FFF73CFF404613B0D8
:107B6000BDE8F08F910700F02784002B40F02484BB
:107B7000D2072FD52B8A082B40F00684EA681368B9
:107B8000A3625368C9F804302946002007F098FA28
:107B9000054610B1FFF71EFFEFE0484607F071FC05
:107BA000E28D70B9B2B12946A06908F08BFC01469C
:107BB000002800F02D84204613B0BDE8F04F08F0F7
:107BC00000B93AB11146204608F0F6F805460028FB
:107BD00000F01E84FFF7E0FC94F82880B14F0023EA
:107BE00018F0600FC351C8F3411307D0032B40F0C6
:107BF000BD81FFF7D1FC6FF0850337E0484607F001
:107C000040FC94F82930002840F04E81013B0A2BBB
:107C1000EFD801A252F823F08F7D0200F37B02001F
:107C20001B7E0200F37B0200457C0200F37B020016
:107C3000F37B0200F37B0200B57C0200F37B0200C1
:107C4000177D0200618D7F29D3D8A38D002BD0D161
:107C5000E38D002BCDD118F01F0FCAD194F830302E
:107C6000022B05D1FFF798FC4FF0FF333B5076E035
:107C7000A069036993F880301B0707D5C9B207F0E4
:107C800062FC804628B1002D6CD167E7012384F89F
:107C9000393094F83030012B0AD1638D43B984F820
:107CA0003030FFF779FC3B58002B00F0858056E020
:107CB0000123F4E7204607F059FA628DFF2A0146B6
:107CC00097D8E38D002B94D194F82830D80690D122
:107CD00094F83030002BC5D02AB1D2B2204607F03C
:107CE000D4FD0028BED0618D94F838308B42D8D0B6
:107CF000C9B2204607F0D0FD80460028C3D1628D6E
:107D0000002A14BF0223012384F8303005212046C5
:107D100008F0C3F8C5E708F01F08B8F1010F7FF4B9
:107D200068AFE38D002B7FF464AF628DFF2A3FF6CE
:107D300060AFA18DFF293FF65CAF94F83030022B85
:107D400090D1D2B2C9B2204607F0B9FF10F1020FAC
:107D5000804640F01081FFF71FFC47F8008065B1B6
:107D60004FF000082846FFF735FEB8F1000F7FF40A
:107D7000F5AEFFF711FC3B58F3B1484607F081FB25
:107D80000346A069002B00F04F83802155E3E38D6B
:107D9000002B7FF42EAF94F83030002B3FF462AF0D
:107DA000012BA18D02D100297FF45CAF18F01F08D0
:107DB0000CD0B8F1020F16D0E38D002B40F0D78223
:107DC000204607F074FB0028D7D1B7E600297FF4DE
:107DD00049AF638D012BEFD194F86C3061F3C3038D
:107DE00084F86C30E8E7B4F82AA0BAF1000FE3D1C8
:107DF0005FFA81F84146204608F035F80346FFF760
:107E0000CBFB3B50013302D14FF0FF383BE75246EA
:107E10004146204607F03BFB43E7E38D002B7FF410
:107E2000E8AE628DA38D022A5FFA83FA11D108F0C1
:107E30001F085AEA08087FF4DCAEA0690122190A7B
:107E400007F05EFB00287FF4D4AE012384F83930BC
:107E500027E794F8301000293FF404AF012902D13C
:107E6000002B7FF4FFAE18F01F0811D0B8F1020FFD
:107E7000A2D1002AA0D15146204607F0DFFF0346D9
:107E8000FFF78AFB3B500133BED001225146C0E7C9
:107E9000002B7FF4E7AE012A8ED194F86C3043F0CA
:107EA00008039DE70C0000000A2B3FF6A2AE01A2DA
:107EB00052F823F0E17E0200F37B0200F37B020024
:107EC000F37B0200F37B0200F37B02005B7F020086
:107ED000F37B0200EB820200F37B020015830200B9
:107EE000E38D022B7FF485AE94F83030002B3FF405
:107EF000B9AE012BA18D02D100297FF4B3AE18F0E9
:107F00001F0811D0B8F1020F1CD04FF0000805F186
:107F10000C0A504607F0ADFAE38D984218D2FFF7ED
:107F20003BFB6FF00B03A1E600297FF49BAE94F8B6
:107F30006C304FEA930808F00208C3F3001348EAD4
:107F40000308E4E7C9B2204607F09CFF8046DEE75D
:107F50004146504607F0D7F8A3E6B4F82AA018F037
:107F60001F0F4FEA1A235FFA8AFA09D029462046E2
:107F7000FFF778FD8046B8F1000F7FF484AE90E6FD
:107F8000013B0E2B3FF635AE01A252F823F000BFA5
:107F9000CD7F02000D800200B7800200F37B02005B
:107FA000F37B0200AF800200AF800200F37B02008F
:107FB000F37B0200F37B0200F37B0200F37B020001
:107FC000F37B0200F37B0200F981020005F10C084B
:107FD000404607F04EFA83462046B4F82EA007F03C
:107FE000C5F820B101287FF404AE616F00E0216F75
:107FF000002900F02A820A78DA4528BFDA4652457D
:1080000028BF5246404607F06DF84AE6204607F082
:10801000ADF80AF1010201900146D2B2204607F004
:108020000EFC804600283FF4E4AD05F10C0AD0F8C0
:1080300004B0504607F01DFA9BF80020824228BF8A
:1080400002465946504607F04DF8D8F80CB0BBF13F
:10805000000F09D1298AE38D99427FF622AEC91A11
:10806000504607F05AF81CE6DBF8040083681B6BE7
:1080700013B9DBF800B0EAE7019998470028F8D077
:10808000A0F1040858F8041F0029F2D00A78002A49
:10809000EFD05046CDE9022107F0EBF9029A03999F
:1080A000904238BF82B2504607F01CF8EAE72046FB
:1080B00007F05CF89DE552460321204607F037F9AA
:1080C000824600283FF495AD07F0CEF9B4F82EB003
:1080D0009AF81530C8B99AF814808DF828808DF870
:1080E0002930DAF8103005F10C0A1B88ADF82A3077
:1080F000504607F0BEF9C3455A4628BF4246824261
:1081000028BF02460AA950467DE7DAF808208DF814
:108110001530C14B1340C14A4FF0000893428DF80F
:10812000148058D1102106A808F012FC021EFFF698
:1081300060AD0AA9102ADFF8E8E20DF1180C084634
:1081400028BF1022424501F1020133D892000232C9
:108150005FFA82F88DF81480034605F10C0A504648
:10816000029307F086F9D845424628BF5A46904206
:1081700028BF104602288346804628BF4FF0020BD6
:108180005A46A8EB0B0805A9504606F0ABFF4FEA8C
:1081900058030193029B9B4603EB5802934521D160
:1081A00018F0010F3FF47DAD019A995C504606F03E
:1081B000A2FF76E51CF8013B4FEA131A03F00F0308
:1081C0001EF80AA01EF8033001F802AC01F8013CC9
:1081D00008F10108B6E79AF81480DAF810308DF843
:1081E0001480BAE71BF8011B5046CDE9023206F0B5
:1081F0008AFFDDE90232D1E7204606F0B7FF38B149
:1082000001282CD0FFF7C8F96FF085033B5048E5F3
:10821000236F002B00F019815B88B3F5007FF1D943
:10822000804B0A9300238DF82C30E36C04F14C0B47
:108230009B4508BF0023BDF82A10A3B15A7D0F2A21
:1082400008D11A7D0A44ADF82A209DF82C2001326D
:108250008DF82C20226D934203D01B68EBE7636FEF
:10826000D7E7BDF82A10019105F10C0A504607F036
:1082700000F9B4F82E800199884528BF88468045CA
:1082800028BF80464246052A28BF05220AA9504633
:10829000019206F027FF019AB8EB02083FF401AD06
:1082A000E36C5B453FF4FDAC002B3FF4FAAC5A7D28
:1082B0000F2A14D11A7D19690193424528BF4246FD
:1082C000504606F00FFF019B1A7D424594BFA8EB74
:1082D0000208A8EB0808B8F1000F3FF4E2AC226DE9
:1082E00093423FF4DEAC1B68DEE794F83030002B9D
:1082F0003FF4B8ACE38D012B7FF47BAC05F10C08A7
:10830000404607F0B6F800283FF409AE94F838105C
:1083100040464CE708F01F08B8F1010F7FF4A2AC0B
:10832000204607F0A0FA00283FF49CACB4F82CA03B
:10833000BAF1FF0F3FF65DAC43681B795345FFF47C
:1083400058AC5FFA8AF30F2B3FF653ACE38D012B49
:108350007FF44FAC05F10C08404607F08AF800287E
:108360003FF4DDAD04EB0A0393F83A10D0E748463A
:1083700007F087F818B92846FFF72CFB20E52946B7
:10838000204607F01EFD08B1284603E4A0690369F2
:1083900093F8801011F004017FF4D0AB08F0A6F838
:1083A000054600283FF4E9AC0146204607F009FDE8
:1083B00000283FF4C3ABE7E752077FF5DEAC002BA4
:1083C0003FF4C9AB2846FFF705FB94F83930002B82
:1083D0003FF4C4AB94F82930052B05D1618DA06919
:1083E000C9B207F0B0F8064694F82930032B09D13A
:1083F000638D022B06D1A18DA0690022090A07F026
:108400007FF80646002384F83930B046FFF7A6BB54
:108410006FF00B06B1E400BF00FF02000003020092
:10842000DA320300050F0500E38D002B3FF4ADACFD
:1084300016F10C0118BF0121C90107F05CFFFFF71D
:108440007DBB6FF00408FFF789BB6FF015081AE4D5
:108450000B78062B10B414D10369D3F89C20EFF3EA
:108460001184402383F31288BFF36F8F4B68002081
:108470001860506A58B9C2E9083384F31188BFF311
:108480006F8F044810BC0022002309F01FBF036057
:108490005362F2E7C80500202DE9FF4140264FF066
:1084A000FF335E484FF0FF3201A904F017FF039B32
:1084B0001B69D3F89C40236A93B1EFF3118286F3D2
:1084C0001288BFF36F8F216A29B1606A0B6823623B
:1084D000814208BF636282F31188BFF36F8FC9B90D
:1084E0009DF80430062BDAD0072BD8D801A252F819
:1084F00023F000BF478502003B850200678502002C
:108500004D8502008B850200818502009F84020058
:10851000158602000B7ED1F81E205D06204609D18B
:10852000FFF7F6FA02460028C5D00721204607F0DB
:10853000B4FCC0E707F093FAF4E7002201212046DB
:1085400007F0ABFCABE700221146F8E794F86C307B
:1085500043F0040301A984F86C30204607F01BF8AF
:1085600000220321EBE794F86C3023F0040301A907
:1085700084F86C30204607F00EF800220221DEE776
:1085800001A9204607F007F889E794F86C30A7693D
:1085900023F0040384F86C30D7F808803B69BFF3FC
:1085A0005B8FD3F8A030BFF35B8F9A072FD5D8F835
:1085B0003C3038469847D8F8243000213846984750
:1085C000D8F84030054638469847ADB92946204688
:1085D00007F062F9054678B9A06907F098FF831E95
:1085E0005842584194F86C3084F8305023F06803B6
:1085F00043EA401384F86C3000220421204607F03F
:108600004CFC002D3FF44BAF2A46072197E74FF073
:10861000FF35F1E7029A062191E700BFC805002067
:1086200030B589B000220023CDE9062300246FF085
:108630000703CDE90334CDE901441A4B1A490094EC
:108640004FF48062194805F08FFA1949174809F06C
:108650005CFF184B18498B4207D3184B1849002070
:108660008B4210D3002009B030BD03F11402BFF3D8
:108670005B8F52E8000F42E80045002DF9D1BFF3AF
:108680005B8F1833E7E703F11402BFF35B8F52E807
:10869000004F42E80005002DF9D1BFF35B8F18337E
:1086A000DEE700BF99840200C0290020280A0020CC
:1086B0000D320300E4060020E4060020E40600205A
:1086C000E406002038B5024609490546806907F0EE
:1086D00084FF044648B985F83800284606F0B2FF02
:1086E000044610B1A86907F0ABFF204638BD00BFB3
:1086F0005184020070B5084C084E0546B44202D3BE
:108700000024204670BD636828461968FDF76FFE97
:108710000028F6D01834F1E7E4060020E406002033
:1087200070B50646EFF31181402383F31288BFF33F
:108730006F8F1B4D2A6881F31188BFF36F8F5268CA
:1087400092F86C20D20705D4BDE8704021220023A6
:1087500005F04EB9EFF3118283F31288BFF36F8FE8
:108760002C682CB1696823682B608C4208BF6B6051
:1087700082F31188BFF36F8F44B1606804F1080180
:10878000C36998470748214609F050FD2B6833B16B
:1087900030460022BDE87040002305F0F5B870BDFA
:1087A000201300202005002030B585B0CDE900124F
:1087B000054600221448002303A904F0FBFC0246EE
:1087C000E8B9039BDDE900015D60083383E803003D
:1087D000EFF31180402383F31288BFF36F8F039B65
:1087E0001A600A4A516861B9C2E9003380F31188FE
:1087F000BFF36F8F06480022002305F0C5F805B0CF
:1088000030BD0B605360F1E72005002020130020ED
:1088100008000020F8B587681446FB6B05460E4635
:1088200098472146064800220023FFF755F80446E2
:1088300000B1067628463B6C98472046F8BD00BF3D
:108840004406002010F0080F0B4B42B20CD100F090
:108850000F00002A4FF0140202FB0033B4BFD3F81C
:108860000806D3F808077047002AB4BFD3F8A80653
:10887000D3F8A807704700BF00700240F8B5024661
:10888000EFF31181402383F31288BFF36F8F00F061
:10889000080507F00EFF0124844057066FEA04061E
:1088A0001BD0D5B9174F3B6823FA00F0C00714D589
:1088B00033403B6053B2DB4322F08000DB0F00F219
:1088C000DA301B0103EB40030F48C0F80038D0F842
:1088D000043843F00203C0F804380C4803683340FE
:1088E000036035B90A480368120654BF3340234376
:1088F0000360054BC3F86C4481F31188BFF36F8F9D
:10890000F8BD00BF801300200070024084130020D7
:1089100088130020EFF31180402383F31288BFF304
:108920006F8F0A4BD3F8001C032261B949F27531ED
:10893000C3F8001CC3F8142DC3F8001C80F3118881
:10894000BFF36F8F7047C3F8142DF7E700E00640C0
:10895000EFF31180402383F31288BFF36F8F0A4B2C
:10896000D3F8001C61B949F27532C3F8002CC3F882
:10897000141DC3F8002C80F31188BFF36F8F70476C
:108980000022C3F8142DF6E700E0064070B5024659
:1089900007F08FFEEFF31185402383F31288BFF3B6
:1089A0006F8F531E0124062B04FA00F40FD80E4ECD
:1089B0000E4B31681B680B43C34013F0010306D113
:1089C0000B4802F59472214340F822303160094A85
:1089D000136823431360084B8022C3F8042185F3F6
:1089E0001188BFF36F8F70BD8013002088130020A3
:1089F000007002408413002000E100E0F8B5030697
:108A0000044623D410F0080720D100F00F02920092
:108A100002F1804202F51C32D2F84434B3B1EFF3D4
:108A20001186402383F31288BFF36F8F07F041FE56
:108A3000084DC2F8A074012303FA00F12B6823EA61
:108A400001032B6086F31188BFF36F8F024BC3F8CD
:108A50001845F8BD881300200070024010B591F948
:108A60001800154B0A7E0028B4BFD3F81045D3F880
:108A7000144502F00F020123934023420DD10E4A08
:108A80000028B5BFD2F81005D2F8140503430343FC
:108A9000B4BFC2F81035C2F814350B7E1A0709D4DA
:108AA000054AC2F80C3543F48073C2F80C35087ED1
:108AB000FFF7A4FF002010BD007002400B7E064AA5
:108AC00013F07F0F0BBF012343F480735365C2F88B
:108AD00018350020704700BF0070024070B5064690
:108AE0000D4607F066FA044607F06CFA28BB2046EC
:108AF00007F08BFA08B3802D16D1437E9A0744BF46
:108B00000E4A15705B070FD50D4B1B7813B90D4B33
:108B100001221A65204607F074FA00220146304609
:108B2000BDE8704007F08ABA2846FFF72FFF2046BD
:108B30000121BDE8704007F049BA70BD82180020DD
:108B4000871800200070024070B506460C4607F0FA
:108B500030FA054607F036FA20BB284607F055FAEA
:108B60000146F8B1ACB9437ED8071BD49A0704D5A7
:108B70000D4B1C700D4B0122DA644B7E5B0708D550
:108B80000B4B1B7873B130460022BDE8704007F0F4
:108B900055BA2046FFF7FAFE28460121BDE870408D
:108BA00007F014BA70BD00BF8218002000700240A8
:108BB0008818002010B54468206801F033F80D4B88
:108BC00018600D4B1B782BB10C4B00221868114616
:108BD00007F028FA002201212720FEF7D7FB201DED
:108BE00003F04CFF04F1080003F086FF08F0B1FE2B
:108BF000002010BD38130020841800208C130020A2
:108C0000012810B5014619D0022809D0A8B90F4B88
:108C10000246186807F006FA0D4B01221A700CE0A4
:108C20000C4B0D4C00221A700C4BC4F8003327205B
:108C3000FEF77CFB0123C4F8043510BD034B002272
:108C4000186807F0EFF9024B0022E7E78C130020C9
:108C5000841800208318002000700240FDFFDF010F
:108C60000146014809F071BE3006002008B5054BE9
:108C70001970054B1B7813B10420FFF7F1FF00209A
:108C800008BD00BF851800208618002010B50469B3
:108C9000087E0D4A07F00DFD012303FA00F013686A
:108CA0000343136005F002F94020FFF7D9FF4FF0AE
:108CB000FF324FF0FF3304F18401044804F0D8FE82
:108CC00005F008F9002010BD7C1300203C060020B0
:108CD0002DE9F043474B066989B00546186006F157
:108CE000840009F002FB00220023CDE906230024C2
:108CF0006FF00703CDE90334CDE901443E4B3F4912
:108D000000954FF400723E4804F02EFFDFF8F48027
:108D10003D493B483D4F09F0F8FBD8F810203C4B4B
:108D2000134043F4820343F04003C8F81030C146B7
:108D300088F818404146284607F04DF9002855D1DB
:108D40000134092C18D009EB4411082C8A7C314BD2
:108D500042F040028A7408D1D9F810212E491140FE
:108D60002E4A0A43C9F8102103E00A693A401A431F
:108D70000A6108F12008DBE7294C2A4B2269234FBE
:108D8000134043F4041343F0400323618046A1469B
:108D900068F07F0222762146284607F01CF928BB9E
:108DA00008F10108B8F1090F18D009EB4811B8F122
:108DB000080F8A7C174B42F020028A7408D1D9F838
:108DC000102115491140154A0A43C9F8102103E042
:108DD0000A693A401A430A612034D9E796F880308C
:108DE00023F0720343F0720386F8803009B0BDE8C7
:108DF000F08300BF8C130020D18E0200002E0020D3
:108E0000B00A0020B0140020123203000000F9FF65
:108E10000000BEFF400006000000F7FFFF01080051
:108E2000901300200000DEFF10B50C4620461146CE
:108E300007F0EDF8207E07F03CFC0146034807F000
:108E400047FC0120FFF70CFF002010BDD4150020C7
:108E500008B5064A0B7EC2F80C3543F48073C2F89D
:108E60000C35087EFFF7CAFD002008BD00700240E7
:108E700010B50C7E4FF0FF324FF0FF33114804F075
:108E8000B9FB2046FFF7FAFC04F00F0201239340E0
:108E90000D4A14F0800F14BFD2F81015D2F8141533
:108EA0006FEA030315BF0B400B40C2F81035C2F840
:108EB0001435044804F06AFB044B8022C3F80421F3
:108EC000002010BDF00500200070024000E100E02D
:108ED0002DE9F04FB04D85B004464FF0FF384FF00C
:108EE000FF390022CDE900894FF0FF31AB4809F08E
:108EF00033FDAA484FF0FF3109F02AFD0746380735
:108F00002ED5A74842464B4604F074FBEFF311827E
:108F1000402383F31288BFF36F8FA24B1B787BB182
:108F2000D5F8003413F400730AD10121C5F82C15CB
:108F3000D5F82C15D5F80014890548BFC5F82C358F
:108F400082F31188BFF36F8F954804F01FFB012156
:108F5000204607F00EF800220321204607F062F8B1
:108F6000FE0608D50021204607F003F80022022162
:108F7000204607F057F8B80608D50021204606F02D
:108F8000F8FF00220221204607F04CF8B90761D40F
:108F9000FA0710D5BFF35B8F834B002253E8008F95
:108FA00043E800210029F9D1BFF35B8F0126B8F116
:108FB000000F40F0B180790734D57C4B4FF0000CA6
:108FC00083F800C0D5F88004C0B28DF80800D5F849
:108FD0008414C9B28DF80910D5F88834D5F88C24DA
:108FE00043EA02239BB2ADF80A30D5F89024D5F8B5
:108FF000946442EA0622ADF80C20D5F89824D5F8FE
:109000009C6442EA062292B2694EADF80E20002816
:1090100040F09B80052940F0988001213170002AA2
:1090200000F09F807B067FF558AF206984304FF0B9
:10903000FF324FF0FF3304F0B5F95E4E316800297E
:1090400040F0C2805C4804F0D9FC2069843004F010
:109050001BFA42E7594BBFF35B8F002253E8008FA6
:1090600043E800210029F9D1BFF35B8F4FF0010ADB
:10907000B8F1000F8CD098FAA8F3B3FA83F30F2B52
:109080001E46C6BFA3F11006F6B246F080060AFAE5
:1090900003F328EA030833063146204627D506F0B5
:1090A00088FF834606F0ADFF8146D8B100215846BF
:1090B00006F08CFF00224946204606F0BFFF802EB6
:1090C00010D13A4B002183F800A02046C5F850A0EB
:1090D00006F06FFF06F095FF014618B1002220460A
:1090E00006F0ACFF31462046FFF7F8FCC0E706F07B
:1090F00060FF834606F085FF814640B10021584657
:1091000006F064FF00224946204606F097FF3146EC
:109110002046FFF719FDABE798FAA8F3B3FA83F3FB
:109120000F2B1946C6BFA3F11001C9B241F080014F
:1091300006FA03F30A0628EA0308204602D5FFF7D9
:10914000CDFC34E7FFF700FD31E71D4A86F800C08B
:10915000D5F8703412789A420AD11A4B00221A704C
:1091600014E003F07F03ADF80A30ADF80C20F4E70B
:10917000144A0123137033704FF4A063ADF8083024
:10918000D5F87034ADF80A30CDF80CC002A92046ED
:1091900006F07BFF46E700BF00700240300600206B
:1091A000F005002083180020D41500208818002026
:1091B000871800207C1300203C060020D0150020DA
:1091C000851800208618002091FAA1F7B7FA87F7D2
:1091D0000F2F3946C6BFA7F11001C9B241F0800177
:1091E000204606F0E6FE804690F818904FF0FF32D9
:1091F0004FF0FF33134804F0FDF94846FFF73EFBFC
:10920000104804F0C3F9104B8022C3F804214146F2
:10921000204606F02BFF0021404606F0D7FEBFF3A4
:109220005B8F0123BB40094ADB4352E8000F184023
:1092300042E800010029F8D1BFF35B8F3268134088
:109240003360FBE6F005002000E100E0D0150020CF
:109250004FF08053D3F83031082B02BF024B00226D
:10926000C3F81C2C704700BF007002402DE9F0418C
:1092700005464FF0FF324FF0FF33384804F0BAF99B
:10928000374B8022C3F884212720FEF771F8A0B164
:10929000344F354B3C681B686FF30F041C434FF091
:1092A00001088CBB314E40F2FF133B602720C6F80B
:1092B0000445FEF749F8C6F800432D4A13788BB1F0
:1092C0002A4B0021C3F808110121C3F80026C3F876
:1092D00004165960D3F808110029FBD00021C3F807
:1092E00008111170214B0024C3F80045FFF7B0FFAF
:1092F0001A4804F04BF92146284606F0C1FFC0B1D8
:109300006FF00400BDE8F08194FAA4F6B6FA86F690
:109310000F2E3346C6BFA6F11003D8B243F080002B
:10932000030701D4FFF7AAFA08FA06F624EA0604AE
:10933000B7E78021284606F0A3FF0028E0D10D4BB7
:109340000D491C68204605F0F9FD10F1780F02D197
:10935000204605F0CFFD00EAE070D3E7F0050020DD
:1093600000E100E088130020841300200070024018
:109370008018002038130020281300202DE9F04F1A
:10938000B34BDFF8D082D3F85421B34F85B00AB382
:109390000022C3F85421D3F8042391021AD5D3F83C
:1093A000C034002B14BF4FF001224FF48072AB4B3E
:1093B0009B683BB998F8000007F07BF901238340D4
:1093C00022EA03023B681343A54A3B60136823F07B
:1093D000012313609E4BD3F8604134B10022C3F8DF
:1093E0006021D3F86C44C3F86C44D3F828214AB107
:1093F0000022C3F828219B4B187807F05AF9012363
:1094000083401C4398F8005098F900902A0700F117
:109410000181B9F1000FB4BF934B944B05F00F02DB
:10942000920013441A684AB300221A602846FFF7D4
:1094300009FA8F4B1A7800F0010050401870FFF7BE
:1094400007FF8C4B28461A6807F033F9C240D30750
:10945000064600F1F680B9F1000F80F2E280882D17
:1094600000F0DF807E4A01231168B3400B43136094
:10947000812388F80030794804F088F88CB13B6883
:10948000774ADFF8F4A124F001210B433B60136815
:1094900023EA01031360A4B24FF00109002C40F04D
:1094A000F7806B4BD3F800214AB10022C3F80021AA
:1094B000724B1A70704B0421186806F0B3FD644BB0
:1094C000D3F858212AB30022C3F85821D3F8004416
:1094D000C3F80044E00505D5684B012208201A7046
:1094E000FFF7BEFBA10505D5644B002210201A70C2
:1094F000FFF7B6FB62050CD5604B1A784AB1002223
:109500001A70534B0122C3F8082520209A65FFF7F3
:10951000A7FB4F4BDFF85CA1D3F85C31F3B14F4BA5
:109520009B681BB998F800305B0617D0484B0022A7
:10953000C3F85C21DAF80030494A23F00113CAF875
:1095400000303B6823F4803343F001033B60136831
:10955000042023F001131360FFF782FBDAF80060A8
:109560003B681E4000F02E81394BD3F82C95B9F1A1
:10957000000F40F0278139480022002304F03AF818
:10958000002840F01F8116F0012314BF93FAA3F6C0
:1095900096FAA6F6B6FA86F6F4B20F2EC8BF103CBD
:1095A000354BCCBFE4B244F080041868214606F085
:1095B00000FD019006F029FD4FFA84FB04F008033A
:1095C000BBF1000F0246029380F29C80019A058A4B
:1095D000518BC368C1F30A018D4240F28A800D4667
:1095E0004FF0000903F06042B2F1005F05D0194668
:1095F00023482A4609F0BBF9214BB9F1000F00F0CE
:10960000B280DAF800200121B14022EA0102CAF852
:109610000020A8E01B4B1C4A33EA290328BF13464D
:1096200000E71A48314607F053F80220FFF718FB0D
:10963000B9F1000FFFF616AF013D062D7FF612AF10
:1096400016E7002DF4D1024B0122DA6410E700BFC7
:10965000007002408118002088130020F0050020CF
:1096600080130020821800200871024030710240EF
:1096700080180020841300208C1300208318002001
:109680003C130020507102402C710240D015002084
:1096900094FAA4F5B5FA85F509FA05F345F08005C5
:1096A0002946DAF8000024EA030406F082FC06F0FA
:1096B000ACFC06462846FFF7C5F8014606F10C004B
:1096C00005F032FD338A002B7FF4E8AE304606F019
:1096D000A0FC18B1304606F0A0FCDFE6284606F0F4
:1096E000E8FF0146434806F0F3FF0220FFF7B8FA0F
:1096F000D4E6019306F08DFC80F00109019B5FFA2E
:1097000089F96FE704F008013B4B00295DD0D3F8DD
:10971000C03413F4803F08BF9946118AD068558A37
:10972000029243186D1A51690393401A2D1A4D4540
:1097300028BF4D46294602F10C0005F0CDFC019BE7
:10974000598BC1F30A014945DDE902237FF459AF82
:109750005169D068B2F812C0128A401AACEB00010D
:1097600091423FF44EAF4FF080520120D2F83021A9
:10977000082A02BF204A8221C2F81C1C3A6888F8D5
:10978000004000FA06F622EA060204F008013A60F8
:10979000194AF9B9BBF1000F04F00F044FF014019E
:1097A00001FB0421A9BF0A3402EB8402C1F800378F
:1097B000C1F80457AFBF42F82400C1F80036C1F821
:1097C0000456506005B0BDE8F08F04F5947153F86D
:1097D0002190A2E7BBF1000FB5BFC2F8A036C2F8D6
:1097E000A037C2F8A456C2F8A457B4BF5062906420
:1097F000E8E700BFD01500200070024010B5EFF37D
:109800001184402383F31288BFF36F8F164B1B78AC
:1098100003F0FF02CBB11549D1F82C3513B3002367
:10982000C1F82C354FF08053D3F83031082B0CD1D0
:109830000F4BD3F8000CC02188B949F27530C3F83A
:10984000000CC3F8141CC3F8000C84F31188BFF398
:109850006F8F002A0CBF6FF00A00002010BDC3F804
:10986000141CF2E71A46F0E783180020007002404B
:1098700000E0064013B50022009211464023044642
:1098800006F0A3FC024618B16FF0040002B010BD50
:10989000009040238021204606F097FC0028F3D159
:1098A000534901238B60534B4860C860186805F02A
:1098B000D6FA0028EADBEFF31184402383F3128801
:1098C000BFF36F8F4C4B4FF40062C3F8002406F0D7
:1098D000E2FE08B1FFF71EF84FF08053D3F83031A5
:1098E000082B18D1EFF31180402383F31288BFF3C4
:1098F0006F8F424BD3F8001CC022002971D149F26E
:109900007531C3F8001CC3F8142CC3F8001C80F395
:109910001188BFF36F8F384B0122C3F80025D3F8AD
:1099200000241205FBD54FF40062C3F800244FF069
:109930008053D3F83031082B17D1EFF31180402337
:1099400083F31288BFF36F8F2C4BD3F8001C0029D0
:109950004AD149F27532C3F8002CC3F8141CC3F87D
:10996000002C80F31188BFF36F8F06F094FE30B1A6
:10997000FEF7EEFF06F08FFE08B1FEF7CBFF4FF0CB
:109980008053D3F83031082B1B4B0AD140F2E372DD
:10999000C3F800284022C3F80428BFF36F8FBFF339
:1099A0004F8F8022C3F81C250122C3F83025144BA9
:1099B00040F2FF121A60134B00211960124B19601C
:1099C000124B1970FFF744FC114B197006F063FE3F
:1099D00008B1FEF7BDFF84F31188BFF36F8F00203D
:1099E00054E7C3F8142C92E70022C3F8142CB8E70C
:1099F00028130020381300200070024000E00640C9
:109A00008813002084130020801300208018002079
:109A100082180020084B70B5C31A0D4607499B10E9
:109A2000044659430648402206F098FE2B4601465C
:109A30002046BDE870401847EC150020B76DDBB636
:109A4000642A030073B50C4C0C4A4023041B00939A
:109A50000D460B460A49A41061430646094806F024
:109A6000A8FE014628B130462B4602B0BDE8704042
:109A7000184702B070BD00BFEC150020210803009C
:109A8000B76DDBB6642A03000022F8B50121054654
:109A90001046FDF77BFC104802F00AFD0446B8B9F9
:109AA00002F026FD2F690D49384605F0C5F9031E61
:109AB00009DB01263E642D69084905F11C0005F00B
:109AC000BBF9031E02DA1C462046F8BDEE64FBE734
:109AD0006FF00404F8E700BF099C0200282F030080
:109AE0001FB500220123CDE902236C46074A6B46CD
:109AF000CDE9004406F08DFE28B94FF480420023E2
:109B0000684603F077FD04B010BD00BF33080300C2
:109B100010B5EFF31184402383F31288BFF36F8FE6
:109B2000074A136823F00201DB07116002D4012009
:109B300007F0E9FB84F31188BFF36F8F10BD00BFFE
:109B40003C16002030B4104B0C2202FB00330146BF
:109B50000020D3E90E529863EFF31180402484F380
:109B60001288BFF36F8F1C6C04F0C00444F0020431
:109B70001C6480F31188BFF36F8F1DB12B4603481F
:109B800030BC184730BC7047EC150020642A030035
:109B900010B4EFF31180402282F31288BFF36F8F6D
:109BA00017490B6843F0020413F001030C601AD04C
:109BB0004FF08043D3F80C14D3F80C3413F00103A6
:109BC00011D0EFF3118182F31288BFF36F8F0D4A2A
:109BD000136C03F0C00343F00203136481F3118894
:109BE000BFF36F8F012380F31188BFF36F8F1BB119
:109BF00010BC0020FFF7A6BF10BC012007F07BBB04
:109C00003C160020EC15002010B1012804D070474C
:109C1000034B1B6C5B0701D1FFF794BF704700BF7C
:109C2000EC150020024AC3B21C2000FB0320704741
:109C3000EC1500202DE9F0413849BFF35B8F8046D9
:109C4000012251E8003F41E800200028F9D1BFF38C
:109C50005B8F33B9324933484B60CB608A6005F083
:109C6000FEF808F1FF33012B4BD8B8F1010F07D1F3
:109C70004FF08043D3F81C3403F00303012B40D092
:109C800008F03DFC054658B1EFF31186402383F3FD
:109C90001288BFF36F8F0125234F4FF080441EE0E1
:109CA000224B1B78002BEFD04FF080430222C3F8E9
:109CB00008230646F0E735B3304605F0D9F9D4F865
:109CC000183563B9D4F804214AB1C4F80431D4F882
:109CD00004310123C4F81835C7F88031A360D4F8E3
:109CE0001824D4F81834D203E5D503F00303012B6C
:109CF00002D0B8F1010FDED155B186F31188BFF360
:109D00006F8FBDE8F0810021212008F096FCD6E796
:109D10004FF080430222C3F80423F2E7E815002045
:109D2000D81500200816002000E100E0301B0020BC
:109D3000024B0B6001231360704700BF40160020E8
:109D400000487047442F030010B501221146064811
:109D5000064C08F073FB07F0ECFD206007F0E5FD12
:109D60006060002010BD00BF481600204016002093
:109D70004FF08042D2F81015D2F8103501F01E01D4
:109D800023F01F030B4343F00103C2F81035024BCD
:109D900000221A70704700BF891800204FF08053CE
:109DA000D3F83031082B20D14FF08042D2F8101573
:109DB000CB071AD5D2F8103501F01E0123F01F038E
:109DC0000B43C2F81035D2F808315BB1D2F8103528
:109DD00023F01F030B4343F00103C2F810356FF06B
:109DE0008B007047024B01221A700020704700BFA1
:109DF000891800202DE9F0410D46164607F095FD23
:109E000031460746284606F024FD78B3B5FBF7F344
:109E100007FB135353BBB6FBF7F407FB14642CBBCF
:109E2000B7421DD84FF0FF324FF0FF331148DFF833
:109E3000488003F0DFFB07F078FD0746FFF7AEFF31
:109E4000044680B9284602F0EFFD98F800300BB1C7
:109E5000FFF78EFFF61B3D44F0D1064803F096FB5A
:109E60002046BDE8F0816FF08B04F6E76FF0150433
:109E7000F6E700BF48160020891800202DE9F843B6
:109E80000E463046194617461C4606F0E2FC88B3DB
:109E900046EA040515F003052CD1BCB11748DFF8DC
:109EA00060904FF0FF324FF0FF3303F0A3FB24F03C
:109EB0000304AC4206EB05080BD1124AD2F8003479
:109EC000DB07FBD500240D4803F060FB2046BDE80E
:109ED000F883FFF763FF50B97959404602F0C0FD9F
:109EE00099F800300BB1FFF743FF0435E1E76FF05D
:109EF0008B04E8E76FF01504E8E700BF4816002080
:109F00008918002000E0014070B546680546B06839
:109F100090B107F0A7FC014670B9B06807F086FC65
:109F2000044678B902460949B06807F069FC224640
:109F300005210620FDF72AFA28460549BDE87040AC
:109F400005F042B86FF0040070BD00BFD9A0020058
:109F5000490903002DE9F043476840F20636D00670
:109F60003B7C87B002EA060654BFC2F3401C4FF0A8
:109F7000030C01F01F05B6F5837F144645EA43152F
:109F80008DF803C044D00DD8062E16D005D8A6B142
:109F9000022E3FD06FF0150037E0B6F5807FF9D183
:109FA00001260AE040F20222964235D0B6F5407F03
:109FB00034D0B6F5007FEDD10226220330D57A6881
:109FC00001238B40C2F80835B868A0BB05F01F0319
:109FD0006D092DD0012D77D13E4A02EB8302C4F3E7
:109FE0000043D2F8001783F00103C4F3404444EA6D
:109FF000430421F4E16144EA8C0421F0070144EABE
:10A0000006230B43C2F80037002007B0BDE8F083F9
:10A010000726D2E70426D0E70526CEE70326CCE7BD
:10A02000630341BF01237A688B40C2F80C35CBE74C
:10A030004FF0A042D1E70DF10202294607F0E3FB01
:10A0400014F4403F80460CD1B868294607F010FC54
:10A05000B8F1000FD8D19DF80210B86802F0E0FB0B
:10A06000D2E74FF0000901ABCDE90199CDE9043900
:10A07000CDF80C90B86803AA294607F099FA48452C
:10A08000C2DB14F4003314D0C4F300449DF8033051
:10A090008DF80E3084F001048DF80C608DF80D40C1
:10A0A000B8684B4603AA294607F035FB0028CFDAEB
:10A0B000AAE7CDE904330DF103030393B86803AABB
:10A0C000294607F075FAF1E703F5E07350F82330FD
:10A0D000FFDE00BF00030050420970B5034602D006
:10A0E000012A17D070BD0D4E326951680029F9D090
:10A0F00003F01F0301250C689D400029F2D08A68F7
:10A100002A4002D04B68304698472CB1236821463C
:10A110001C46F2E7024EE7E72346F8E7A42A0300CD
:10A12000842A0300F0B544681646A068227C01F03A
:10A130001F0587B045EA421500286DD0B6F5001F0F
:10A1400004D1294607F0E7FB002056E06268607CF6
:10A15000C2F8240501AA0020B6F5800F01905060D6
:10A1600037D1B3F1007F14BF052304238DF80430E9
:10A170000023CDE904230393E36823FA01F111F0EE
:10A1800001010DF103073AD1B6F1A07F37D105F0F7
:10A190001F036A0903F5E07326D0012A3FD1214A43
:10A1A00052F82330DB072AD4A0683A46294607F044
:10A1B0002AFB16301BD00297A06803AA294607F095
:10A1C000F7F9002819DBA0680122294607F052FBA5
:10A1D000BAE7B3F1C06F05D0B3F1007F14BF01231C
:10A1E0000223C3E70323C1E74FF0A042D8E7A068EA
:10A1F000394602F01BFB0028DDDA07B0F0BDA0688D
:10A200003A46294607F0FFFA0028D5D19DF80310F9
:10A21000A06802F005FBCFE76FF08500EDE751F88D
:10A220002330FFDE00030050036803F01F025B09C8
:10A23000026004D0012B034818BF002070474FF084
:10A24000A0407047000300502DE9F04F00EB81095A
:10A25000594985B01546834640F2FF1AD94503D1C6
:10A26000002005B0BDE8F08FDBF80020C2F3C7285E
:10A2700018F00808C2F3C320C2F3080440F0958028
:10A280004E4B120E1E5C544508BF4FF0FF34192A86
:10A2900000F28E80DFE802F00D381D2E20262E2AD7
:10A2A0002E31383B428C8C8C8C8C8C8C8C8C4580E9
:10A2B0008386C5F80C45621C6BD003A80394FFF796
:10A2C000B3FF039A012707FA02F2C0F808253846BF
:10A2D0003DE0C5F80845EEE7C5F808450027601CD5
:10A2E0002AD156E0C5F80C450127F8E7C5F808451E
:10A2F000002705E0C5F81045FAE7C5F80C45012729
:10A30000631C46D0002022E0C5F81445F0E7C5F8EC
:10A310000845002EECD100270626F1E7C5F80C45CC
:10A32000F7E7C5F86045BBF80220671C02F00102A0
:10A330002FD0002AC1D1012703A80394FFF774FF8F
:10A34000039A8446012000FA02F2CCF80C25DBF8CF
:10A350000020019202F4004CBCF1000F08BF8046BF
:10A3600003A818BF01270394FFF75EFF039C019A1F
:10A3700000EB8400C2F3412CD0F80047320242EADD
:10A380008C0242EA08020C40224342EA4702C0F82B
:10A3900000270BF1040B61E7C5F86445C3E7C5F876
:10A3A0006845C0E7C5F86C45BDE76FF0150058E794
:10A3B0006FF0850055E700BFF0F8FCFFEB320300BB
:10A3C000036803F01F025B09026004D0012B0348FD
:10A3D00018BF002070474FF0A040704700030050A6
:10A3E00010B50446002201211C20FCF7CFFF236991
:10A3F000064A6168184607F030FB002805DB204656
:10A400000349BDE8104004F0DFBD10BD9F09030003
:10A41000E90A03002DE9F04F89B09946436801939A
:10A420008B8804699E0480460F46924600F1108195
:10A430004FF0FF324FF0FF3304F1340003F0DAF84D
:10A440002763D8F81060D8F8043096F8892012B144
:10A45000F26A974277D0B7F804C01CF4006F40F05E
:10A4600030811CF0090F40F029810CF4FC62B2F538
:10A47000807F40F023813D68AD4A954240F21E81C5
:10A480009E46BEE80F000DF10C0BABE80F00DEF8A6
:10A490000030CBF80030A74B9D4240F2E280A64B43
:10A4A0009D4240F2E180A54B9D4240F2E080A44BEA
:10A4B0009D4240F2DF80A34B9D4240F2DE80A24BE2
:10A4C0009D422CBF4FF000454FF080451CF002012B
:10A4D00005950CF0040300F0D380002B0CBF022381
:10A4E0000323CCF3001C8DF818308DF819C03368A5
:10A4F000D3F808355D1C10D003F01F0001225B0962
:10A50000002940F0C280002B00F0BC80934240F054
:10A5100007818E4B8240C3F80C2596F889302BB109
:10A52000304607F0A4FB002386F88930884A33467A
:10A5300003A9304607F07BFB002840F0B1800123DF
:10A5400086F88930F762012384F88830019B196A04
:10A55000481C02D0D86906F046FCBAF1000F40F062
:10A56000B380C4F858A00023E36504F1700204F13D
:10A570005C0104F1580006F00BFBE066B9F1000F36
:10A5800040F0AB80C4F860900023636604F1780269
:10A5900004F1640104F1600006F0FAFA0023606738
:10A5A000E06D63651A46824240F0A0800022656E2D
:10A5B0001146A94240F0A18093422CBFA366A26637
:10A5C0000023E367404606F03FFBE36A998811F0F9
:10A5D000010140F09980A56E1B684FF4FA52554373
:10A5E00040F2E730B5FBF3F54FF40046C8354FF4C1
:10A5F0007A720023E5FB0601FBF7A0FE02460B463C
:10A6000004F14407384602F0F5FF48B9E36A656D86
:10A610009B88D90701D505B9E56F15F1740F77D17E
:10A620004FF00009C4F88490204607F020FB84F81E
:10A630008990D8F810606FF07305756506F14400D5
:10A6400002F0A4FF86F88890384602F0F9FF29E06E
:10A65000E36B002B7FF4ECAE236B99427FF4E8AE02
:10A66000EFE64FF0007531E74FF080652EE74FF0D1
:10A6700000652BE74FF0805528E74FF0005525E7A0
:10A680009B082EE74FF0A04344E733B1012B4AD19A
:10A690002E4B8240C3F808253FE74FF0A043F8E770
:10A6A0006FF00405E36A13B19B889B0434D4002344
:10A6B000236304F1340002F069FF2DE06FF015050B
:10A6C000F0E76FF08505EDE7DAF80030A365002BC1
:10A6D0003FF449AFDAF8043046E7D9F80030236692
:10A6E000002B3FF451AFD9F804304EE7A16D01EBD8
:10A6F000C201013249680B4455E7206E00EBC100EE
:10A7000001314068024454E74FF0FF32134677E7C7
:10A71000002DC7DB9A04C5D5284609B0BDE8F08FE7
:10A72000C1F80C15FFDE0023C3F80835FAE700BFB7
:10A7300047E801008FD003001FA107003F420F0030
:10A740007F841E00FF083D0000127A0000030050C5
:10A75000B90C030000F01F0240090DD001280ED1F2
:10A760000A4B03EB82030A4AD3F80007024042EA8D
:10A770008102C3F8002770474FF0A043F1E702F5CC
:10A78000E072002353F82230FFDE00BF00030050C8
:10A79000F0F8FCFF10B403460C46DA88006819791B
:10A7A00002F04002224383689C6934B1044BA44602
:10A7B000134010BC02F0B072604710BC704700BF7D
:10A7C000400000062DE9F041456804690646012174
:10A7D000686A06F035FB2A4A33462946204607F0C8
:10A7E00086FB002843D12368C3F80005A86A60B936
:10A7F000236B23B9636204F1280002F0C7FE3046E0
:10A800002049BDE8F04104F0DFBB07F064FC80B3F1
:10A81000B5F82EE0A86A95F82C104EF4302242F0DC
:10A820000602D0F810C0D0F80880DCF8003001270C
:10A830001EF0010F07FA01F714BF3B43BB43CCF8EE
:10A840000030D8F800309847002810DB95F82C30FD
:10A850000D49012202FA03F3C4E92313A86A8368AD
:10A86000DB6904F188013BB198470028C0DABDE8F4
:10A87000F0816FF01200FAE76FF05700F7E700BFC2
:10A88000C30E03005F0E0300D90E030070B5012351
:10A8900083400F4ABFF35B8FDC4352E8001F01EA9D
:10A8A000040542E80056002EF7D1BFF35B8F4FF44A
:10A8B000803282400748C0F80823BFF35F8FBFF3A0
:10A8C0006F8F03EA0100003818BF012070BD00BF80
:10A8D000741600200010014070B41249D1E9003410
:10A8E000D01AC31844F1000422F07F46C1E90034B5
:10A8F000A6F50013B3F5400F09D20B4B1B681A0ADB
:10A900001B069C19094B42F10005C3E90045EFF312
:10A910001181402383F31288BFF36F8F70BC03F063
:10A920007DBD00BF480B002078160020500B002092
:10A9300011B3BFF35B8F0123104A834052E800CF6D
:10A940004CEA030C42E800C10029F7D1BFF35B8F4A
:10A950000B4A4FF480338340C2F80433094BBFF3F2
:10A960005B8F1B68BFF35B8FC340DB0742BF064BA7
:10A970004FF40032C3F80021704700BF7416002066
:10A98000001001407016002000E100E00D4B186837
:10A99000010A0006BFF35F8F0B4BD3F8043518187C
:10A9A00041F10001B3F5801F0AD2084BD3E900231F
:10A9B000904271EB030303D210F1807041F100016A
:10A9C000704700BF7816002000100140500B002097
:10A9D0002DE9F04F85B016461F469DF840A004466D
:10A9E000FFF754FF0190FFF7D1FFB04271EB07036F
:10A9F0005ED23E4B301A67EB0101984271F10001C3
:10AA000009D36FF0150520460199FFF791FF2846FD
:10AA100005B0BDE8F08F364B03EB0413D3E90223F6
:10AA20009F4208BF964254D032494FF4803804F117
:10AA3000500508FA04F8AD00C1F848832046ADB2CD
:10AA400006F07EFB26F07F4B05F1804504F5A873E8
:10AA500005F58835DC464FF003090293029A2CF085
:10AA60007F4341F82230C1F84483D1F80435224AAB
:10AA70006FF00200C01A604420F07F40904228D955
:10AA8000286868B1D1F804350393A3EB0B0020F0DC
:10AA90007F40B0F5000F1CD9204606F051FB039B08
:10AAA000BAF1000FADD109EB030C09F10109D5E7AB
:10AAB000BAF1000FA5D10123104ABFF35B8FA34069
:10AAC00052E8000F184342E800010029F8D1BFF313
:10AAD0005B8F07490E98230101EB0412C8500F9BAE
:10AAE0005360C2E9026700258DE700BF01008000C6
:10AAF000380B002000100140FDFF7F007016002081
:10AB00007FB51C4C1C4BC4F80833C4F848331B4BAE
:10AB100000254FF0FF304FF0FF31C4F80855C3E96E
:10AB200002014FF48033C4F80433154B02264FF46E
:10AB300000320121C4F804631120C3F880212A46A1
:10AB4000FCF724FC1120FCF7F1FB0E4A0123A36063
:10AB5000236013600C4B0D4A0093CDE9015500238F
:10AB60002846FFF735FF3046FFF764F8284604B063
:10AB700070BD00BF0010014003000F00380B002023
:10AB800000E100E074160020D9A80200FFFF7F005A
:10AB90002DE9F7432B4CD4F8043399070BD5D4F89F
:10ABA000043143B1284A0023C4F80431D4F80431F5
:10ABB000136801331360D4F80433DA0323D5BFF3E9
:10ABC0005B8F224B53E8002F22F0010143E8001075
:10ABD0000028F7D1BFF35B8FD30702D4D4F84031FC
:10ABE0008BB10025C4F84051D4F84031FFF7CEFEB8
:10ABF000EFF3108272B6164BD3E90267B042B94147
:10AC000004D282F3108803B0BDE8F0834FF0FF3820
:10AC10004FF0FF39C3E90289D3E900101D604FF4FA
:10AC20008033C4F84833C4F84051D4F8403182F33B
:10AC300010880029E7D0009032463B4628468847D6
:10AC4000E1E700BF001001407816002070160020D8
:10AC5000380B002030B5431C124C85B005D084421F
:10AC6000A8BF0446012CB8BF0124FFF78FFE0E4B8E
:10AC70000C4DD3E90013401AB0F5000F10D2221882
:10AC8000AA4228BF2A4652184FF0000007490091F7
:10AC9000CDE9010043F10003FFF79AFE05B030BD96
:10ACA0002A46F0E7FFFF7F00480B0020D9A80200EA
:10ACB00008B5FFF76BFE024B1B68C01A08BD00BF4A
:10ACC000480B0020042812D8DFE800F00D03110D16
:10ACD0000300084BA0221A60074B1872074BC3F8F9
:10ACE000100501207047034B4FF49672F3E70020E4
:10ACF000704700BF80160020701700200010004031
:10AD0000014807F0ACB900BF440400201FB5114B47
:10AD100093F90A001B7A013BDBB2032B9CBF0E4A5E
:10AD2000D25C0E4BDB7C4FF0000188BF0522009106
:10AD300003F5166303A9FBF713FA9DF80D00FBF763
:10AD400009FA9DF80C20064BC3F80C2505B05DF8F8
:10AD500004FB00BF70170020F33203002C04002016
:10AD60000010004038B500281349144840F204454B
:10AD700008BF4FF48065FBF7CFF9044648B9FBF7ED
:10AD8000BFF9204600F098FF0D4B1B68C3F8005236
:10AD900038BD0C4BDB7C002B0B4B0CBF81222822D7
:10ADA000C3F848250022C3F84821D3F848214FF4BE
:10ADB0008022C3F80423E7E7CC030020FC03002033
:10ADC000440400207017002000A00040B0F5A47FCC
:10ADD00009D1054B1A68D2F8003223F4806323F0BE
:10ADE0000403C2F80032704744040020837842789C
:10ADF0001B0443EA022302781343C27843EA025356
:10AE0000027943EA8253427943EA0263827943EA50
:10AE10008263C27943EA4273094AC2F81435837ADD
:10AE2000417A1B0443EA0123017A0B43C17A43EAC6
:10AE30000163017B43EA4163C2F81835704700BFE4
:10AE4000001000401FB504460D220021684607F09F
:10AE50009CFD0A4B00930A4B5B7CE0B2013B8DF8F2
:10AE600008008DF809008DF80A30684601238DF836
:10AE70000B30FFF7BBFF04B010BD00BF00010100A5
:10AE80002C0400201FB518490B7823B1012B07D0E3
:10AE900005B05DF804FB05B05DF804EBFFF7D2BF29
:10AEA0000022CDF809208DF80B30104BCDF805208D
:10AEB0005B7CCDF80120013B8DF80A3020238DF812
:10AEC00008300B7A03228DF80220012B4FF0060286
:10AED0008DF8002001D0042B02D101238DF805301C
:10AEE0006846FFF783FFD3E7701700202C0400208B
:10AEF000064BBFF35B8F53E8001F014343E800128A
:10AF0000002AF8D1BFF35B8F704700BF8C1600207A
:10AF100008B5084806F033F958B10748436A0133C9
:10AF2000082B28BF00234362BDE80840283006F004
:10AF300039B908BD641700203C170020F8B5064653
:10AF4000284806F01CF907280D4649DC264B274FF8
:10AF50001A78012A39D13B78C3F3050203F03F0385
:10AF6000202B3DD8224B196A53F821301A70204CFF
:10AF70002049236A54F8230010F8052B07F0F7FC4A
:10AF8000236A54F823305E701B4B226AD3F848358D
:10AF900054F8222003F07F039370236A54F823307F
:10AFA0001D71236A54F823207B78DB4303F00103EF
:10AFB000D370236A0133082B28BF002304F1280033
:10AFC000236206F0FBF80120F8BD094A116A52F825
:10AFD0002120597809B91170C9E75B7C1370C6E765
:10AFE0000020F1E73817002070170020E21A002037
:10AFF00010170020E41A002000100040684620F0DE
:10B0000007018D4601B5204BD3F80423D1060BD59B
:10B01000D3F8102142B10022C3F81021D3F8103127
:10B020001A4B1B6803B19847174BD3F80423120738
:10B030001ED5D3F80C21DAB1154A5278022A1DD157
:10B04000D3F80804134B5978C0B2C1F34101FFF79C
:10B0500075FF38B10420FFF74BFF0F4B4FF4801200
:10B06000C3F80021084B0022C3F80C21D3F80C319F
:10B07000FCF71EFABDE8014085467047034B1B688C
:10B08000002BEFD09847EDE7001000407C16002021
:10B0900070170020E21A002000E100E0684620F06E
:10B0A00007018D4631B5144B14481B68144D82B00E
:10B0B000019306F06AF82B680446B3B1C10704D5C2
:10B0C00000228DF8002068469847A20705D5012385
:10B0D0008DF8003068462B689847630705D5022332
:10B0E0008DF8003068462B689847FCF7E1F902B00C
:10B0F000BDE8314085467047841600208C1600203C
:10B100006C1700202DE9F041614BDFF888815A6A05
:10B11000614F98F8004053F82250604E3D60002C7B
:10B1200045D0012C6BD001243B685D4D5A78C5F8A1
:10B130002C255B78012707FA03F3DBB2C5F830351D
:10B14000584BDA7CC5F808251433BFF35B8F53E8FE
:10B15000001F21F0010143E80012002AF7D1BFF3DC
:10B160005B8FFFF7D3FD504BC5F804650222C3F88F
:10B1700080213846FCF7DAF80020C5F80401D5F83C
:10B180000431C5F80801D5F80831C5F81001D5F823
:10B190001031C5F80C012146D5F80C3100F0C8FD7E
:10B1A0002046FFF7DFFD414B9F61BDE8F08198F835
:10B1B00011003480FFF746FE33782A79304662F377
:10B1C000010300F8023B294611F8052B07F0CFFBDD
:10B1D000334B40F21B12C3F80022C3F81041D3F8DE
:10B1E00010211022C3F80423314BB8F80E201A6046
:10B1F000304B314A1A60314B04221A7093E7EA78D7
:10B20000002333801AB198F8124084F001042B799E
:10B21000287831785B0003F00603002A08BF43F06A
:10B220000103727860F3050122F0070213433170C5
:10B230002946737011F8052B214807F098FB184B2D
:10B240001C491E4AA4B140F21B10C3F80002184862
:10B25000B8F80E40046018480860042111700022FC
:10B26000C3F81021D3F810211022C3F804235AE7A1
:10B2700040F21310C3F80002124808600321117055
:10B28000C3F81041D3F810211022C3F804234BE770
:10B290003C1700207017002068170020041B0020B6
:10B2A000001000402C04002000E100E000400140BC
:10B2B000881600207C160020E1B30200261B002027
:10B2C000061B0020C9B2020010B5FAF731FF124B7D
:10B2D0001B6801241C6100F011FDFAF717FF002123
:10B2E000084600F091FD0D4B20461C60FFF700FE64
:10B2F000FFF70EFE0A480B4B05F041FF4FF480129A
:10B3000020B909490C70C3F8002110BDC3F8002111
:10B31000BDE81040FFF7F6BE44040020841600206C
:10B320006417002000E100E0261B00200146C8074A
:10B3300008B506D5184805F013FF184B00BAC3F836
:10B340001C058A0706D5164805F00AFF134B00BAFC
:10B35000C3F820054B070AD51248104905F000FF35
:10B36000C1F82405104805F0FBFEC1F828054FF090
:10B370008053D3F83021082A0DD1D3F8343153B992
:10B38000054B0A485B7C052B18BF4FF07F40BDE89A
:10B39000084000F05DBC08BD2C04002000100040F7
:10B3A0003004002034040020380400200000FFFF97
:10B3B00008B5FAF7BDFE07490748FAF7B3FE074B91
:10B3C0001A68D2F8003223F4806323F00403C2F831
:10B3D000003208BDCC0300201404002044040020E7
:10B3E00070B501210020204C204D00F00DFD00F033
:10B3F00085FCFFF7DDFF40F21313C4F800321C4B4D
:10B400001C4A1B680D33C2F84035EB7C002BAB891E
:10B410000CBF812128215B1AC2F84435164B1B68EA
:10B42000002640F20222C3F80022C3F84061D3F89C
:10B430004021C3F84461D3F8443100F095FD00F099
:10B440006DFDC4F80C612878D4F80C3108B9FFF709
:10B45000F9FC0A4BC4F80435094B0A4A1A600A4B36
:10B4600005221A7070BD00BF001000407017002048
:10B470008016002000A0004044040020E21A0020B2
:10B480007C160020F1B40200261B002010B50A4CE7
:10B490000A4A2368D3F8443500208133D36000F092
:10B4A0000BFC07490548FAF737FE20B9236840F23C
:10B4B0000442C3F8002210BD44040020E40300202D
:10B4C000CC03002008B500F019FCFAF731FE032088
:10B4D000FAF73AFE054B1A68D2F8003223F480637B
:10B4E00023F00403C2F8003208BD00BF440400206A
:10B4F000F8B54B4E4B4C4C4D00F068FDFAF71EFE74
:10B50000FAF704FED6F80C31002B3AD0D6F8003406
:10B51000D90736D50120FFF7EBFC2268EB899B1A8F
:10B52000424A03441360FFF7F3FC2B7883B1404B8E
:10B530001A7892060CD0D6F82C05597800F007003E
:10B54000C1F34101FFF7FAFC10B10420FFF7D0FC72
:10B550003848394B05F013FE00280ADD2A7C012A01
:10B5600007D04FF48012C3F80021BDE8F840FFF780
:10B57000C9BD324A012111704FF48012C3F8002175
:10B58000F8BD23682D4E2E4F5A1E226063B93B68CA
:10B59000264A01241C61EB89022023441360FFF733
:10B5A000A7FC254B3470E7E71D4C0023C4F800319D
:10B5B000D4F8003140F21B13C4F800322B7813B9D1
:10B5C000687CFFF73FFC1F4BC4F804351E4B1F4A35
:10B5D0001A6004233370FFF799FBFFF757FF00F061
:10B5E00063FC3B68D3F84421BAB1D4F85035DBB2E0
:10B5F000092BC5D0D4F80041002CC1D1FFF762FF60
:10B6000000F08CFC0121204600F092FB0120FFF7A6
:10B61000A9FB0F4B01229A61B2E701221A60AFE742
:10B6200000100040881600207017002084160020AB
:10B63000E21A00206417002000E100E0261B002031
:10B6400044040020041B00207C160020E1B302000B
:10B6500000400140F8B51D4C23788BB32378012BB3
:10B6600031D01B4B1B4E00251D6000F01FFD3368C1
:10B6700001271F61FAF762FDFAF75AFD00F03EFB61
:10B680000320FAF761FDFAF741FD134B4FF0FF324B
:10B69000C3F80052C3F80823C3F81051D3F810219F
:10B6A0001F61D3F81021002AFBD0336800204FF02F
:10B6B000FF32C3F80002C3F8082301232370F8BD4A
:10B6C0006FF00C00FBE76FF07700F8E7261B002017
:10B6D0007C160020440400200010004010B50C4CE3
:10B6E00023789BB105F092FD1420FBF72DFE01207D
:10B6F000FBF72AFE0A20FBF727FEFFF7ABFF054802
:10B7000006F096FC00F052FD0023237010BD00BF30
:10B71000261B002044040020F0B5054685B0002813
:10B7200070D06E4E33780BB1FFF7D8FF05F052FDA5
:10B730000446002868D16A4B6A681A60694A2B4639
:10B7400005F11007154618685968144603C40833F4
:10B75000BB422246F7D1186820602B7803B9AB743E
:10B760006148624F05F011FD00212022604807F07A
:10B770000CF9604B002407F128001C605C60C7E9ED
:10B78000084405F002FD5C48C0E90844283005F093
:10B79000FCFC5A490B460134082C47F8043B03F1E2
:10B7A0002503F8D1564A544800230133082B40F8AA
:10B7B000042B02F12502F8D10022524B104601322F
:10B7C000082A19601871986001F1250103F10C0332
:10B7D000F5D14D482022002107F0D7F8AB89B3F509
:10B7E000D97F0FD9287AFFF76DFA2B78012B8CBF00
:10B7F000002000F001006B7A012B34D0022B06D020
:10B80000002B39D06FF01504204605B0F0BD3F4A3B
:10B810004FF6FF71C2F83C15C2F834353C4BC2F804
:10B8200038350028EED0394F687CFFF72BFB4FF0FE
:10B83000E733C7F81C354FF04333C7F82035354B95
:10B84000C7F82435344BC7F828350023CDE9023337
:10B85000324A334B3348019301A906F0D5FB88B136
:10B860006FF00D04D0E7294AFF21C2F83C15C2F859
:10B87000343540F20713D2E7244AC2F83C35C2F807
:10B880003435CCE700F0C8FB04460028BCD100F0FA
:10B8900009FC254B5860D7F85026EB7C22F00102BA
:10B8A0001343C7F850360125224602211420357073
:10B8B000FBF76CFD224621462846FBF767FD224632
:10B8C00002210A20FBF762FD1420FBF72FFD28461A
:10B8D000FBF72CFD0A20FBF729FD95E7261B00202E
:10B8E0006C170020701700208C1600203C170020D9
:10B8F00008180020DA1A002010170020B2190020C2
:10B900008A180020B0160020901600200010004079
:10B9100021100100E743C323A363E313CDAD02006D
:10B9200040420F0044040020CC030020F8B54D4EE7
:10B9300033780446002B00F08B804B4D6B78022B44
:10B9400002D14FF0FF30F8BD10B96FF01500FAE7E3
:10B9500003785A1E1F2A7ED82A7812B96A7C9A4226
:10B9600079D3424805F00BFC072877DC6378072B76
:10B97000EBD86A782B78002A34D11BB96A7C2378FB
:10B980009A42E2D13A4B196A53F82110224604F147
:10B99000240052F8047B41F8047B8242F9D11278EA
:10B9A0000A70607833490A5C013202F003020A54DB
:10B9B0001A6A607853F82220095C11711A6A2B48C0
:10B9C0000132082A28BF00221A6205F0F7FB6B78C3
:10B9D0002A7C134304D13378012B01D1FFF792FB6A
:10B9E0000020B0E7002BACD0234A00231146107989
:10B9F00010BB0C225343CF180122CB583A71B860C8
:10BA0000224604F1240152F8040B43F8040B8A4245
:10BA1000F9D112781A700120FBF796FC6178174A69
:10BA200052F8213073B942F82170104805F0C6FB76
:10BA30000120FBF77BFCCAE70133082B02F10C0263
:10BA4000D5D1C4E71A469B68002BFBD19760ECE781
:10BA50006FF00C0077E76FF0790074E76FF00B0080
:10BA600071E700BF261B002070170020641700201C
:10BA70003C170020DA1A0020B01600209016002093
:10BA800010B5214A12780346002A34D0002835D058
:10BA90001E4805F074FB002833D01D4C626A54F830
:10BAA000222012781A70616A54F82110497859706E
:10BAB000616A54F8211091F902109970616A54F882
:10BAC000211009791971616A54F82110C978D97067
:10BAD000616A54F82110581D053106F048FF636A69
