:020000022000DC
:10600000802600209D6E0200D9BA0200896E02002F
:10601000896E0200896E0200896E02000000000095
:10602000000000000000000000000000796F020086
:10603000896E0200000000006D710200896E02008E
:10604000E5710200C5860200E5710200E5710200FB
:10605000E5710200E5710200E5710200E5710200E0
:10606000E5710200E5710200C9830200E5710200DA
:10607000E5710200E5710200E5710200E5710200C0
:10608000E5710200E5710200E5710200E5710200B0
:1060900065870200E5710200E5710200E57102000A
:1060A000E5710200E5710200E5710200E571020090
:1060B000E5710200E5710200E5710200E571020080
:1060C000E5710200E5710200E5710200E571020070
:1060D000E5710200E5710200E5710200E571020060
:1060E000E5710200E5710200E5710200E571020050
:1060F000E5710200E5710200E5710200E571020040
:10610000014B1B685B68184700000020014B1B68AF
:106110009B68184700000020014B1B681B6918474B
:1061200000000020014B1B685B691847000000203D
:10613000014B1B689B69184700000020014B1B683E
:10614000DB69184700000020014B1B681B6A1847D9
:1061500000000020014B1B689B6A184700000020CC
:1061600030B4044C9DF8085024680295E468A446B5
:1061700030BC6047000000206B63020071630200C6
:10618000736302009963020077630200A363020055
:106190007D630200AD63020083630200B963020005
:1061A0008F63020093630200856302008B63020029
:1061B000A9630200B363020030B50346114890F9A9
:1061C0001C209A4219DD90F924209A4217DA9A1A73
:1061D000846AA05C0C4A15569D420DD00E320029EF
:1061E00018BF01309442C0B206D129B1013BDBB2E5
:1061F000012B01D80130C0B230BD0D20FCE70020DA
:10620000FAE700BF080300206CD3020008B5054B75
:1062100093F91C30984203DAFFF7CEFF024B1B566E
:10622000184608BD080300206CD3020008B5184BBF
:1062300093F82C20FAB9012283F82C20154A126811
:10624000A2F10800082803D813490141C90709D55C
:10625000911F092910D9013212D04FF4DF71742037
:1062600000F034F80D4A9A62D8221A6283F824208A
:1062700008229A611A7708BD094A0A41D207ECD46C
:10628000084A9A62D8221A6283F824200422F0E78E
:1062900008030020B8040020DEFEFFFFA7D30200A1
:1062A000EEFCFFFF7AD30200BFF34F8F0549064B88
:1062B000CA6802F4E0621343CB60BFF34F8F00BFA4
:1062C000FDE700BF00ED00E00400FA051FB572B65F
:1062D000134B5D6895B9FFF7E7FF2346B2FBF6F273
:1062E0005C1C002AF9D104AEDCB256FA83F303F841
:1062F0000C2C0A2234B901A8A847ECE70246002377
:106300000A26EDE7631E04AEDCB256FA83F3B0FB57
:10631000F2F602FB1600303003F80C0C3046E9E7C9
:10632000800400204FF08052034BD2F830111960E6
:10633000D2F834215A607047B804002008B5FFF73E
:10634000F1FFBDE80840FFF771BF801A00F30700B6
:1063500038B540B20D4659B21446FFF757FF002337
:1063600028706B70204440B238BD00230360704732
:106370007047002070474FF0FF3070474FF0FF30FC
:10638000704770474FF0FF30704700207047002083
:1063900070470023037070479DF800300022FFF71C
:1063A000D4BF4FF0FF307047002070474FF0FF30F0
:1063B00070474FF0FF3070477047000010B503463C
:1063C000EFF31184402282F31288BFF36F8F054AE6
:1063D0001068516803C39068186084F31188BFF394
:1063E0006F8F10BD5402002007B5404200F00C0032
:1063F000074900220A5043180649C3E901220C222A
:1064000001440092044806F069FB03B05DF804FB08
:1064100090070020780700200400002030B50478A1
:10642000012C85B0054609D10269254B9A4207D057
:106430000C339A4205D0234805F0A7F905B030BDCA
:10644000002484F00100FFF7CFFF10B11E4805F0D3
:106450009CF91E48644204F00C042044FFF7AEFF90
:106460006A680C2AE7D12C692068616801AB03C314
:10647000A06818609DF80430A52BDCD19DF805308C
:10648000032BD8D1124C237833B1124901A806F05E
:10649000B8FD08B91048CFE710480022002301A931
:1064A00006F071FC08B10E48C6E701AB03CB094A00
:1064B00010601868906001230A4851602370BBE7A0
:1064C00090070020C0070020BC07002078070020AC
:1064D000540F0020550F0020B8070020BC020020F8
:1064E000B4070020C40700207FB52348234C4FF099
:1064F000FF324FF0FF3304F057FA2148214D4FF09F
:10650000FF324FF0FF3301A904F0F6F81E480026D1
:1065100004F070FABFF35B8F54E8003F44E8006278
:10652000002AF9D1BFF35B8F02F058FE0C232B70C9
:1065300001AB03CB154A6E70106018689060501F55
:10654000EE70516002F056FD50B90F484222002310
:1065500004F02AFA40B10E4805F017F902F03EFEA9
:10656000642006F06BFBD1E7BFF35B8F2368BFF3BA
:106570005B8F002BC1D1F3E7E4020020C8070020A5
:10658000BC020020860F0020F40200208B0F0020A8
:10659000A80700207FB50378012B21D0022B08D15A
:1065A000294C2A4E651D284802F0CEFD30B304B0B8
:1065B00070BD002BFBD1BFF35B8F254B012253E84D
:1065C000001F43E800200028F9D1BFF35B8F21486A
:1065D00005F0DBF8204804B0BDE8704004F0B0B925
:1065E0001B4BBFF35B8F002253E8001F43E80020E2
:1065F0000028F9D1BFF35B8F1848E9E723780C2B0B
:10660000D1D12868696801AB03C3A86818606379B1
:106610005A2BC8D1A379032BC5D1EFF311824023A4
:1066200083F31288BFF36F8F40F25A33ADF8043012
:1066300001AB03CB306018687160B06082F31188E1
:10664000BFF36F8FAFE700BF610F0020540200203F
:10665000C8070020B0070020F4020020AC0700208B
:10666000F0B52F4A2F4B89B0D3600C23537440F2FE
:1066700001130126538208252B4B168010461672F3
:106680009572536002F0ACFB0446002844D12748C1
:1066900002F0D6FD044600283ED1254802F0EAFD6E
:1066A0000446002838D12348294602F0FBFD044661
:1066B00090BB502002F01CFE044668BB1E4F0246F1
:1066C0003146042000F09AFC0FCF01AD0FC597E8CA
:1066D0000700234685E80700184A1948ADF8184016
:1066E00001A98DF81A6006F0D1F90446A0B9154841
:1066F000FFF764FE1448FFF761FE2046FFF774FEC3
:10670000044648B9114804F01BF94FF0FF314FF02F
:10671000FF3006F0CEFBF8E7204609B0F0BD00BF21
:1067200024000020C201010095650200ACD50200E2
:10673000A8D50200A0D5020050D302001D640200BB
:10674000040000207807002084070020E4020020D5
:1067500080B505460E461746984604F005FC0346EC
:1067600000F052FDDFF81890044649F80030424628
:1067700030463946A84754F8090000F0E1FC00BF54
:10678000080000002DE9F047058B0446280717464E
:106790000CD501290CBF45F0100545F020052583D7
:1067A00087F31188BFF36F8FBDE8F087022905F0EA
:1067B000070540F09480204605F060F8052864D86D
:1067C00001A353F820F000BFA1670200DF680200B8
:1067D0008B6802004D680200676802007968020059
:1067E00001F007035A1F012A1FD8002221F00701D8
:1067F000062BD4F8008089B2C4E9002209D14346AF
:1068000003E0628B013262831B68002BF9D141F0F7
:1068100002012183204605F031F84FF000090028DD
:106820006DD041F02001218369E0042B0AD121F0D1
:10683000070189B22183204605F020F810B141F00C
:10684000200121834FF00008C14658E02369D3F8A6
:106850000090238B23F0070343F0060323834FF0BC
:10686000000846464BE02369D3F80490238B23F0BD
:10687000070343F00403F1E72369D3F80890238B5F
:1068800023F0070343F00503E8E74FF00008C14693
:10689000E7E7012243F00803238387F31188BFF35E
:1068A0006F8F002A3BD1B8F1000F4AD1B9F1000F28
:1068B00002D02D492046C847EFF31187402383F3C8
:1068C0001288BFF36F8F238B23F008039BB22383BF
:1068D000D9063FD523F01002228303F0070566692D
:1068E000218B002EBFF67CAF0023D4F8008021F06E
:1068F0000701C4E9003341F0010121839946238B4C
:1069000003F0070AAA4502D0A268002AC1D1B8F153
:10691000000F02D1B9F1000FDAD00022BAE7A16866
:106920000029C0D00D680029BDD04F6833465246BB
:106930002046B8471DB12B6829461D46F3E72B4674
:10694000FAE74146334652462046D8F8008004F024
:10695000C1FFA8E79A067FF523AF23F02002228328
:1069600003F0070527E700BF01B90200014B0360F0
:1069700000207047E8D30200014804F0A5BD00BF25
:10698000E8D3020038B5044618B90F4B0F485B68CE
:1069900098476168B1F5683F10D0B1F5680F0DD028
:1069A0000B4DA9420AD011F46861206807D0014656
:1069B000084806F099F900232360656038BD142269
:1069C00006F017FBF9E700BFD4010020C0D5020094
:1069D0002C5F5CA9CC0C002008B520B34368B3F54C
:1069E000683F10D101220368BFF35B8F53E8001F9B
:1069F000002903D143E800200028F7D1BFF35B8FC3
:106A00000DD1002008BD094A93420AD000684FF01A
:106A1000FF324FF0FF3303F0D1FE0028F1D00448DD
:106A2000F0E70448EEE76FF4E040EBE72C5F5CA989
:106A3000E98FFFFFEA8FFFFF08B5D8B14368B3F5D0
:106A4000683F10D100220368BFF35B8F53E8001F3B
:106A5000012903D143E800200028F7D1BFF35B8F61
:106A60000BD1002008BD074A934208D0006803F00C
:106A700017FFF6E76FF4E040F4E70348F2E7034856
:106A8000F0E700BF2C5F5CA9E98FFFFFEA8FFFFFF3
:106A900010B5044618B91D4B1D485B6898476368DC
:106AA000B3F5683F2FD0B3F5680F2CD0194A934245
:106AB00019D1236803BB18484FF0FF324FF0FF3362
:106AC000214603F087FD08B923681BB90F4B134813
:106AD0005B68984720681422002106F08AFA4FF478
:106AE0006863636008E0B3F5680F0DD83A2B03D0F4
:106AF00040F6BA629342DED1206806F053F963682B
:106B000043F03A03636010BD054AF3E7D401002067
:106B1000C0D502002C5F5CA9CC0C0020E6D5020099
:106B20003A00003A08B5064906484023142206F008
:106B3000CEF8BDE808400449044804F037BD00BF62
:106B4000CC070020CC0C0020F0D3020004D40200BB
:106B500008B50348034A0021121A04F0AFFF08BD2C
:106B600008030020541200200748084A084908B5C5
:106B7000121A04F0A5FF0748074A0849BDE8084073
:106B8000121A04F09DBF00BF000000200403002083
:106B900098D60200000000200000002098D60200D5
:106BA00030BFFFF7FDBF00BF2DE9F0410B4EDFF80E
:106BB000308006EB0807CC1B0546324609492046C3
:106BC00006F009FAA01942460021083C06F011FA25
:106BD0002C6707F10800BDE8F08100BF000000004D
:106BE0000400000048D3020070B5264B15469A6A8F
:106BF00012F0100F9A6A14BF1124102412F0080F1B
:106C00009A6A18BF1224920706460AD5586B9A6AE8
:106C1000140634D519B19A6A22F080029A621324BC
:106C200001E06FF01500174B9A6A12F0010F9A6A93
:106C300018BF142412F0200F9A6A18BF1524D20628
:106C400002D49B6A9B070AD50E4B5B68190506D5D3
:106C5000314600F02BFA10B180F309880224094B69
:106C60009A6A920642BF5A6A22F400525A629A6A9B
:106C700042F0FF029A6200232B70204670BD6FF035
:106C80001500CCE700ED00E0134B9A6A12F0007F8C
:106C90009A6A14BF1E201D2012F0807F9A6A18BFC6
:106CA0001F2012F4002F9A6A18BF212012F4802F9F
:106CB0009A6A18BF222012F4003F9A6A18BF232054
:106CC00012F4803F9A6A6FEA02426FEA12429A62B5
:106CD00018BF2420704700BF00ED00E010B5184B2E
:106CE0000246986A9C6A10F4805F14BF1720162031
:106CF00014F4006F9C6A18BF1820A40508D5986A80
:106D0000000404D51AB19A6A22F400429A6219204A
:106D10000B4B9A6A12F4806F9A6A18BF1A20D20538
:106D20000CD49B6A13F4005F18BF1C20044A936ABA
:106D300043F47F43936200230B7010BD1B20F5E7E3
:106D400000ED00E0F0B5494B5B688BB00446C3F33F
:106D50000803002585F31188BFF36F8F02F07F4091
:106D6000B0F17F4F11D102F00C0008280DD01007B0
:106D70004CBF0C4601250022033B8DF80720032B56
:106D800005D8DFE803F024686C652C46F3E70023A0
:106D90009DF80720CAB902AE04F120072068616897
:106DA000324603C20834BC421646F7D1099A002D78
:106DB00059D0C2F3080121B96FEA52226FEA422288
:106DC000099202A9184604F07DFE0BB0F0BD274BD6
:106DD000DA6A9107DBD4DA6A002AD8DBDA6A520071
:106DE000D5D55A69A16942F480725A61BFF34F8FB9
:106DF000BFF36F8F31F8022C596921F4807159610A
:106E0000BFF34F8FBFF36F8F02F47F43B3F55F4F34
:106E100004D1D2B2022A01D12368B9E7134B9A6A8E
:106E2000D2B23AB10DF1070201212046FFF7DCFE94
:106E30000346ADE79A6A12F47F4F05D00DF10701C2
:106E40000120FFF74BFFF3E79B6AB3F5803F9ED32A
:106E5000FFF71AFFECE70DF107020021E5E70DF15E
:106E600007010020EDE76FF30802A9E700ED00E05D
:106E7000044B5A6942F010025A615A6922F0080222
:106E80005A61704700ED00E0EFF30880EFF30981ED
:106E900001B57246FFF756FF01BD00BF002080F329
:106EA0001488BFF36F8F0F4880F3088802F030FD1D
:106EB00000200D490860BFF34F8F00F02BF84020F1
:106EC00080F3118809484FF40461401880F3098861
:106ED000EFF314800221084380F31488BFF36F8F0F
:106EE00000F0B4F88026002094ED00E0C0180020E7
:106EF0000749D1F890200023C2F307221846934295
:106F000000DB7047C1F89830C1F8A0000133F6E704
:106F100000ED00E008B572B6002383F31388FFF795
:106F2000E7FF144B4FF0FF32C3F88020C3F88420F2
:106F3000C3F88820C3F88C20C3F89020C3F89420AD
:106F4000C3F89820C3F89C20C3F88021C3F884219B
:106F5000C3F88821C3F88C21C3F89021C3F8942189
:106F6000C3F89821C3F89C2162B6BFF34F8FBFF3DB
:106F70006F8F08BD00E100E01EF0040F0CBFEFF3BF
:106F80000880EFF30980816911F8021C0229FFD003
:106F900001B5724604F09CFD01BD00BF40B200285F
:106FA00007DB044A4109012300F01F00834042F837
:106FB0002130704700E100E040B200280CDB4309BB
:106FC000064900F01F0020330122824041F82320AF
:106FD000BFF34F8FBFF36F8F704700BF00E100E03A
:106FE000054B420900F01F0053F82220012303FA49
:106FF00000F01040704700BF00E100E040B2D3074E
:1070000054BF023100210028ACBF00F16040074AA4
:107010004FEA4113ACBF00F5614000F00F00DBB256
:10702000B4BF135480F80033704700BF14ED00E084
:10703000044B054A23F07F039360BFF34F8FBFF3E8
:107040006F8F70470060020000ED00E008B5FFF7A9
:10705000EFFF074AD2F8883023F47003C2F8883073
:10706000FFF776FDFFF780FD00F0B0F803F038FA87
:1070700000ED00E042F8203C009B42F81C3C0A492D
:10708000019B42F8183C029B42F8143C21F001019C
:107090004FF0807342F8043C42F8081C0023203A69
:1070A00002654367704700BF51670200094A034603
:1070B000906870B113F1160F006E05D0A0F1400278
:1070C000934205D3834203D2814228BF00207047F8
:1070D00000207047E00E002008B515460B4A0C4B07
:1070E0009060026F1A600E4600F0A0F82C4686F3FE
:1070F00009880020034B98472046002100220023E6
:10710000014C2047F5BA020051670200E00E002052
:10711000E80C0020014B10221A61704700ED00E0DE
:10712000054B5A699B689A421FBF044A536843F053
:1071300080535360704700BFE00E002000ED00E078
:10714000084B9B6883420BD1EFF3058343B1064B99
:107150005A6842F080525A605A6A22F400425A62D7
:1071600003F008BFE00E002000ED00E014498A683B
:107170004FF030001044EFF3098C80E8F01F4020FE
:1071800080F31288BFF36F8F0E4F4FF000664A698D
:107190008A603E60106F0C4C2060506F0023536774
:1071A00080F3118804B5104600F040F8BDE80440B3
:1071B00002F1300090E8F01F8CF30988704700005E
:1071C000E00E002004ED00E0E80C0020044800235D
:1071D0004021C2180133302B82F80013F9D17047D7
:1071E00000E100E008B5EFF30583064A103B02EB2F
:1071F000C30152F8330049688847BDE80840FFF7EB
:107200008FBF00BF34D10200014800687047000002
:10721000E80C0020024B034A0348012100F076B835
:10722000000004200000002014D40200036E054A70
:10723000403B1360044B4021C2E901131046012179
:1072400000F06EB8EC0C002000000B15084AC2F8E4
:1072500098000B6823F01F03034343F01003C2F8A8
:107260009C308B6843F00103C2F8A030704700BF28
:1072700000ED00E02DE9F043DFF8608085B00E46B8
:107280001F4604464FF00009B14523DA6068D8B1C3
:107290003FB1411E08421BD11F2819D9236819424A
:1072A00016D12368019304F048FCA36803430393B9
:1072B000D8F89050C5F30725D0B2013DA84207D8B1
:1072C00001A9FFF7C3FF421C09F101090C34DBE7F8
:1072D0006FF01502104605B0BDE8F08300ED00E048
:1072E000044B0522C3F89420BFF34F8FBFF36F8F79
:1072F000704700BF00ED00E0BFF35F8F024B00223C
:10730000C3F89420704700BF00ED00E010B5034CB7
:1073100001232278FFF7AEFF207010BDAB0F0020D5
:1073200008B50B4A00231278FFF7A4FF10F1160FDF
:1073300007D0084A0021D2F89030C3F307239842BF
:1073400000DB08BDC2F89800C2F8A0100130F2E7D7
:10735000AB0F002000ED00E02DE9F0435A4B5B4DF0
:10736000D3F890302C68C3F307239C4285B000F219
:10737000A780FFF7C1FF00200C2684421AD1544E8B
:10738000DFF8449134706846FFF7F0FA514C524DE3
:1073900080460027B84514D133784B490020D1F8F6
:1073A0009020C2F307229342C0F28480FFF798FF37
:1073B000002045E0696806FB0011FFF747FF013038
:1073C000DBE7009800EB07114FEA071CCB6823406E
:1073D000B3F5000F4DD00AD8B3F5001F33D0B3F585
:1073E000800F3BD0B3F5801F13D00137D2E7B3F144
:1073F000007F47D0B3F1805F4DD0B3F1807FF4D1EF
:1074000050F80C3088684A6804F097FB40F08870A8
:1074100009E050F80C3088684A6804F08EFB40F0B0
:10742000885040F43020CDE901230390D9F8903002
:107430003078C3F30723013B984234D96FF015002D
:1074400005B0BDE8F08350F80C3088684A6804F055
:1074500074FB40F0885040F40020E4E750F80C3012
:1074600088684A6804F069FB40F0007040F400301E
:10747000D9E750F80C3088684A6804F05EFB40F0A9
:107480008270D0E750F80C3088684A6804F055FBE9
:1074900040F48020C7E750F80C3088684A6804F050
:1074A0004CFB2843BFE701A9FFF7D0FE3378013337
:1074B00033709AE7C1F89830C1F8A00001336EE745
:1074C0004FF0FF30BCE700BF00ED00E020D4020029
:1074D000AB0F00200000F0FF0000021108B50649C4
:1074E000064821F00701C1F1005202F5802204F0A4
:1074F00084F9002008BD00BFC7320020F80C00202E
:10750000024B0122C3F840250020704700E00140F3
:1075100048B1054B054A1B68B3FBF2F35843044BD3
:1075200043F0010318477047C001002040420F009C
:10753000E0D3020008B5054A054B136010463F230F
:10754000536002F0C1FA002008BD00BF040D002006
:10755000FFFF0700084B70B5C31A0D4607499B1083
:10756000044659430648402204F000FB2B460146DE
:107570002046BDE870401847200D0020B76DDBB6EF
:1075800094D0020073B50C4C0C4A4023041B0093AA
:107590000D460B460A49A41061430646094804F00B
:1075A00010FB014628B130462B4602B0BDE87040C2
:1075B000184702B070BD00BF200D002031BC020092
:1075C000B76DDBB694D002000022F8B50121054664
:1075D0001046FFF713FD104802F0A4FA0446B8B9AC
:1075E00002F0C0FA2F690D49384604F096F9031EDF
:1075F00009DB01263E642D69084905F11C0004F0F1
:107600008CF9031E02DA1C462046F8BDEE64FBE747
:107610006FF00404F8E700BF4977020040D402008D
:107620001FB500220123CDE902236C46074A6B46B1
:10763000CDE9004404F0F5FA28B94FF48042002364
:10764000684603F0B1F904B010BD00BF43BC0200AE
:1076500010B5EFF31184402383F31288BFF36F8FCB
:10766000074A136823F00201DB07116002D40120EE
:1076700004F051FD84F31188BFF36F8F10BD00BF7C
:10768000700D002030B4104B0C2202FB0033014679
:107690000020D3E90E529863EFF31180402484F365
:1076A0001288BFF36F8F1C6C04F0C00444F0020416
:1076B0001C6480F31188BFF36F8F1DB12B46034804
:1076C00030BC184730BC7047200D002094D0020019
:1076D00010B4EFF31180402282F31288BFF36F8F52
:1076E00017490B6843F0020413F001030C601AD031
:1076F0004FF08043D3F80C14D3F80C3413F001038B
:1077000011D0EFF3118182F31288BFF36F8F0D4A0E
:10771000136C03F0C00343F00203136481F3118878
:10772000BFF36F8F012380F31188BFF36F8F1BB1FD
:1077300010BC0020FFF7A6BF10BC012004F0E3BC82
:10774000700D0020200D002010B1012804D07047DA
:10775000034B1B6C5B0701D1FFF794BF704700BF61
:10776000200D0020024AC3B21C2000FB03207047FA
:10777000200D00202DE9F0413849BFF35B8F804692
:10778000012251E8003F41E800200028F9D1BFF371
:107790005B8F33B9324933484B60CB608A6004F069
:1077A000CFF808F1FF33012B4BD8B8F1010F07D107
:1077B0004FF08043D3F81C3403F00303012B40D077
:1077C00005F003FB054658B1EFF31186402383F320
:1077D0001288BFF36F8F0125234F4FF080441EE0C6
:1077E000224B1B78002BEFD04FF080430222C3F8CE
:1077F00008230646F0E735B3304604F08FF9D4F895
:10780000183563B9D4F804214AB1C4F80431D4F866
:1078100004310123C4F81835C7F88031A360D4F8C7
:107820001824D4F81834D203E5D503F00303012B50
:1078300002D0B8F1010FDED155B186F31188BFF344
:107840006F8FBDE8F0810021212005F032FBD6E7E3
:107850004FF080430222C3F80423F2E71C0D0020FE
:107860000C0D00203C0D002000E100E05212002031
:10787000024B0B6001231360704700BF740D0020A2
:10788000004870475CD4020010B50122114606483A
:10789000064C05F08EFA04F042FF206004F03BFF36
:1078A0006060002010BD00BF7C0D0020740D002022
:1078B0004FF08042D2F81015D2F8103501F01E01B9
:1078C00023F01F030B4343F00103C2F81035024BB2
:1078D00000221A70704700BFAC0F00204FF0805399
:1078E000D3F83031082B20D14FF08042D2F8101558
:1078F000CB071AD5D2F8103501F01E0123F01F0373
:107900000B43C2F81035D2F808315BB1D2F810350C
:1079100023F01F030B4343F00103C2F810356FF04F
:107920008B007047024B01221A700020704700BF85
:10793000AC0F00202DE9F0410D46164604F0EBFE99
:1079400031460746284604F08CF978B3B5FBF7F3C7
:1079500007FB135353BBB6FBF7F407FB14642CBBB4
:10796000B7421DD84FF0FF324FF0FF331148DFF818
:10797000488003F019F804F0CEFE0746FFF7AEFF8B
:10798000044680B9284602F089FB98F800300BB114
:10799000FFF78EFFF61B3D44F0D1064802F0D0FF02
:1079A0002046BDE8F0816FF08B04F6E76FF0150418
:1079B000F6E700BF7C0D0020AC0F00202DE9F84356
:1079C0000E463046194617461C4604F04AF988B35D
:1079D00046EA040515F003052CD1BCB11748DFF8C1
:1079E00060904FF0FF324FF0FF3302F0DDFF24F0E4
:1079F0000304AC4206EB05080BD1124AD2F800345E
:107A0000DB07FBD500240D4802F09AFF2046BDE8B5
:107A1000F883FFF763FF50B97959404602F05AFBEB
:107A200099F800300BB1FFF743FF0435E1E76FF041
:107A30008B04E8E76FF01504E8E700BF7C0D002039
:107A4000AC0F002000E0014070B546680546B06804
:107A500090B104F0FFFD014670B9B06804F0DEFD9E
:107A6000044678B902460949B06804F0C1FD2246CF
:107A700005210620FFF7C2FA28460549BDE87040F7
:107A800003F0F8BF6FF0040070BD00BF197C020066
:107A900059BD02002DE9F043476840F20636D00692
:107AA0003B7C87B002EA060654BFC2F3401C4FF08D
:107AB000030C01F01F05B6F5837F144645EA431514
:107AC0008DF803C044D00DD8062E16D005D8A6B127
:107AD000022E3FD06FF0150037E0B6F5807FF9D168
:107AE00001260AE040F20222964235D0B6F5407FE8
:107AF00034D0B6F5007FEDD10226220330D57A6866
:107B000001238B40C2F80835B868A0BB05F01F03FD
:107B10006D092DD0012D77D13E4A02EB8302C4F3CB
:107B20000043D2F8001783F00103C4F3404444EA51
:107B3000430421F4E16144EA8C0421F0070144EAA2
:107B400006230B43C2F80037002007B0BDE8F083DE
:107B50000726D2E70426D0E70526CEE70326CCE7A2
:107B6000630341BF01237A688B40C2F80C35CBE731
:107B70004FF0A042D1E70DF10202294604F03BFD8F
:107B800014F4403F80460CD1B868294604F068FDE3
:107B9000B8F1000FD8D19DF80210B86802F07AF958
:107BA000D2E74FF0000901ABCDE90199CDE90439E5
:107BB000CDF80C90B86803AA294604F0F1FB4845BB
:107BC000C2DB14F4003314D0C4F300449DF8033036
:107BD0008DF80E3084F001048DF80C608DF80D40A6
:107BE000B8684B4603AA294604F08DFC0028CFDA7A
:107BF000AAE7CDE904330DF103030393B86803AAA0
:107C0000294604F0CDFBF1E703F5E07350F823308B
:107C1000FFDE00BF00030050420970B5034602D0EA
:107C2000012A17D070BD0D4E326951680029F9D074
:107C300003F01F0301250C689D400029F2D08A68DB
:107C40002A4002D04B68304698472CB12368214621
:107C50001C46F2E7024EE7E72346F8E7D4D00200DD
:107C6000B4D00200F0B544681646A068227C01F04A
:107C70001F0587B045EA421500286DD0B6F5001FF4
:107C800004D1294604F03FFD002056E06268607C84
:107C9000C2F8240501AA0020B6F5800F01905060BB
:107CA00037D1B3F1007F14BF052304238DF80430CE
:107CB0000023CDE904230393E36823FA01F111F0D3
:107CC00001010DF103073AD1B6F1A07F37D105F0DC
:107CD0001F036A0903F5E07326D0012A3FD1214A28
:107CE00052F82330DB072AD4A0683A46294604F02C
:107CF00082FC16301BD00297A06803AA294604F024
:107D00004FFB002819DBA0680122294604F0AAFCD9
:107D1000BAE7B3F1C06F05D0B3F1007F14BF012300
:107D20000223C3E70323C1E74FF0A042D8E7A068CE
:107D3000394602F0B5F80028DDDA07B0F0BDA068DA
:107D40003A46294604F057FC0028D5D19DF8031087
:107D5000A06802F09FF8CFE76FF08500EDE751F8DB
:107D60002330FFDE00030050036803F01F025B09AD
:107D7000026004D0012B034818BF002070474FF069
:107D8000A0407047000300502DE9F04F00EB81093F
:107D9000594985B01546834640F2FF1AD94503D1AB
:107DA000002005B0BDE8F08FDBF80020C2F3C72843
:107DB00018F00808C2F3C320C2F3080440F095800D
:107DC0004E4B120E1E5C544508BF4FF0FF34192A6B
:107DD00000F28E80DFE802F00D381D2E20262E2ABC
:107DE0002E31383B428C8C8C8C8C8C8C8C8C4580CE
:107DF0008386C5F80C45621C6BD003A80394FFF77B
:107E0000B3FF039A012707FA02F2C0F808253846A3
:107E10003DE0C5F80845EEE7C5F808450027601CB9
:107E20002AD156E0C5F80C450127F8E7C5F8084502
:107E3000002705E0C5F81045FAE7C5F80C4501270D
:107E4000631C46D0002022E0C5F81445F0E7C5F8D1
:107E50000845002EECD100270626F1E7C5F80C45B1
:107E6000F7E7C5F86045BBF80220671C02F0010285
:107E70002FD0002AC1D1012703A80394FFF774FF74
:107E8000039A8446012000FA02F2CCF80C25DBF8B4
:107E90000020019202F4004CBCF1000F08BF8046A4
:107EA00003A818BF01270394FFF75EFF039C019A04
:107EB00000EB8400C2F3412CD0F80047320242EAC2
:107EC0008C0242EA08020C40224342EA4702C0F810
:107ED00000270BF1040B61E7C5F86445C3E7C5F85B
:107EE0006845C0E7C5F86C45BDE76FF0150058E779
:107EF0006FF0850055E700BFF0F8FCFF79D602006F
:107F0000036803F01F025B09026004D0012B0348E1
:107F100018BF002070474FF0A0407047000300508A
:107F200010B50446002201211C20FFF767F82369E1
:107F3000064A6168184604F078FC002805DB2046F4
:107F40000349BDE8104003F095BD10BD87BD020098
:107F5000D1BE020070B5012383400F4ABFF35B8F8F
:107F6000DC4352E8001F01EA040542E80056002EF7
:107F7000F7D1BFF35B8F4FF4803282400748C0F8DF
:107F80000823BFF35F8FBFF36F8F03EA0100003850
:107F900018BF012070BD00BFA80D002000100140D7
:107FA00070B41249D1E90034D01AC31844F1000466
:107FB00022F07F46C1E90034A6F50013B3F5400F67
:107FC00009D20B4B1B681A0A1B069C19094B42F17C
:107FD0000005C3E90045EFF31181402383F31288C4
:107FE000BFF36F8F70BC03F0A1B900BFC8050020BC
:107FF000AC0D0020D005002011B3BFF35B8F01232F
:10800000104A834052E800CF4CEA030C42E800C11A
:108010000029F7D1BFF35B8F0B4A4FF480338340C5
:10802000C2F80433094BBFF35B8F1B68BFF35B8F50
:10803000C340DB0742BF064B4FF40032C3F80021B8
:10804000704700BFA80D002000100140A40D0020C3
:1080500000E100E00D4B1868010A0006BFF35F8FD6
:108060000B4BD3F80435181841F10001B3F5801F0C
:108070000AD2084BD3E90023904271EB030303D2E9
:1080800010F1807041F10001704700BFAC0D00207D
:1080900000100140D00500202DE9F04F85B01646B4
:1080A0001F469DF840A00446FFF754FF0190FFF7DC
:1080B000D1FFB04271EB07035ED23E4B301A67EB43
:1080C0000101984271F1000109D36FF015052046B6
:1080D0000199FFF791FF284605B0BDE8F08F364BB8
:1080E00003EB0413D3E902239F4208BF964254D006
:1080F00032494FF4803804F1500508FA04F8AD0015
:10810000C1F848832046ADB203F031FF26F07F4B23
:1081100005F1804504F5A87305F58835DC464FF078
:1081200003090293029A2CF07F4341F82230C1F8F0
:108130004483D1F80435224A6FF00200C01A60442B
:1081400020F07F40904228D9286868B1D1F80435E2
:108150000393A3EB0B0020F07F40B0F5000F1CD978
:10816000204603F004FF039BBAF1000FADD109EBE9
:10817000030C09F10109D5E7BAF1000FA5D10123DC
:10818000104ABFF35B8FA34052E8000F184342E848
:1081900000010029F8D1BFF35B8F07490E98230136
:1081A00001EB0412C8500F9B5360C2E9026700251F
:1081B0008DE700BF01008000B805002000100140DD
:1081C000FDFF7F00A40D00207FB51C4C1C4BC4F8A4
:1081D0000833C4F848331B4B00254FF0FF304FF0F5
:1081E000FF31C4F80855C3E902014FF48033C4F8E5
:1081F0000433154B02264FF400320121C4F8046306
:108200001120C3F880212A46FEF7F8FE1120FEF760
:10821000C5FE0E4A0123A360236013600C4B0D4A78
:108220000093CDE9015500232846FFF735FF30467E
:10823000FFF7A0FA284604B070BD00BF001001404F
:1082400003000F00B805002000E100E0A80D0020A9
:10825000A17F0200FFFF7F002DE9F7432B4CD4F8EC
:10826000043399070BD5D4F8043143B1284A0023CD
:10827000C4F80431D4F80431136801331360D4F81E
:108280000433DA0323D5BFF35B8F224B53E8002F6F
:1082900022F0010143E800100028F7D1BFF35B8F03
:1082A000D30702D4D4F840318BB10025C4F8405133
:1082B000D4F84031FFF7CEFEEFF3108272B6164BC2
:1082C000D3E90267B042B94104D282F3108803B007
:1082D000BDE8F0834FF0FF384FF0FF39C3E9028962
:1082E000D3E900101D604FF48033C4F84833C4F85C
:1082F0004051D4F8403182F310880029E7D0009033
:1083000032463B4628468847E1E700BF001001405F
:10831000AC0D0020A40D0020B805002030B5431C92
:10832000124C85B005D08442A8BF0446012CB8BFCA
:108330000124FFF78FFE0E4B0C4DD3E90013401ABA
:10834000B0F5000F10D22218AA4228BF2A465218B0
:108350004FF0000007490091CDE9010043F100030F
:10836000FFF79AFE05B030BD2A46F0E7FFFF7F0019
:10837000C8050020A17F020008B5FFF76BFE024B85
:108380001B68C01A08BD00BFC8050020042812D809
:10839000DFE800F00D03110D0300084BA0221A6066
:1083A000074B1872074BC3F8100501207047034BA9
:1083B0004FF49672F3E70020704700BFB40D002021
:1083C000A40E002000100040014804F017BC00BFBC
:1083D000B00100201FB5114B93F90A001B7A013B35
:1083E000DBB2032B9CBF0E4AD25C0E4BDB7C4FF002
:1083F000000188BF0522009103F5166303A9FDF76C
:10840000AFFE9DF80D00FDF7A5FE9DF80C20064B74
:10841000C3F80C2505B05DF804FB00BFA40E0020D6
:1084200081D60200980100200010004038B50028D5
:108430001349144840F2044508BF4FF48065FDF726
:108440006BFE044648B9FDF75BFE204600F098FF3E
:108450000D4B1B68C3F8005238BD0C4BDB7C002B66
:108460000B4B0CBF81222822C3F848250022C3F8F9
:108470004821D3F848214FF48022C3F80423E7E7CA
:108480003801002068010020B0010020A40E002067
:1084900000A00040B0F5A47F09D1054B1A68D2F8BE
:1084A000003223F4806323F00403C2F800327047E3
:1084B000B0010020837842781B0443EA022302784B
:1084C0001343C27843EA0253027943EA8253427962
:1084D00043EA0263827943EA8263C27943EA4273E0
:1084E000094AC2F81435837A417A1B0443EA01230E
:1084F000017A0B43C17A43EA0163017B43EA41639A
:10850000C2F81835704700BF001000401FB5044680
:108510000D220021684604F06CFD0A4B00930A4BC3
:108520005B7CE0B2013B8DF808008DF809008DF806
:108530000A30684601238DF80B30FFF7BBFF04B00B
:1085400010BD00BF00010100980100201FB51849AF
:108550000B7823B1012B07D005B05DF804FB05B003
:108560005DF804EBFFF7D2BF0022CDF809208DF8AB
:108570000B30104BCDF805205B7CCDF80120013B82
:108580008DF80A3020238DF808300B7A03228DF8FD
:108590000220012B4FF006028DF8002001D0042BA1
:1085A00002D101238DF805306846FFF783FFD3E73A
:1085B000A40E002098010020064BBFF35B8F53E808
:1085C000001F014343E80012002AF8D1BFF35B8F7C
:1085D000704700BFC00D002008B5084803F0E2FC5A
:1085E00058B10748436A0133082B28BF0023436270
:1085F000BDE80840283003F0E8BC08BD980E002014
:10860000700E0020F8B50646284803F0CBFC07287A
:108610000D4649DC264B274F1A78012A39D13B7881
:10862000C3F3050203F03F03202B3DD8224B196A08
:1086300053F821301A70204C2049236A54F8230043
:1086400010F8052B04F0C7FC236A54F823305E7041
:108650001B4B226AD3F8483554F8222003F07F03DD
:108660009370236A54F823301D71236A54F8232031
:108670007B78DB4303F00103D370236A0133082BBB
:1086800028BF002304F12800236203F0AAFC012084
:10869000F8BD094A116A52F82120597809B91170B8
:1086A000C9E75B7C1370C6E70020F1E76C0E002081
:1086B000A40E002005120020440E00200712002006
:1086C00000100040684620F007018D4601B5204BA0
:1086D000D3F80423D1060BD5D3F8102142B10022E0
:1086E000C3F81021D3F810311A4B1B6803B1984717
:1086F000174BD3F8042312071ED5D3F80C21DAB197
:10870000154A5278022A1DD1D3F80804134B597820
:10871000C0B2C1F34101FFF775FF38B10420FFF784
:108720004BFF0F4B4FF48012C3F80021084B00227F
:10873000C3F80C21D3F80C31FEF7F2FCBDE8014080
:1087400085467047034B1B68002BEFD09847EDE739
:1087500000100040B00D0020A40E002005120020E3
:1087600000E100E0684620F007018D4631B5144B6A
:1087700014481B68144D82B0019303F019FC2B6858
:108780000446B3B1C10704D500228DF80020684625
:108790009847A20705D501238DF8003068462B685D
:1087A0009847630705D502238DF8003068462B688B
:1087B0009847FEF7B5FC02B0BDE8314085467047EA
:1087C000B80D0020C00D0020A00E00202DE9F041C2
:1087D000614BDFF888815A6A614F98F8004053F87E
:1087E0002250604E3D60002C45D0012C6BD00124FE
:1087F0003B685D4D5A78C5F82C255B78012707FA50
:1088000003F3DBB2C5F83035584BDA7CC5F80825E0
:108810001433BFF35B8F53E8001F21F0010143E8DD
:108820000012002AF7D1BFF35B8FFFF7D3FD504B47
:10883000C5F804650222C3F880213846FEF7AEFB76
:108840000020C5F80401D5F80431C5F80801D5F8B1
:108850000831C5F81001D5F81031C5F80C012146D2
:10886000D5F80C3100F0C8FD2046FFF7DFFD414B85
:108870009F61BDE8F08198F811003480FFF746FE53
:1088800033782A79304662F3010300F8023B294627
:1088900011F8052B04F09FFB334B40F21B12C3F879
:1088A0000022C3F81041D3F810211022C3F804238A
:1088B000314BB8F80E201A60304B314A1A60314BF8
:1088C00004221A7093E7EA78002333801AB198F8EB
:1088D000124084F001042B79287831785B0003F092
:1088E0000603002A08BF43F00103727860F3050114
:1088F00022F00702134331702946737011F8052BDB
:10890000214804F068FB184B1C491E4AA4B140F2F0
:108910001B10C3F800021848B8F80E40046018484D
:108920000860042111700022C3F81021D3F810212F
:108930001022C3F804235AE740F21310C3F80002D0
:108940001248086003211170C3F81041D3F81021B8
:108950001022C3F804234BE7700E0020A40E002061
:108960009C0E0020271200200010004098010020DB
:1089700000E100E000400140BC0D0020B00D0020EF
:10898000A98A0200491200202912002091890200C0
:1089900010B5FDF7CDFB124B1B6801241C6100F0E4
:1089A00011FDFDF7B3FB0021084600F091FD0D4BD2
:1089B00020461C60FFF700FEFFF70EFE0A480B4B37
:1089C00003F0F0FA4FF4801220B909490C70C3F893
:1089D000002110BDC3F80021BDE81040FFF7F6BE2E
:1089E000B0010020B80D0020980E002000E100E04A
:1089F000491200200146C80708B506D5184803F0FB
:108A0000C2FA184B00BAC3F81C058A0706D51648E7
:108A100003F0B9FA134B00BAC3F820054B070AD587
:108A20001248104903F0AFFAC1F82405104803F0CA
:108A3000AAFAC1F828054FF08053D3F83021082A4C
:108A40000DD1D3F8343153B9054B0A485B7C052B63
:108A500018BF4FF07F40BDE8084000F05DBC08BD86
:108A600098010020001000409C010020A00100207F
:108A7000A40100200000FFFF08B5FDF759FB0749DE
:108A80000748FDF74FFB074B1A68D2F8003223F472
:108A9000806323F00403C2F8003208BD38010020CF
:108AA00080010020B001002070B501210020204C81
:108AB000204D00F00DFD00F085FCFFF7DDFF40F2DA
:108AC0001313C4F800321C4B1C4A1B680D33C2F848
:108AD0004035EB7C002BAB890CBF812128215B1A30
:108AE000C2F84435164B1B68002640F20222C3F838
:108AF0000022C3F84061D3F84021C3F84461D3F8A1
:108B0000443100F095FD00F06DFDC4F80C6128784B
:108B1000D4F80C3108B9FFF7F9FC0A4BC4F8043556
:108B2000094B0A4A1A600A4B05221A7070BD00BF31
:108B300000100040A40E0020B40D002000A0004052
:108B4000B001002005120020B00D0020B98B0200FA
:108B50004912002010B50A4C0A4A2368D3F844355C
:108B600000208133D36000F00BFC07490548FDF776
:108B7000D3FA20B9236840F20442C3F8002210BDA2
:108B8000B0010020500100203801002008B500F09D
:108B900019FCFDF7CDFA0320FDF7D6FA054B1A684C
:108BA000D2F8003223F4806323F00403C2F80032C9
:108BB00008BD00BFB0010020F8B54B4E4B4C4C4DEA
:108BC00000F068FDFDF7BAFAFDF7A0FAD6F80C310F
:108BD000002B3AD0D6F80034D90736D50120FFF75C
:108BE000EBFC2268EB899B1A424A03441360FFF7AF
:108BF000F3FC2B7883B1404B1A7892060CD0D6F850
:108C00002C05597800F00700C1F34101FFF7FAFC89
:108C100010B10420FFF7D0FC3848394B03F0C2F9FB
:108C200000280ADD2A7C012A07D04FF48012C3F8FD
:108C30000021BDE8F840FFF7C9BD324A012111709B
:108C40004FF48012C3F80021F8BD23682D4E2E4F3B
:108C50005A1E226063B93B68264A01241C61EB89D5
:108C6000022023441360FFF7A7FC254B3470E7E78D
:108C70001D4C0023C4F80031D4F8003140F21B131E
:108C8000C4F800322B7813B9687CFFF73FFC1F4B08
:108C9000C4F804351E4B1F4A1A6004233370FFF7D3
:108CA00099FBFFF757FF00F063FC3B68D3F84421C2
:108CB000BAB1D4F85035DBB2092BC5D0D4F8004195
:108CC000002CC1D1FFF762FF00F08CFC012120468F
:108CD00000F092FB0120FFF7A9FB0F4B01229A61E4
:108CE000B2E701221A60AFE700100040BC0D00207F
:108CF000A40E0020B80D002005120020980E0020C0
:108D000000E100E049120020B001002027120020FD
:108D1000B00D0020A98A020000400140F8B51D4CAA
:108D200023788BB32378012B31D01B4B1B4E0025AE
:108D30001D6000F01FFD336801271F61FDF7FEF97C
:108D4000FDF7F6F900F03EFB0320FDF7FDF9FDF716
:108D5000DDF9134B4FF0FF32C3F80052C3F808237C
:108D6000C3F81051D3F810211F61D3F81021002A45
:108D7000FBD0336800204FF0FF32C3F80002C3F885
:108D8000082301232370F8BD6FF00C00FBE76FF0A0
:108D90007700F8E749120020B00D0020B001002054
:108DA0000010004010B50C4C23789BB103F041F942
:108DB0001420FEF701F90120FEF7FEF80A20FEF765
:108DC000FBF8FFF7ABFF054803F001FF00F052FD91
:108DD0000023237010BD00BF49120020B001002005
:108DE000F0B5054685B0002870D06E4E33780BB1D3
:108DF000FFF7D8FF03F001F90446002868D16A4B59
:108E00006A681A60694A2B4605F11007154618680A
:108E10005968144603C40833BB422246F7D1186888
:108E200020602B7803B9AB746148624F03F0C0F83F
:108E300000212022604804F0DCF8604B002407F198
:108E400028001C605C60C7E9084403F0B1F85C4886
:108E5000C0E90844283003F0ABF85A490B46013406
:108E6000082C47F8043B03F12503F8D1564A54482F
:108E700000230133082B40F8042B02F12502F8D11E
:108E80000022524B10460132082A1960187198606E
:108E900001F1250103F10C03F5D14D4820220021F9
:108EA00004F0A7F8AB89B3F5D97F0FD9287AFFF77B
:108EB0006DFA2B78012B8CBF002000F001006B7A3B
:108EC000012B34D0022B06D0002B39D06FF01504C3
:108ED000204605B0F0BD3F4A4FF6FF71C2F83C1581
:108EE000C2F834353C4BC2F838350028EED0394F43
:108EF000687CFFF72BFB4FF0E733C7F81C354FF0CA
:108F00004333C7F82035354BC7F82435344BC7F801
:108F100028350023CDE90233324A334B33480193DD
:108F200001A903F040FE88B16FF00D04D0E7294A93
:108F3000FF21C2F83C15C2F8343540F20713D2E7DE
:108F4000244AC2F83C35C2F83435CCE700F0C8FBFF
:108F500004460028BCD100F009FC254B5860D7F826
:108F60005026EB7C22F001021343C7F8503601254E
:108F70002246022114203570FEF740F82246214691
:108F80002846FEF73BF8224602210A20FEF736F873
:108F90001420FEF703F82846FEF700F80A20FDF734
:108FA000FDFF95E749120020A00E0020A40E00202E
:108FB000C00D0020700E0020340F0020FD11002095
:108FC000440E0020D5100020AD0F0020E40D00203D
:108FD000C40D00200010004021100100E743C3230E
:108FE000A363E3139584020040420F00B001002008
:108FF00038010020F8B54D4E33780446002B00F0C0
:109000008B804B4D6B78022B02D14FF0FF30F8BDB7
:1090100010B96FF01500FAE703785A1E1F2A7ED8A0
:109020002A7812B96A7C9A4279D3424802F0BAFF90
:10903000072877DC6378072BEBD86A782B78002A2F
:1090400034D11BB96A7C23789A42E2D13A4B196A2F
:1090500053F82110224604F1240052F8047B41F811
:10906000047B8242F9D112780A70607833490A5C35
:10907000013202F003020A541A6A607853F822207F
:10908000095C11711A6A2B480132082A28BF002294
:109090001A6202F0A6FF6B782A7C134304D133785E
:1090A000012B01D1FFF792FB0020B0E7002BACD0E1
:1090B000234A00231146107910BB0C225343CF18CA
:1090C0000122CB583A71B860224604F1240152F8CB
:1090D000040B43F8040B8A42F9D112781A7001206C
:1090E000FDF76AFF6178174A52F8213073B942F8E8
:1090F0002170104802F075FF0120FDF74FFFCAE70D
:109100000133082B02F10C02D5D1C4E71A469B6843
:10911000002BFBD19760ECE76FF00C0077E76FF066
:10912000790074E76FF00B0071E700BF491200206F
:10913000A40E0020980E0020700E0020FD110020CB
:10914000E40D0020C40D002010B5214A127803461A
:10915000002A34D0002835D01E4802F023FF002812
:1091600033D01D4C626A54F8222012781A70616A5A
:1091700054F8211049785970616A54F8211091F916
:1091800002109970616A54F8211009791971616AA5
:1091900054F82110C978D970616A54F82110581D0B
:1091A000053103F018FF636A0133082B28BF002341
:1091B00004F12800636202F008FF002010BD6FF088
:1091C0000C00FBE76FF01500F8E76FF03C00F5E7E7
:1091D000491200206C0E0020440E002008B5134BED
:1091E0001A78E2B11B78012B1CD1114802F0DAFE8B
:1091F00008B9002008BD0E4802F0DAFE0D4B00222F
:10920000C3E908220C4B082101391A719A6003F155
:109210000C03F9D12022094803F0EBFEE9E76FF0D7
:109220000C00E7E76FF00F00E4E700BF49120020F1
:10923000980E0020700E0020E40D0020C40D0020C8
:1092400008B50A4A1278012A0346D0B207D14BB1B9
:109250001A68074B1A60FFF7CDFB002008BD6FF0BE
:109260000F00FBE76FF01500F8E700BF4912002080
:109270009801002008B5094B1B78012B08D150B18B
:10928000074B02685A600220FFF7B4FB002008BDBC
:109290006FF00F00FBE76FF01500F8E749120020B0
:1092A0009801002010B50F4B1B78012B0C4613D1F1
:1092B000A8B1082913D80A4601460B4803F08BFED3
:1092C0000A4AFF231474C4F1080423410420937450
:1092D000FFF790FB002010BD6FF00F00FBE76FF071
:1092E0001500F8E749120020A00100209801002095
:1092F000642807D8064B1B78012B06D1054BD87480
:10930000002070476FF0150070476FF00F00704736
:109310004912002098010020184BD3F81C15D3F8EF
:1093200020254A40024228D1D3F82415D3F8282515
:10933000C1F30720CBB2834214D0C1F3074083426C
:1093400010D0B3EB116F0DD0D1B28B420AD0C2F363
:1093500007218B4206D0C2F307418B4202D0B3EB08
:10936000126F0AD1054AD2F8743723F0807323F0C4
:10937000010343F08073C2F8743770470010004057
:109380000C4B0D491A78D30003F1804303F5F833F1
:10939000C3F810150949C3F8141501F5A83120B117
:1093A00002F51173064841F8230001239340C1F8E8
:1093B000043570474C1200201841014000A00040C5
:1093C00044A000400A4B0B481A7801239340C0F890
:1093D0000835D30003F1804303F5F83302F5117229
:1093E0000021C3F81015C3F8141540F82210704777
:1093F0004C12002000F00140F0B52B4B2B4C1B7899
:109400002B4FDA0014442B4A0025C2F81851D2F829
:109410001821294A15788000EA00C0B202F1804282
:1094200002F5F83200F1804000F58050C2F8107566
:10943000C2F81405214A05F5117042F82040204A6F
:1094400020481678F20002F1804202F5F832012439
:10945000C2F8100500F5973000F58470C2F81405C5
:1094600004FA06F604FA05F0304369B1164A174EBD
:109470001178CA0002F1804202F5F8328C40C2F83D
:1094800010752043C2F814659B0003F1804303F577
:10949000F8330122D3F80018AA400A43C3F8002881
:1094A000064BC3F80405F0BD4A12002004F0014049
:1094B00018410140004001404D12002000F00140E1
:1094C0004B120020101100404C12002000A0004060
:1094D00030B5224B1C78224B1B78012000FA04F295
:1094E00000FA03F52A4319B11E4D2D78A840024316
:1094F000E0001D4D00F1804000F5F830DB00C5F8BC
:10950000082503F180430022C0F8102503F5F83345
:10951000C0F8142504F5117045F82020C3F8102573
:10952000C3F8142551B10F4B1B78DB0003F18043C6
:1095300003F5F833C3F81025C3F814250B4B1B783B
:109540009B0003F1804303F5F8330121D3F8002891
:10955000A14022EA0102C3F8002830BD4D120020CC
:109560004B1200204C12002000F001404A12002053
:10957000154B164916480022C3F81821D3F81831A4
:10958000144B1B78DA0002F1804202F5F832C2F87F
:10959000101501F5973101F58471C2F814150E4AC2
:1095A0001178CA0002F1804202F5F832C2F81005C3
:1095B0000A48C2F81405012202FA03F38A40134351
:1095C000074AC2F8043570470040014010110040BE
:1095D00044A100404B1200204E1200200010004019
:1095E00000F001400F4B1A780F4B1B78012101FA54
:1095F00002F09940D200DB00014302F180420B48A7
:1096000003F1804302F5F83203F5F833C0F808158A
:109610000021C2F81015C2F81415C3F81015C3F8CC
:10962000141570474B1200204E12002000F001402C
:10963000134B14491B781448DA0002F1804202F5FA
:10964000F832C2F8101501F50F410C31C2F81415AB
:109650000E4A1178CA0002F1804202F5F832C2F8CF
:109660001005A0F511403038C2F81405012202FAA5
:1096700003F38A401343064AC2F80435704700BF1B
:10968000501200200411004040A100404F12002061
:1096900000F001400F4B1A780F4B1B78012101FAA3
:1096A00002F09940D200DB00014302F180420B48F6
:1096B00003F1804302F5F83203F5F833C0F80815DA
:1096C0000021C2F81015C2F81415C3F81015C3F81C
:1096D00014157047501200204F12002000F0014076
:1096E00008B5002000F0F6F9002802DA6FF0120049
:1096F00008BD174B1870002000F0ECF90028F5DBCE
:10970000144B1870002000F0E5F90028EEDB124B36
:109710001870002000F0DEF90028E7DB0F4B18700E
:10972000002000F0D7F90028E0DB0D4B1870002076
:1097300000F0D0F90028D9DB0A4B1870002000F0A7
:10974000D5F90028A2BF084B18700020D0E700BF51
:109750004D1200204B1200204C120020501200200D
:109760004F1200204E1200204A120020004870477D
:1097700010110040F0B5374B1F78374B1C78374B32
:109780001D78374B1978374B01261A7806FA07F0FF
:1097900006FA04F306FA05FC034343EA0C0306FA4F
:1097A00001FC43EA0C0306FA02FC43EA0C03DFF86F
:1097B000B8C09CF800C0E40006FA0CF64FEAC70CEB
:1097C00033430CF1804C294E04F1804404F5F83405
:1097D0000CF5F83C07F51177C6F808350023CCF8EE
:1097E0001035C900CCF81435D20046F82730C4F83B
:1097F0001035C4F81435EC0004F1804401F18041C7
:1098000002F1804202F5F83204F5F83401F5F8313E
:1098100005F51175C4F81035C4F8143546F825302F
:10982000C1F81035C1F81435C2F81035C2F8143536
:10983000C6F81035C6F814350D4B1B789B0003F1A4
:10984000804303F5F833D3F8002822EA0002C3F876
:109850000028F0BD4D1200204B1200204C120020B9
:10986000501200204F1200204E12002000F0014044
:109870004A12002008B5124B0020197800F030F988
:10988000104B0020197800F02BF90F4B00201978AD
:1098900000F026F90D4B0020197800F021F90C4B4F
:1098A0000020197800F01CF90A4B0020197800F00C
:1098B00017F9094B00201978BDE8084000F01EB9DF
:1098C0004D1200204B1200204C120020501200209C
:1098D0004F1200204E1200204A120020BFF34F8F7B
:1098E0000549064BCA6802F4E0621343CB60BFF33C
:1098F0004F8F00BFFDE700BF00ED00E00400FA0558
:10990000024AD2F80034002BFBD0704700E001403F
:1099100010B54FF08053D3F83021082A4ED14FF0C4
:1099200080420021C2F80C11C2F81011C2F838159B
:1099300002F54042D3F80414C2F82015D3F80814F5
:10994000C2F82415D3F80C14C2F82815D3F8101453
:10995000C2F82C15D3F81414C2F83015D3F8181423
:10996000C2F83415D3F81C14C2F84015D3F82014EB
:10997000C2F84415D3F82414C2F84815D3F82814B3
:10998000C2F84C15D3F82C14C2F85015D3F8301483
:10999000C2F85415D3F83414C2F86015D3F838144B
:1099A000C2F86415D3F83C14C2F86815D3F8401413
:1099B000C2F86C15D3F84434C2F8703502F056FB87
:1099C00018B13C4B3C4AC3F88C2602F04FFB18B14F
:1099D0003A4BFB22C3F8182502F048FB58B14FF070
:1099E00080424FF08051D2F8E43ED1F8581261F332
:1099F0000303C2F8E43E02F039FB20B1304B4FF4D0
:109A00000072C3F840264FF08053D3F83031082B52
:109A100017D14FF08043D3F80024D20744BF6FF032
:109A20000102C3F800244FF08053D3F83431042BE3
:109A300081BF4FF01023D3F808224FF08043C3F8C2
:109A400058254FF01021D1F80C32DB0714D51D48F2
:109A50000123C0F80435FFF753FFD1F80C3223F08F
:109A60000103C1F80C32FFF74BFF0023C0F80435A7
:109A7000FFF746FFFFF732FFD1F80032002B03DB80
:109A8000D1F80432002B14DA0E4901234FF01020D4
:109A9000C1F804351224FFF733FFC0F80042FFF786
:109AA0002FFFC0F80442FFF72BFF0023C1F8043555
:109AB000DEE710BD005000404881030000F0004088
:109AC0000090024000E00140014B1860704700BF69
:109AD000B80E0020014B186802F0DABAB80E002068
:109AE000014B186802F0F2BAB80E0020024B186859
:109AF000043002F0CDBA00BFB80E0020024B186847
:109B0000043002F0E3BA00BFB80E0020014B002081
:109B10001B681847BC0E0020014B1B68184700BF8C
:109B2000BC0E002010B50C4C237993B9012323718E
:109B30000A4B2060002818BF184600F04BF850B9B7
:109B400023680748002BBDE8104008BF184600F006
:109B500091B86FF0770010BDBC0E00200D9B020085
:109B6000199B020008B5064B1B682BB10020FDF7BE
:109B700037FA08B9FDF712FA024B01221A7008BD34
:109B8000BC0E00205112002038B54FF08044012354
:109B9000C4F8083363600023C4F80031D4F80031FE
:109BA00042F21075D4F80C24D4F80C34D20307D543
:109BB000DB0705D5012002F069FA013DF2D138BD7D
:109BC00002F0B8FA0028FAD0014B00225A71F6E7E9
:109BD000C40E002010B508490C794CB90123086067
:109BE0000B7102F0A7FA08B9002010BD4C71FBE719
:109BF0006FF07700F9E700BFC40E00204FF08043FC
:109C00000022C3F80021D3F80021094901221A607B
:109C1000096811B1C3F804237047D3F80021002A62
:109C2000FBD00022C3F80021D3F80031704700BFF9
:109C3000C40E002010B54FF08043D3F80423D207A0
:109C400015D5D3F8002192B10022C3F800210121DB
:109C5000D3F80021C3F8081302F06CFA044B10B1DA
:109C60005A7922B95971BDE810401B68184710BDD8
:109C7000C40E0020074A137943B901211060117105
:109C80004FF080421846C2F8183570476FF07700E1
:109C9000704700BFCC0E002010B54FF080431D4C24
:109CA000D3F81814D3F8182411F4803F1AD002F016
:109CB0000302012A01D092B900224FF08043C3F879
:109CC00018250022C3F80421D3F8042101229A6048
:109CD00022688AB9D3F80421002AFBD014E002F0EC
:109CE0003AFAE9E7D3F81424D107E5D5D3F81C24D0
:109CF0009207F4D422681AB10222C3F8042310BDDB
:109D0000D3F80421002AFBD00022C3F80421D3F8A1
:109D10000431F4E7CC0E0020F8B54FF08043194F22
:109D2000D3F80443012504F01A04002604B9F8BD51
:109D3000B4FA84F0C0F11F00830003F580739BB276
:109D400003F1804305FA00F2196892B224EA020492
:109D50000029EBD01E601B684FF08043022AC3F835
:109D600008230BD1D3F81814D3F81814890705D198
:109D7000C3F81855C3F804239D60D7E73B68C0B209
:109D80009847D3E7CC0E0020036803F01F025B095D
:109D9000026004D0012B034818BF002070474FF029
:109DA000A040704700030050034A430900F01F0021
:109DB000D35C1844C0B2704785D60200024611F049
:109DC000010030B515D18B07C1F3400022D51249EF
:109DD000D1F8200550604FF08052C1F82005D2F82C
:109DE0003021082A08BFD1F82025003818BF0120EB
:109DF00010E04FF0A0444FF08055D4F820351360A8
:109E0000C4F82035D5F83051082D08BFD4F82045C6
:109E1000002BD8D030BD00BF00030050F7B504467A
:109E20000846FFF7C1FF04EB40060D46B38ADB0787
:109E30002AD5204602F092FA2946204602F0FEF981
:109E400050B1204602F010FA276807EB800000238B
:109E5000C0F81035C0F810352946204602F02DFA1A
:109E60000021B18201A80195FFF78EFF019B00EB55
:109E70008300074BD0F80027134043F00203C0F8DB
:109E80000037084603B0F0BD6FF01500FAE700BFD9
:109E9000F0F8FCFF014802F019B900BFC40100202E
:109EA00010B504480C4602F0F3F80028A4BF207057
:109EB000002010BDC40100202DE9F04F074689B0F5
:109EC00057F8049BD9F80413C9B28346082241F01D
:109ED0000041484602F01AFA051E2FDA002303213A
:109EE00006A8CDE90633FFF769FF634B01930DF137
:109EF00018084FF0000A019A604912F8013B0192DC
:109F0000DA0803F007038A5C22FA03F3DB071CD4A8
:109F10000AF10103022B08F104084FF0010AEAD10B
:109F20004FF000410022484602F0F0F9032106A854
:109F3000FFF744FF0028D8D125F000450124002D6B
:109F400040F0848009B0BDE8F08F4D4B534402933C
:109F5000D8F80060002EDBD0029B96FAA6F61C789B
:109F6000B6FA86F646EA44142046FFF71DFF0BEBCF
:109F70004000F208818A18F802000594C1F38203B8
:109F80000393009306F00706012303FA06F620EA7E
:109F9000060008F8020005A8FFF7F6FE059A039BE5
:109FA00002F5E07211F0100F50F82260C6F301467E
:109FB00033D0009A3846214602F060F905A805948E
:109FC000FFF7E2FE059B03F5E073F6B250F823308D
:109FD000C3F301439E4207D10021204602F01FF93E
:109FE0003146204602F01BF905A80594FFF7CCFE88
:109FF000059B012202FA03F3C0F820354FF080538D
:10A00000D3F83031082B01BFD0F82035D0F82035F7
:10A01000D0F82035D0F820359AE7022E14BF02215F
:10A0200003212046039302F0FAF8039B032B03D08D
:10A03000022E07D1012BD7D1009A2146384602F0D3
:10A040001DF9D1E7032ECFD1022BF4E795FAA5F342
:10A05000B3FA83F304FA03F225EA020503F5A272C8
:10A060000BEB430359F82220B3F87C10C2F30142F2
:10A07000384602F003F962E795D60200FCD40200EC
:10A0800095D60200044AD2F80034DB07FBD5016004
:10A09000BFF35F8F704700BF00E001404FF0805377
:10A0A0001A69B0FBF2F302FB13036BB9084B0222EF
:10A0B000C3F80425C3F80805D3F80024D207FBD55C
:10A0C0000020C3F8040570476FF00C00704700BF14
:10A0D00000E0014010B5054C0123C4F80435FFF73A
:10A0E000D1FF0023C4F8043510BD00BF00E00140DB
:10A0F00010B54FF08043D3F80443620707D54FF4FF
:10A10000847002F010FB10B11E4B1B689847A30629
:10A1100008D54FF48A7002F006FB18B11A4B0020E4
:10A120001B689847600608D54FF48C7002F0FBFA64
:10A1300018B1154B01201B689847210608D54FF42C
:10A140008E7002F0F0FA18B1104B00201B6898478F
:10A15000E20508D54FF4907002F0E5FA18B10B4B08
:10A1600001201B689847A3050AD54FF4927002F0AE
:10A17000DAFA28B1054BBDE810401B6802201847E9
:10A1800010BD00BFDC0E0020D80E0020D40E002031
:10A19000036803F01F025B09026004D0012B03482F
:10A1A00018BF002070474FF0A040704700030050D8
:10A1B0002DE9F3470B7F044663BB354D0E1F01F1BC
:10A1C000100701F10C094FF0010856F804AFBAF17D
:10A1D000FF3F1BD03B78CDF804A001A8002B4FD047
:10A1E000FFF7D6FF019B08FA03F3C0F8083501A872
:10A1F000CDF804A0FFF7CCFF019B00EB8300D0F863
:10A2000000372B4043F00303C0F80037B14507F196
:10A210000107DAD191F81DC00D8B4F7D8E7D8A7EAE
:10A22000C87E2368BCF1000F0BD1D1E9008ED1E9C3
:10A2300002C1C3F86085C3F864E5C3F868C5C3F814
:10A240006C1542EA0022C3F80C75C3F80465C3F824
:10A250000855C3F8102520680023C0F81031D0F845
:10A260001021C0F80831D0F80821C0F80C31D0F81E
:10A270000C3140F3073002B0BDE8F047FCF78EBE6A
:10A28000FFF786FF019B08FA03F3C0F80C35AEE731
:10A29000F0F8FCFF30B500F01F04400911D0012890
:10A2A00012D10C4800EB84001B02D0F800570A4C76
:10A2B00043EA82022C4042EA41012143C0F80017E0
:10A2C00030BD4FF0A040EDE704F5E074002353F8F3
:10A2D0002430FFDE00030050F0F8FCFFF8B51B4A05
:10A2E0000C68B2FBF4F304FB132565BB94422AD837
:10A2F0005A1E12EA030526D1B3F5007F23D802685F
:10A300000F79D2F804454E7967F30104C2F8044589
:10A31000D2F8081593FAA3F3B3FA83F366F30101B5
:10A32000C2F80815C2F810350068402300F58072A5
:10A33000D550D1580433582BFAD140F30730FCF7ED
:10A340002DFE0020F8BD6FF01500FBE70024F4009F
:10A3500038B5EFF31185402383F31288BFF36F8F75
:10A36000064B9C6802F08EFC85F31188BFF36F8F5B
:10A370002046BDE83840FCF7E3BE00BFE00E0020F9
:10A3800038B50A4B53F82040013053F82050A5420D
:10A3900000D838BD606830B1037EDB0701D402F01D
:10A3A00051FC0834F3E723689847FAE700D5020028
:10A3B00070B52A4B2A4C2B4D86B0012203201A700F
:10A3C000FFF7DEFF02F0FEFD0420FFF7D9FF26466F
:10A3D000AE4204F130040FD300F002FD204CAC4239
:10A3E00026D300F011FDFCF73BF91F4A938923F0B7
:10A3F0000103938106B070BD54F80C3C059354F8EA
:10A40000103C049354F8143C039354F8183C029302
:10A4100054F81C3C019354F8203C009354E90A235F
:10A4200054E90C0100F01CFB54F8303C5E65CEE7AB
:10A43000D4E90A23B3F1FF3F08BFB2F1FF3F05D0D3
:10A4400052EA0301206803D102F04CFD3034C6E724
:10A450000649183000F0DAFEF8E700BF521200207B
:10A46000B8D20200E8D20200580600208DCE0200C9
:10A4700070B5002386B00122CDE90423134E144D9C
:10A4800001930F22CDE902321249142303FB005538
:10A4900006EBC01604464FF4C07000FB04110E4BCF
:10A4A00000954FF4A072304600F0DAFA337C0B4A84
:10A4B000EE6023F0040333744FF4046304FB0333AE
:10A4C00013442C746B6006B070BD00BFD80500202B
:10A4D000E00E00200021002057CD0200C01800200F
:10A4E0007FB50020FFF74CFF284B83F30888284CEA
:10A4F000636943F400736361E02384F8223000252C
:10A500002023E37725766576A57684F82050636A64
:10A5100043F4E023636284F82350FCF7A9FCFCF7C2
:10A52000F9FD4FF0FF33A362E362FCF715FFFCF780
:10A5300071FE1848184C00F0DFFA0120FFF720FFE9
:10A540000220FFF71DFF00F089FC144B14495C61E9
:10A55000144B059301234FF48062CDE90353CDE9F9
:10A560000155114B0095204600F07AFA237C0646EF
:10A5700023F004032046237402F065FC2846FFF70D
:10A5800077FF094A31462046FCF7A6FD002100204E
:10A5900000ED00E0D806002058060020E00E002064
:10A5A0008022002074D60200B1A3020038B5074C07
:10A5B000074DAC4201D3002038BD204602F065FBB8
:10A5C00008B91C34F5E76FF01500F5E76C020020C0
:10A5D0006C02002073B50C46EFF31181402585F322
:10A5E0001288BFF36F8FC5685DB125602B68C360AB
:10A5F000836901338361002081F31188BFF36F8F7A
:10A6000011E052EA030603D125606FF00B00F3E777
:10A61000CDE900230246083000F054FB18B9034B83
:10A620009B685B69236002B070BD00BFE00E002034
:10A63000F7B50D4604469DF82010EFF31187402032
:10A6400080F31288BFF36F8F266AE06886423FD29C
:10A650002668B44219D0C6B1304602F087FB06F135
:10A66000180002F076FC54F8082F7069294600257E
:10A6700002F0B1FC3046B56702F0E5FB20463946F2
:10A6800002F014FC284603B0F0BDA268A9B1E0694D
:10A69000294602F0A0FCE369A26813446269E36101
:10A6A000934201D12369E361236A013323620020CD
:10A6B00087F31188BFF36F8FE5E7A069236998429C
:10A6C00008BF6069801AA061294602F084FCEBE7AC
:10A6D00052EA03010BD00749896804F108004D6173
:10A6E000CDE900233946224600F0ECFACBE76FF0C3
:10A6F0002200DDE7E00E0020F7B504460846EFF340
:10A700001186402181F31288BFF36F8F216A0029DF
:10A710003AD0A268A16902F05EFCA369A26825682C
:10A7200013446269A361934204BF2369A361236A4E
:10A73000AC4203F1FF33236235D02846002D33D0DD
:10A7400002F014FB05F1180002F003FC6969A2682D
:10A75000E06902F040FCE369A26813446269E361C6
:10A76000934204BF2369E361236A00270133236214
:10A770002846AF6702F067FB04F10800314602F09B
:10A7800095FB384603B0F0BD52EA030111D00A49E7
:10A7900089684861CDE900233146224604F108006A
:10A7A00000F090FAEEE7002086F31188BFF36F8F78
:10A7B000E8E76FF02200F7E7E00E00202DE9F34113
:10A7C000044617461E46EFF31188402383F3128890
:10A7D000BFF36F8F304BC2689B6872B1806898423C
:10A7E00017D057EA060216D188F31188BFF36F8F8E
:10A7F0006FF00F0002B0BDE8F08193F90E102161F7
:10A800000132C4E9023288F31188BFF36F8F002050
:10A81000F0E72169F3E793F90E1090F90E309942B1
:10A8200030DA9942A8BF194602F0B4FA0546CDE9DC
:10A8300000761A482246414600F044FA0028E6D045
:10A84000EFF31186402383F31288BFF36F8FA06864
:10A85000D0B1236821699C420AD04BB193F90E30E4
:10A860009942A8BF19466FF07F039942B8BF1946B5
:10A8700002F090FA40B10948314602F017FB6FF040
:10A880000A00B7E70025D2E7002DF4D186F311883E
:10A89000BFF36F8FF3E700BFE00E002053120020DC
:10A8A000F8B583680546002B3FD0234A926893424F
:10A8B0003ED1C368012B03D9013BC3600020F8BD22
:10A8C000EFF31187402383F31288BFF36F8F016981
:10A8D000806802F05FFA2C68A54207D10023C5E921
:10A8E000023387F31188BFF36F8FE7E7002CF5D0B1
:10A8F000D4E9003213605A60237C002623F002035F
:10A900002374C4E90066A66004F1180002F021FB7C
:10A91000AC6094F90E302B612046A66702F093FAE2
:10A920000648394602F0C2FAC8E76FF01500C6E7DC
:10A930004FF0FF30C3E700BFE00E002053120020AD
:10A9400070B5EFF31186402383F31288BFF36F8F46
:10A950000468A0421AD0CCB1D4E9003213605A6026
:10A96000237C002523F002032374C4E90055A5606D
:10A9700004F1180002F0EDFA2046A56702F063FA30
:10A9800031460848BDE8704002F090BAD0E9023282
:10A990009A4218BF0133836086F31188BFF36F8F2B
:10A9A00070BD00BF5312002013B5EFF31181402496
:10A9B00084F31288BFF36F8F846844B1013C8460D4
:10A9C00081F31188BFF36F8F002002B010BD52EAEF
:10A9D000030406D181F31188BFF36F8F6FF00F006E
:10A9E000F3E7CDE900230246014800F06BF9ECE7FC
:10A9F0005312002070B50546EFF31186402383F310
:10AA00001288BFF36F8F00232C68A54218D0BCB109
:10AA1000D4E9003213605A60227C002322F0020243
:10AA2000C4E900332274A36004F1180002F091FA23
:10AA30006FF00A03A367204602F005FA0123E3E75B
:10AA40000022AA6023B986F31188BFF36F8F70BD0F
:10AA500031460248BDE8704002F028BA5312002087
:10AA60002DE9F043073285B022F007020E461F465B
:10AA70001099818100F158037F32C0E916330446F2
:10AA8000002322F03F020421836001743F2A0F98C3
:10AA9000A073C4E90633E37306F14009A2F140084C
:10AAA00005D883F31188BFF36F8F084602DFB5180E
:10AAB00029462046FCF778F807300E9B20F0070067
:10AAC000A066C4E9189802930D9B01932D1A0C9B64
:10AAD00000932A463B4631462046FCF7CBFA00233A
:10AAE0006365044B9B6803B1DB6EE366284605B0E3
:10AAF000BDE8F083E00E002001230374838100236E
:10AB0000C0E91833C366014B98607047E00E00201F
:10AB1000094A93686FF00A019967084958674B68BA
:10AB200043F080534B60002383F31188BFF36F8F92
:10AB30009368986F704700BFE00E002000ED00E0C2
:10AB400070B590F91020037C002A2FDBD9062DD197
:10AB50001A4C63F07F032246037452F8183FE169F0
:10AB6000934207D1C0E900210860E0610FE09942FB
:10AB7000F8D01B68002BF5D093F90E6090F90E50B9
:10AB8000AE42F4DD5968C0E9003108605860A5693B
:10AB9000954200D005B9E568A3681A7CD20606D1B3
:10ABA000DA897F2A03D9AA690AB9636170BDAB4209
:10ABB00002D0284600F0ACFA6561F7E7E00E00200D
:10ABC00038B590F91020037C002A014604DA03F01E
:10ABD0007F03037402F0FFF80D4D2A46AB6852F86C
:10ABE000184F944200D004B9EC688B4207D01A7C0D
:10ABF000D20604D1DA897F2A01D9A2692AB1A342F7
:10AC000002D0204600F084FA23466B6138BD00BFB5
:10AC1000E00E0020B3F1FF3F08BFB2F1FF3F03D0C9
:10AC20000249183000F0F2BA704700BF8DCE020022
:10AC3000034648B9EFF3058232B9064A5169926872
:10AC4000914201D0FFF764BF83F31188BFF36F8F88
:10AC5000704700BFE00E002038B5184CA168E069CD
:10AC60000B68814214BF1A46002249680B60596084
:10AC7000A368E1692AB9124AC3E900210B60E361C4
:10AC80000AE092F90E5093F90E00854212DD5168E8
:10AC9000C3E900210B605360A569094B9D4200D0B8
:10ACA00005B9E568A3689D4202D0284600F030FA55
:10ACB000656138BD8A42DED01268DBE7E00E002015
:10ACC000F80E0020F8B50E4B0C4611460D4A986858
:10ACD0001060DDE90667EFF31182402282F31288EB
:10ACE000BFF36F8F9D68284602F087F828463246EA
:10ACF0003B46FFF78FFF2046BDE8F840FFF708BF4F
:10AD0000E00E0020000F0020F8B50446EFF3118795
:10AD1000402383F31288BFF36F8F037C03F01F027D
:10AD2000002A0CBF0126002649B235D103F07F036B
:10AD3000037402F050F8294D037C817363F07F03A4
:10AD40002A46037452F8183FE869934207D1C4E9D0
:10AD500000200460EC610DE09842F8D01B68002BE5
:10AD6000F5D093F90EC08C45F6DD5968C4E9003181
:10AD70000C605C60AC69944200D004B9EC68AB68CC
:10AD80009C4202D0204600F0C3F96C6187F3118821
:10AD9000BFF36F8F3046F8BD9B071CD5856802F066
:10ADA0001AF881732B689D4209D16B68C4E900537E
:10ADB0001C606C60EAE76A689A42F6D01B68002B58
:10ADC000F3D093F90E208A42F5DD5A68C4E90032C7
:10ADD00014605C60DAE78173D8E700BFE00E002002
:10ADE000EFF31181402383F31288BFF36F8F054B7C
:10ADF0009A68D37B013BD37381F31188BFF36F8FC4
:10AE0000704700BFE00E002070B5EFF311864023BD
:10AE100083F31288BFF36F8F0F4DAB68DA7B01327B
:10AE2000DA732A4652F8184F944200D004B9EC68FD
:10AE30001A7CD20604D1DA897F2A01D9A2692AB103
:10AE40009C4202D0204600F063F923466B613046F5
:10AE5000BDE87040FFF7ECBEE00E0020024B03F1AE
:10AE60001802C3E906227047E00E002070B5EFF328
:10AE70001186402383F31288BFF36F8F1A4CA168A9
:10AE8000E0690B68814214BF1A46002249680B60D2
:10AE90005960A368E1692AB9144AC3E900210B602B
:10AEA000E3610AE092F90E5093F90E00854216DD37
:10AEB0005168C3E900210B605360A5690B4B9D42AB
:10AEC00000D005B9E568A3689D4202D0284600F08D
:10AED0001FF965613046BDE87040FFF719BE8A4230
:10AEE000DAD01268D7E700BFE00E0020F80E00208D
:10AEF000F8B550EA010306460C4603D1FFF7B6FF4A
:10AF00000020F8BDEFF31187402383F31288BFF3CD
:10AF10006F8F124D124BA8681860FFF751FEA8689A
:10AF2000104923463246183000F070F9AA68137CA5
:10AF300043F00403137404463846FFF7E9FDAB6899
:10AF4000D3E90A23B3F1004F08BF002AD8D102F099
:10AF500035F8201A20EAE070D3E700BFE00E0020A9
:10AF6000000F00208DCE0200014B9868704700BF93
:10AF7000E00E00202DE9F84304468789EFF311869F
:10AF8000402383F31288BFF36F8F037C190705D525
:10AF900086F31188BFF36F8FBDE8F883D90943F0BA
:10AFA00008026FD10274A36813B1204601F01BFFA1
:10AFB00004F1180001F0CDFFA56D04F15808A84573
:10AFC00011D04FF0000975B1284601F00CFF05F1D2
:10AFD000180001F0BEFFC5F878902846FFF7B0FDD5
:10AFE000A56DA845EFD1DFF8BC80D8F808309C42A9
:10AFF00050D1EFF30589B9F1000918BF4FF00109ED
:10B00000D8F81850284A954200D00DB9D8F80C50FD
:10B01000AB4202D0284600F07BF82046C8F8145016
:10B0200000F065FDB9F1000F02D02048FFF764FD84
:10B03000D8F808309C4230D1EFF305836BBBA2896E
:10B04000D20711D586F31188BFF36F8F83F3118870
:10B05000BFF36F8F0423184602DFEFF311864023FE
:10B0600083F31288BFF36F8F3046FFF751FDFB0764
:10B0700092D5002383F31188BFF36F8F0423184602
:10B0800002DF89E703F07F0343F00803037401F054
:10B09000A2FE88E74FF00009B2E786F31188BFF3FC
:10B0A0006F8FE4E7E00E0020F80E0020D8060020A5
:10B0B000027C12F01F02034610D10A4988420DD0CB
:10B0C0000949086868B1D9897F2909D893F90E2000
:10B0D000064B1B689A42B8BF00207047002070479B
:10B0E00010467047D8050020C8010020040F00203A
:10B0F000044BC01A044BC0105843044B01221A548D
:10B10000704700BF58070020ABAAAAAA531200201C
:10B1100070B50C4B0C4D1E7CFFF7CAFF182303FBC8
:10B1200006550446284601F014FF084B00229A55A4
:10B130003CB1621E28460649BDE87040D31700F0B6
:10B1400065B870BDE00E00205807002053120020A3
:10B15000F1B0020038B5EFF31185402383F3128874
:10B16000BFF36F8F0F4B104A9C681068A04206D146
:10B17000FFF7CEFF85F31188BFF36F8F38BD002135
:10B180001B7C1160094AD35C002BF3D02046FFF7EB
:10B190008FFF0028EED0237CDB0601D1FFF75CFD9A
:10B1A0002046E5E7E00E0020000F002053120020AB
:10B1B000024B1868984208BF00207047CC0100205D
:10B1C000034B1B680BB9FDF7D7B80020704700BFD1
:10B1D000080F002030B570B10B4B5B6898420AD065
:10B1E000036843B1D3E90421D0E90445121941EBC6
:10B1F0000501C3E90421D0E9003213605A6000233D
:10B20000C0E9003330BD00BFCC010020B3F1FF3FE7
:10B2100008BFB2F1FF3F2DE9F84F044699461546A5
:10B220001F467AD08160EFF31188402383F31288A0
:10B23000BFF36F8FB9F1000FDFF8E4A020DBFFF759
:10B24000BFFFDAE90027013549F100092D1849EB64
:10B25000E073C4E90453AD18064643EB07074FF00B
:10B260000109FFF7A5FFDFF8BCE0DEF804A0034604
:10B27000EBB9C4E900EACAF80040CEF8044028E07F
:10B28000DAE900126FF001035B1A4FF0FF3161EB56
:10B2900002025B1B62EB0902012B72F10001BCBFD1
:10B2A00001230022C0E904324FF00009D9E7D3E9B5
:10B2B000041CD4E904208A4270EB0C0B24DA891AAE
:10B2C0005A686CEB0000C3E90410C4E90032146052
:10B2D0005C60FFF76DFF84420ED1134B1B685BB9B6
:10B2E000B9F1000F02D1FFF76BFF0646304601F0BF
:10B2F00019FE0021FDF712F888F31188BFF36F8F54
:10B3000028463946BDE8F88F521A60EB0C005345C9
:10B31000C4E90420ADD01B68AAE700252F46EFE75B
:10B3200070070020CC010020080F00202DE9F04715
:10B33000DFF8A890DFF8A880C9F800000246FFF700
:10B3400037FF0D4600260027D8E900134FEAE27EBA
:10B3500050B1D0E9044CA2427EEB0C0A1BDAA41ACD
:10B360006CEB0E06C0E9044652184FF0000443EBA4
:10B370000E032046C8E90023C9F8004001F0D2FDC1
:10B380002146FCF7CBFF85F31188BFF36F8FBDE833
:10B39000F047FFF7DFBE611843EBE473C0E90467D1
:10B3A000C8E90013FFF716FF01224FF00043C0E980
:10B3B000042385F31188BFF36F8F83689847EFF3F9
:10B3C0001185402383F31288BFF36F8FD9F80020D3
:10B3D000121BC9F80020FFF7EBFEB5E7080F0020AD
:10B3E0007007002010B5EFF31184402383F3128817
:10B3F000BFF36F8FFFF7E4FE054A0346D2E9000171
:10B40000181841EBE37184F31188BFF36F8F10BDFF
:10B410007007002038B5064C064DAC4201D3002021
:10B4200038BDD4E90112204601F0CDFD1434F4E713
:10B430006C0200206C02002010B50A4C23681BB17E
:10B4400001232360002010BD00F0F0F80028F7D0A1
:10B450000138062803D8044B53F8200010BD0348D8
:10B4600010BD00BF0C0F002018D50200FE8FFFFF9B
:10B47000BFF34F8F0549064BCA6802F4E0621343DD
:10B48000CB60BFF34F8F00BFFDE700BF00ED00E0D2
:10B490000400FA0510B4094B09490A4C4FF0FE327A
:10B4A000C3F800244968C3F80424C3F80824C3F887
:10B4B0000C240023C4F8003510BC084700B002502B
:10B4C000D401002000A00250D0E90012014BC3E9D2
:10B4D00000127047D401002010B5044650B16368D3
:10B4E00013F0685F05D0064A934202D00023236020
:10B4F000626010BD034B04485B689847EFE700BFEC
:10B500002C5F5CA9D401002034D50200C8B1436887
:10B510000D4A934213D013F0685F0ED0012350E818
:10B52000002F194640E8001C9CF0000FF7D1012ABB
:10B53000F5D0BFF35F8F0020704704487047044880
:10B5400070476FF4E04070472C5F5CA9E98FFFFF04
:10B55000EA8FFFFF80B14368094A93420AD013F093
:10B56000685F05D0BFF35F8F002303601846704704
:10B5700004487047044870476FF4E040704700BFCC
:10B580002C5F5CA9E98FFFFFEA8FFFFF10B504462F
:10B5900020B1044B63600022226010BD0248FFF717
:10B5A00079FFF6E73A00003A5CD5020010B5D0E921
:10B5B0000023194C6360D0E90230C4E902302260F4
:10B5C000164BD1F800C0C3F800C0D1F804C0C3F8CE
:10B5D00004C01348D1F808C0C3F808C0D1F80CC0A3
:10B5E0000969C3F80CC01961436813F0685F04D09F
:10B5F0000C490023C0E9003190470B48436813F021
:10B60000685F07D0074923680022C0E90021BDE830
:10B610001040184710BD00BFF0010020DC010020E1
:10B62000100200202C5F5CA90802002008B500F081
:10B6300013F830B900F014F828B9064AC2F80C0A19
:10B6400008BD032008BD00F009F800F043F804200D
:10B6500008BD00BF00B002500020704700207047B6
:10B6600010B5154800F05EF800B110BD134800F0A9
:10B6700059F80028F9D1124C204600F053F8002860
:10B68000F3D1104B10481C6000F04CF80028ECD1AE
:10B690000E4800F047F80028E7D10D4800F042F8C6
:10B6A00001460028E1D100F039F8044608B900F05D
:10B6B0004DF8204610BD00BF500200204C02002073
:10B6C0004802002040020020440200203C020020EA
:10B6D0003802002008B50B4800F02EF80A4800F0A8
:10B6E0002BF80A4800F028F8094800F025F8094826
:10B6F00000F022F8084800F01FF8BDE8084000F00C
:10B700000FB800BF500200204C0200204802002069
:10B71000440200203C020020380200200020704734
:10B72000704700BF08B5034B02681B681068984754
:10B73000002008BDF001002008B5034B02685B68DB
:10B7400010689847002008BDF001002070B5094C32
:10B75000094D2069AB68984718B1084B08485B68E9
:10B760009847084AEB68206900211160BDE87040E5
:10B77000184700BFDC010020F0010020D4010020A8
:10B7800080D50200280F00207047BFF35B8F50E880
:10B79000003F013340E80032002AF8D1BFF35B8F4D
:10B7A000704700EBC100408840087047F8B5034679
:10B7B000FFF7F7FFB0FA80F0C0F11F0003EB800C39
:10B7C000CA00DCF81060171D0C4606328DB256B95F
:10B7D000012101FA00F0D9680143D960CCF810408A
:10B7E000DD539D52F8BDF1000431585AD85303EB94
:10B7F000C0009E52C5805D52F4E7043A2DE9F8433B
:10B80000CC1D114424F0070421F00706A6EB040820
:10B810004FEAD807B7FA87F2C2F12405AD004FF01E
:10B8200000090735C2F12002ED0804604946A7600F
:10B83000C4F80C90920004F1100001F0DAFBAAB2F7
:10B84000530043F0010363807B1B9BB204EBC501F3
:10B850005800A4F80090488024F83520A6F80290FB
:10B8600024F8083004EBC70329465A8842F0010245
:10B870005A802046BDE8F843FFF798BF038B13F0CA
:10B88000070306D10368002B18BF032008BF002060
:10B890007047022B05D1408BB0FA80F04009800040
:10B8A0007047012B04D10368002B18BF0520EDE77A
:10B8B0000020704710B50C4600B111B96FF01500AB
:10B8C00010BD081D00F0ABF80028F9D1A368032BC8
:10B8D000F6D9F3E72DE9F0410D4607461946281D34
:10B8E00090461E4600F0ACF8044638B13346424656
:10B8F00029463846A446BDE8F0416047BDE8F081DE
:10B9000010B4EFF31182402484F31288BFF36F8FD9
:10B91000416110BC0121FAF735BF38B50C46054628
:10B9200058B151B10B6843B14B6833B11C220021AF
:10B9300001F05FFB2C61002038BD6FF01500FBE7C4
:10B94000F8B504460E46FFF7B5FF051E3BDBEFF3E7
:10B950001182402383F31288BFF36F8F638B278B91
:10B960004FF6FF718B4207F007072ED0062F2FD816
:10B97000DFE807F0182E082E180418006FF0850570
:10B98000002303E0013363830225012382F311883E
:10B99000BFF36F8FBBB100233A4631462046FFF715
:10B9A00099FF10E000233360636823B9C4E900669F
:10B9B00027B13D46E4E71E606660F9E702212046B4
:10B9C000FAF7E0FE3D462846F8BD6FF00A05D7E7D6
:10B9D0006FF00405D4E710B5EFF31182402383F331
:10B9E0001288BFF36F8F048B04F00704022C0AD077
:10B9F000012C0CBF6FF004006FF0850082F31188FA
:10BA0000BFF36F8F08E0438B013B9BB2438323B9A5
:10BA10002146FAF7B7FE204610BD2046EEE7034662
:10BA200058B1426802F00302012A03D0032A04D16C
:10BA3000026812B10020986070476FF015007047DF
:10BA40004268816002F00302032A4FF000020346BD
:10BA50000CBF006810465A6070477047C3693BB11D
:10BA6000DB682BB1DB691879B0FA80F040097047C8
:10BA70000120704770B5C56904460E460DB1032319
:10BA80002B712046FFF7EAFFA8B103212046B047FB
:10BA9000002802DA10F1860F0ED1012125B92046C7
:10BAA0003346BDE87040184729712046B04700284A
:10BAB00002DB00232B71002070BDFEE701F099BA74
:10BAC00001F089BA012801D1EFF30583FEF740BCEC
:10BAD00001460068FFF7F6BF08B5FBF761F8BDE85F
